{
  "_format": "hh-sol-artifact-1",
  "contractName": "ChainlinkConsumer",
  "sourceName": "contracts/ChainlinkConsumer.sol",
  "abi": [
    {
      "inputs": [
        {
          "internalType": "address",
          "name": "router",
          "type": "address"
        },
        {
          "internalType": "bytes32",
          "name": "_donId",
          "type": "bytes32"
        },
        {
          "internalType": "string",
          "name": "_source",
          "type": "string"
        }
      ],
      "stateMutability": "nonpayable",
      "type": "constructor"
    },
    {
      "inputs": [],
      "name": "EmptyArgs",
      "type": "error"
    },
    {
      "inputs": [],
      "name": "EmptySource",
      "type": "error"
    },
    {
      "inputs": [],
      "name": "EmptySource",
      "type": "error"
    },
    {
      "inputs": [
        {
          "internalType": "address",
          "name": "requesterAddress",
          "type": "address"
        }
      ],
      "name": "InvalidRequesterAddress",
      "type": "error"
    },
    {
      "inputs": [
        {
          "internalType": "enum StatusState.StatusType",
          "name": "statusType",
          "type": "uint8"
        }
      ],
      "name": "InvalidStatusType",
      "type": "error"
    },
    {
      "inputs": [
        {
          "internalType": "string",
          "name": "url",
          "type": "string"
        }
      ],
      "name": "InvalidUrl",
      "type": "error"
    },
    {
      "inputs": [],
      "name": "NoInlineSecrets",
      "type": "error"
    },
    {
      "inputs": [],
      "name": "OnlyRouterCanFulfill",
      "type": "error"
    },
    {
      "inputs": [
        {
          "internalType": "enum StatusState.StatusMechanism",
          "name": "",
          "type": "uint8"
        }
      ],
      "name": "UnsupportedStatusMechanism",
      "type": "error"
    },
    {
      "anonymous": false,
      "inputs": [
        {
          "indexed": true,
          "internalType": "address",
          "name": "from",
          "type": "address"
        },
        {
          "indexed": true,
          "internalType": "address",
          "name": "to",
          "type": "address"
        }
      ],
      "name": "OwnershipTransferRequested",
      "type": "event"
    },
    {
      "anonymous": false,
      "inputs": [
        {
          "indexed": true,
          "internalType": "address",
          "name": "from",
          "type": "address"
        },
        {
          "indexed": true,
          "internalType": "address",
          "name": "to",
          "type": "address"
        }
      ],
      "name": "OwnershipTransferred",
      "type": "event"
    },
    {
      "anonymous": false,
      "inputs": [
        {
          "indexed": true,
          "internalType": "bytes32",
          "name": "id",
          "type": "bytes32"
        }
      ],
      "name": "RequestFulfilled",
      "type": "event"
    },
    {
      "anonymous": false,
      "inputs": [
        {
          "indexed": true,
          "internalType": "bytes32",
          "name": "id",
          "type": "bytes32"
        }
      ],
      "name": "RequestSent",
      "type": "event"
    },
    {
      "anonymous": false,
      "inputs": [
        {
          "indexed": false,
          "internalType": "bytes32",
          "name": "requestId",
          "type": "bytes32"
        },
        {
          "indexed": false,
          "internalType": "bytes",
          "name": "response",
          "type": "bytes"
        },
        {
          "indexed": false,
          "internalType": "bytes",
          "name": "error",
          "type": "bytes"
        }
      ],
      "name": "ResponseReceived",
      "type": "event"
    },
    {
      "inputs": [],
      "name": "INVALID_ISSUER_ID",
      "outputs": [
        {
          "internalType": "StatusState.IssuerId",
          "name": "",
          "type": "uint8"
        }
      ],
      "stateMutability": "view",
      "type": "function"
    },
    {
      "inputs": [],
      "name": "acceptOwnership",
      "outputs": [],
      "stateMutability": "nonpayable",
      "type": "function"
    },
    {
      "inputs": [],
      "name": "donId",
      "outputs": [
        {
          "internalType": "bytes32",
          "name": "",
          "type": "bytes32"
        }
      ],
      "stateMutability": "view",
      "type": "function"
    },
    {
      "inputs": [],
      "name": "getSource",
      "outputs": [
        {
          "internalType": "string",
          "name": "",
          "type": "string"
        }
      ],
      "stateMutability": "view",
      "type": "function"
    },
    {
      "inputs": [
        {
          "internalType": "bytes32",
          "name": "requestId",
          "type": "bytes32"
        },
        {
          "internalType": "bytes",
          "name": "response",
          "type": "bytes"
        },
        {
          "internalType": "bytes",
          "name": "err",
          "type": "bytes"
        }
      ],
      "name": "handleOracleFulfillment",
      "outputs": [],
      "stateMutability": "nonpayable",
      "type": "function"
    },
    {
      "inputs": [],
      "name": "lastError",
      "outputs": [
        {
          "internalType": "bytes",
          "name": "",
          "type": "bytes"
        }
      ],
      "stateMutability": "view",
      "type": "function"
    },
    {
      "inputs": [],
      "name": "lastRequestId",
      "outputs": [
        {
          "internalType": "bytes32",
          "name": "",
          "type": "bytes32"
        }
      ],
      "stateMutability": "view",
      "type": "function"
    },
    {
      "inputs": [],
      "name": "lastResponse",
      "outputs": [
        {
          "internalType": "bytes",
          "name": "",
          "type": "bytes"
        }
      ],
      "stateMutability": "view",
      "type": "function"
    },
    {
      "inputs": [],
      "name": "owner",
      "outputs": [
        {
          "internalType": "address",
          "name": "",
          "type": "address"
        }
      ],
      "stateMutability": "view",
      "type": "function"
    },
    {
      "inputs": [
        {
          "internalType": "address",
          "name": "requesterAddress",
          "type": "address"
        },
        {
          "internalType": "string",
          "name": "url",
          "type": "string"
        },
        {
          "components": [
            {
              "internalType": "uint64",
              "name": "time",
              "type": "uint64"
            },
            {
              "internalType": "uint64",
              "name": "status",
              "type": "uint64"
            }
          ],
          "internalType": "struct StatusState.BSLStatus",
          "name": "lastStatusState",
          "type": "tuple"
        },
        {
          "internalType": "enum StatusState.StatusType",
          "name": "statusType",
          "type": "uint8"
        },
        {
          "internalType": "uint64",
          "name": "subscriptionId",
          "type": "uint64"
        },
        {
          "internalType": "uint32",
          "name": "callbackGasLimit",
          "type": "uint32"
        }
      ],
      "name": "requestBSLStatus",
      "outputs": [
        {
          "internalType": "bytes32",
          "name": "",
          "type": "bytes32"
        }
      ],
      "stateMutability": "nonpayable",
      "type": "function"
    },
    {
      "inputs": [
        {
          "internalType": "bytes32",
          "name": "",
          "type": "bytes32"
        }
      ],
      "name": "requests",
      "outputs": [
        {
          "internalType": "address",
          "name": "requesterAddress",
          "type": "address"
        },
        {
          "internalType": "enum StatusState.StatusType",
          "name": "statusType",
          "type": "uint8"
        },
        {
          "internalType": "enum StatusState.StatusMechanism",
          "name": "statusMechanism",
          "type": "uint8"
        }
      ],
      "stateMutability": "view",
      "type": "function"
    },
    {
      "inputs": [
        {
          "internalType": "string",
          "name": "_source",
          "type": "string"
        },
        {
          "internalType": "enum FunctionsRequest.Location",
          "name": "secretsLocation",
          "type": "uint8"
        },
        {
          "internalType": "bytes",
          "name": "encryptedSecretsReference",
          "type": "bytes"
        },
        {
          "internalType": "string[]",
          "name": "args",
          "type": "string[]"
        },
        {
          "internalType": "bytes[]",
          "name": "bytesArgs",
          "type": "bytes[]"
        },
        {
          "internalType": "uint64",
          "name": "subscriptionId",
          "type": "uint64"
        },
        {
          "internalType": "uint32",
          "name": "callbackGasLimit",
          "type": "uint32"
        }
      ],
      "name": "sendRequest",
      "outputs": [
        {
          "internalType": "bytes32",
          "name": "",
          "type": "bytes32"
        }
      ],
      "stateMutability": "nonpayable",
      "type": "function"
    },
    {
      "inputs": [
        {
          "internalType": "bytes32",
          "name": "newDonId",
          "type": "bytes32"
        }
      ],
      "name": "setDonId",
      "outputs": [],
      "stateMutability": "nonpayable",
      "type": "function"
    },
    {
      "inputs": [
        {
          "internalType": "string",
          "name": "_source",
          "type": "string"
        }
      ],
      "name": "setSource",
      "outputs": [],
      "stateMutability": "nonpayable",
      "type": "function"
    },
    {
      "inputs": [],
      "name": "source",
      "outputs": [
        {
          "internalType": "string",
          "name": "",
          "type": "string"
        }
      ],
      "stateMutability": "view",
      "type": "function"
    },
    {
      "inputs": [
        {
          "internalType": "address",
          "name": "to",
          "type": "address"
        }
      ],
      "name": "transferOwnership",
      "outputs": [],
      "stateMutability": "nonpayable",
      "type": "function"
    }
  ],
  "bytecode": "0x60a06040523480156200001157600080fd5b50604051620029ee380380620029ee8339810160408190526200003491620001cf565b6001600160a01b0383166080523380600081620000985760405162461bcd60e51b815260206004820152601860248201527f43616e6e6f7420736574206f776e657220746f207a65726f000000000000000060448201526064015b60405180910390fd5b600080546001600160a01b0319166001600160a01b0384811691909117909155811615620000cb57620000cb816200010e565b50505060028290558051600003620000f6576040516322ce3edd60e01b815260040160405180910390fd5b60066200010482826200035d565b5050505062000429565b336001600160a01b03821603620001685760405162461bcd60e51b815260206004820152601760248201527f43616e6e6f74207472616e7366657220746f2073656c6600000000000000000060448201526064016200008f565b600180546001600160a01b0319166001600160a01b0383811691821790925560008054604051929316917fed8889f560326eb138920d842192f0eb3dd22b4f139c87a2c57538e05bae12789190a350565b634e487b7160e01b600052604160045260246000fd5b600080600060608486031215620001e557600080fd5b83516001600160a01b0381168114620001fd57600080fd5b60208581015160408701519295509350906001600160401b03808211156200022457600080fd5b818701915087601f8301126200023957600080fd5b8151818111156200024e576200024e620001b9565b604051601f8201601f19908116603f01168101908382118183101715620002795762000279620001b9565b816040528281528a868487010111156200029257600080fd5b600093505b82841015620002b6578484018601518185018701529285019262000297565b60008684830101528096505050505050509250925092565b600181811c90821680620002e357607f821691505b6020821081036200030457634e487b7160e01b600052602260045260246000fd5b50919050565b601f8211156200035857600081815260208120601f850160051c81016020861015620003335750805b601f850160051c820191505b8181101562000354578281556001016200033f565b5050505b505050565b81516001600160401b03811115620003795762000379620001b9565b62000391816200038a8454620002ce565b846200030a565b602080601f831160018114620003c95760008415620003b05750858301515b600019600386901b1c1916600185901b17855562000354565b600085815260208120601f198616915b82811015620003fa57888601518255948401946001909101908401620003d9565b5085821015620004195787850151600019600388901b60f8161c191681555b5050505050600190811b01905550565b6080516125a26200044c60003960008181610261015261112f01526125a26000f3fe608060405234801561001057600080fd5b50600436106101005760003560e01c806379ba5097116100975780639d866985116100665780639d866985146101e4578063afa293d414610232578063f2fde38b1461023a578063fc2a88c31461024d57600080fd5b806379ba5097146101a55780638da5cb5b146101ad5780638dbe7b9d146101c857806399d25455146101d157600080fd5b806342ad0c6a116100d357806342ad0c6a1461016f57806362747e421461018257806367e828bf1461018a57806378ca5de71461019257600080fd5b8063072fbc43146101055780630ca7617514610124578063231c16191461013957806329f0de3f1461015a575b600080fd5b61010d600081565b60405160ff90911681526020015b60405180910390f35b6101376101323660046119f2565b610256565b005b61014c610147366004611c2e565b6102f3565b60405190815260200161011b565b610162610431565b60405161011b9190611d60565b61014c61017d366004611d8a565b6104bf565b610162610886565b610162610893565b6101376101a0366004611e68565b6108a0565b6101376108ad565b6000546040516001600160a01b03909116815260200161011b565b61014c60025481565b6101376101df366004611e81565b61096b565b6102236101f2366004611e68565b6007602052600090815260409020546001600160a01b0381169060ff600160a01b8204811691600160a81b90041683565b60405161011b93929190611efd565b61016261099f565b610137610248366004611f29565b610a31565b61014c60035481565b336001600160a01b037f000000000000000000000000000000000000000000000000000000000000000016146102b8576040517fc6829f8300000000000000000000000000000000000000000000000000000000815260040160405180910390fd5b6102c3838383610a45565b60405183907f85e1543bf2f84fe80c6badbce3648c8539ad1df4d2b3d822938ca0538be727e690600090a2505050565b60006103366040805160e0810190915280600081526020016000815260200160008152602001606081526020016060815260200160608152602001606081525090565b61037d6000808d8d8080601f01602080910402602001604051908101604052809392919081815260200183838082843760009201919091525087959493925050610cd99050565b6020810189600281111561039357610393611ec3565b908160028111156103a6576103a6611ec3565b8152505087878080601f01602080910402602001604051908101604052809392919081815260200183838082843760009201919091525050505060808201528551156103f6576103f68187610d57565b845115610407576104078186610d81565b61041d61041382610dab565b858560025461112a565b60038190559b9a5050505050505050505050565b6005805461043e90611f44565b80601f016020809104026020016040519081016040528092919081815260200182805461046a90611f44565b80156104b75780601f1061048c576101008083540402835291602001916104b7565b820191906000526020600020905b81548152906001019060200180831161049a57829003601f168201915b505050505081565b6000600680546104ce90611f44565b90506000036104f0576040516322ce3edd60e01b815260040160405180910390fd5b6001600160a01b038716610540576040517f46c6ebc50000000000000000000000000000000000000000000000000000000081526001600160a01b03881660048201526024015b60405180910390fd5b855160000361057d57856040517fb17265ae0000000000000000000000000000000000000000000000000000000081526004016105379190611d60565b600084600281111561059157610591611ec3565b036105ca57836040517f4ac151050000000000000000000000000000000000000000000000000000000081526004016105379190611f7e565b60408051600580825260c08201909252600091816020015b60608152602001906001900390816105e2579050509050868160008151811061060d5761060d611f91565b602002602001018190525061062f866020015167ffffffffffffffff166111fe565b8160018151811061064257610642611f91565b6020026020010181905250610664866000015167ffffffffffffffff166111fe565b8160028151811061067757610677611f91565b602002602001018190525061069f85600281111561069757610697611ec3565b60ff166111fe565b816003815181106106b2576106b2611f91565b60209081029190910101526106c76000610697565b816004815181106106da576106da611f91565b602002602001018190525060606000306001600160a01b031663231c1619600660016040518060200160405280600081525087878c8c6040518863ffffffff1660e01b81526004016107329796959493929190612005565b6020604051808303816000875af1158015610751573d6000803e3d6000fd5b505050506040513d601f19601f820116820180604052508101906107759190612102565b905060405180606001604052808b6001600160a01b031681526020018860028111156107a3576107a3611ec3565b8152602001600090526000828152600760209081526040909120825181546001600160a01b0390911673ffffffffffffffffffffffffffffffffffffffff1982168117835592840151919283917fffffffffffffffffffffff0000000000000000000000000000000000000000001617600160a01b83600281111561082a5761082a611ec3565b02179055506040820151815482907fffffffffffffffffffff00ffffffffffffffffffffffffffffffffffffffffff16600160a81b83600181111561087157610871611ec3565b0217905550919b9a5050505050505050505050565b6004805461043e90611f44565b6006805461043e90611f44565b6108a861129e565b600255565b6001546001600160a01b031633146109075760405162461bcd60e51b815260206004820152601660248201527f4d7573742062652070726f706f736564206f776e6572000000000000000000006044820152606401610537565b600080543373ffffffffffffffffffffffffffffffffffffffff19808316821784556001805490911690556040516001600160a01b0390921692909183917f8be0079c531659141344cd1fd0a4f28419497f9722a3daafe3b4186f6b6457e091a350565b600081900361098d576040516322ce3edd60e01b815260040160405180910390fd5b600661099a828483612169565b505050565b6060600680546109ae90611f44565b80601f01602080910402602001604051908101604052809291908181526020018280546109da90611f44565b8015610a275780601f106109fc57610100808354040283529160200191610a27565b820191906000526020600020905b815481529060010190602001808311610a0a57829003601f168201915b5050505050905090565b610a3961129e565b610a42816112fa565b50565b6004610a51838261222a565b506005610a5e828261222a565b507f9075ab953f4b4f161e64109ef0a89af6572e9dae864980dd1f697f83da7f78c2838383604051610a92939291906122ea565b60405180910390a1600083815260076020908152604080832081516060810190925280546001600160a01b03811683529192909190830190600160a01b900460ff166002811115610ae557610ae5611ec3565b6002811115610af657610af6611ec3565b81528154602090910190600160a81b900460ff166001811115610b1b57610b1b611ec3565b6001811115610b2c57610b2c611ec3565b9052509050600081604001516001811115610b4957610b49611ec3565b03610c9b578051835115610c075760008085806020019051810190610b6e919061231f565b91509150826001600160a01b03166360646b5788866020015160405180604001604052808767ffffffffffffffff1681526020018667ffffffffffffffff168152506040518463ffffffff1660e01b8152600401610bce93929190612359565b600060405180830381600087803b158015610be857600080fd5b505af1158015610bfc573d6000803e3d6000fd5b505050505050610c95565b60408051808201825260008082526020820181905291517f60646b570000000000000000000000000000000000000000000000000000000081526001600160a01b038416926360646b5792610c62928a929190600401612359565b600060405180830381600087803b158015610c7c57600080fd5b505af1158015610c90573d6000803e3d6000fd5b505050505b50610cd3565b80604001516040517f9baba3800000000000000000000000000000000000000000000000000000000081526004016105379190612396565b50505050565b8051600003610cfb576040516322ce3edd60e01b815260040160405180910390fd5b83836002811115610d0e57610d0e611ec3565b90816002811115610d2157610d21611ec3565b90525060408401828015610d3757610d37611ec3565b90818015610d4757610d47611ec3565b9052506060909301929092525050565b8051600003610d795760405163fe936cb760e01b815260040160405180910390fd5b60a090910152565b8051600003610da35760405163fe936cb760e01b815260040160405180910390fd5b60c090910152565b60606000610dba6101006113b0565b9050610e046040518060400160405280600c81526020017f636f64654c6f636174696f6e0000000000000000000000000000000000000000815250826113d190919063ffffffff16565b8251610e22906002811115610e1b57610e1b611ec3565b82906113ea565b60408051808201909152600881527f6c616e67756167650000000000000000000000000000000000000000000000006020820152610e619082906113d1565b6040830151610e78908015610e1b57610e1b611ec3565b60408051808201909152600681527f736f7572636500000000000000000000000000000000000000000000000000006020820152610eb79082906113d1565b6060830151610ec79082906113d1565b60a08301515115610f745760408051808201909152600481527f61726773000000000000000000000000000000000000000000000000000000006020820152610f119082906113d1565b610f1a81611427565b60005b8360a0015151811015610f6a57610f5a8460a001518281518110610f4357610f43611f91565b6020026020010151836113d190919063ffffffff16565b610f63816123ba565b9050610f1d565b50610f748161144b565b6080830151511561107557600083602001516002811115610f9757610f97611ec3565b03610fce576040517fa80d31f700000000000000000000000000000000000000000000000000000000815260040160405180910390fd5b60408051808201909152600f81527f736563726574734c6f636174696f6e0000000000000000000000000000000000602082015261100d9082906113d1565b61102683602001516002811115610e1b57610e1b611ec3565b60408051808201909152600781527f736563726574730000000000000000000000000000000000000000000000000060208201526110659082906113d1565b6080830151611075908290611469565b60c083015151156111225760408051808201909152600981527f627974657341726773000000000000000000000000000000000000000000000060208201526110bf9082906113d1565b6110c881611427565b60005b8360c0015151811015611118576111088460c0015182815181106110f1576110f1611f91565b60200260200101518361146990919063ffffffff16565b611111816123ba565b90506110cb565b506111228161144b565b515192915050565b6000807f00000000000000000000000000000000000000000000000000000000000000006001600160a01b031663461d27628688600188886040518663ffffffff1660e01b81526004016111829594939291906123d3565b6020604051808303816000875af11580156111a1573d6000803e3d6000fd5b505050506040513d601f19601f820116820180604052508101906111c59190612102565b60405190915081907f1131472297a800fee664d1d89cfa8f7676ff07189ecc53f80bbb5f4969099db890600090a290505b949350505050565b6060600061120b83611476565b600101905060008167ffffffffffffffff81111561122b5761122b61193b565b6040519080825280601f01601f191660200182016040528015611255576020820181803683370190505b5090508181016020015b600019017f3031323334353637383961626364656600000000000000000000000000000000600a86061a8153600a850494508461125f57509392505050565b6000546001600160a01b031633146112f85760405162461bcd60e51b815260206004820152601660248201527f4f6e6c792063616c6c61626c65206279206f776e6572000000000000000000006044820152606401610537565b565b336001600160a01b038216036113525760405162461bcd60e51b815260206004820152601760248201527f43616e6e6f74207472616e7366657220746f2073656c660000000000000000006044820152606401610537565b6001805473ffffffffffffffffffffffffffffffffffffffff19166001600160a01b0383811691821790925560008054604051929316917fed8889f560326eb138920d842192f0eb3dd22b4f139c87a2c57538e05bae12789190a350565b6113b8611906565b80516113c49083611559565b5060006020820152919050565b6113de82600383516115d0565b815161099a90826116f1565b81516113f79060c2611719565b50611423828260405160200161140f91815260200190565b604051602081830303815290604052611469565b5050565b611432816004611782565b600181602001818151611445919061241d565b90525050565b611456816007611782565b6001816020018181516114459190612430565b6113de82600283516115d0565b6000807a184f03e93ff9f4daa797ed6e38ed64bf6a1f01000000000000000083106114bf577a184f03e93ff9f4daa797ed6e38ed64bf6a1f010000000000000000830492506040015b6d04ee2d6d415b85acef810000000083106114eb576d04ee2d6d415b85acef8100000000830492506020015b662386f26fc10000831061150957662386f26fc10000830492506010015b6305f5e1008310611521576305f5e100830492506008015b612710831061153557612710830492506004015b60648310611547576064830492506002015b600a8310611553576001015b92915050565b604080518082019091526060815260006020820152611579602083612443565b156115a157611589602083612443565b611594906020612430565b61159e908361241d565b91505b6020808401839052604051808552600081529081840101818110156115c557600080fd5b604052509192915050565b60178167ffffffffffffffff16116115f7578251610cd39060e0600585901b168317611719565b60ff8167ffffffffffffffff1611611639578251611620906018611fe0600586901b1617611719565b508251610cd39067ffffffffffffffff83166001611799565b61ffff8167ffffffffffffffff161161167c578251611663906019611fe0600586901b1617611719565b508251610cd39067ffffffffffffffff83166002611799565b63ffffffff8167ffffffffffffffff16116116c15782516116a890601a611fe0600586901b1617611719565b508251610cd39067ffffffffffffffff83166004611799565b82516116d890601b611fe0600586901b1617611719565b508251610cd39067ffffffffffffffff83166008611799565b6040805180820190915260608152600060208201526117128383845161181e565b9392505050565b604080518082019091526060815260006020820152825151600061173e82600161241d565b90508460200151821061175f5761175f8561175a836002612465565b6118ef565b8451602083820101858153508051821115611778578181525b5093949350505050565b815161099a90601f611fe0600585901b1617611719565b60408051808201909152606081526000602082015283515160006117bd828561241d565b905085602001518111156117da576117da8661175a836002612465565b600060016117ea86610100612560565b6117f49190612430565b90508651828101878319825116178152508051831115611812578281525b50959695505050505050565b604080518082019091526060815260006020820152825182111561184157600080fd5b8351516000611850848361241d565b9050856020015181111561186d5761186d8661175a836002612465565b855180518382016020019160009180851115611887578482525b505050602086015b602086106118c757805182526118a660208361241d565b91506118b360208261241d565b90506118c0602087612430565b955061188f565b51815160001960208890036101000a0190811690199190911617905250849150509392505050565b81516118fb8383611559565b50610cd383826116f1565b604051806040016040528061192e604051806040016040528060608152602001600081525090565b8152602001600081525090565b634e487b7160e01b600052604160045260246000fd5b604051601f8201601f1916810167ffffffffffffffff8111828210171561197a5761197a61193b565b604052919050565b600082601f83011261199357600080fd5b813567ffffffffffffffff8111156119ad576119ad61193b565b6119c0601f8201601f1916602001611951565b8181528460208386010111156119d557600080fd5b816020850160208301376000918101602001919091529392505050565b600080600060608486031215611a0757600080fd5b83359250602084013567ffffffffffffffff80821115611a2657600080fd5b611a3287838801611982565b93506040860135915080821115611a4857600080fd5b50611a5586828701611982565b9150509250925092565b60008083601f840112611a7157600080fd5b50813567ffffffffffffffff811115611a8957600080fd5b602083019150836020828501011115611aa157600080fd5b9250929050565b60038110610a4257600080fd5b8035611ac081611aa8565b919050565b600067ffffffffffffffff821115611adf57611adf61193b565b5060051b60200190565b600082601f830112611afa57600080fd5b81356020611b0f611b0a83611ac5565b611951565b82815260059290921b84018101918181019086841115611b2e57600080fd5b8286015b84811015611b6e57803567ffffffffffffffff811115611b525760008081fd5b611b608986838b0101611982565b845250918301918301611b32565b509695505050505050565b600082601f830112611b8a57600080fd5b81356020611b9a611b0a83611ac5565b82815260059290921b84018101918181019086841115611bb957600080fd5b8286015b84811015611b6e57803567ffffffffffffffff811115611bdd5760008081fd5b611beb8986838b0101611982565b845250918301918301611bbd565b67ffffffffffffffff81168114610a4257600080fd5b8035611ac081611bf9565b803563ffffffff81168114611ac057600080fd5b600080600080600080600080600060e08a8c031215611c4c57600080fd5b893567ffffffffffffffff80821115611c6457600080fd5b611c708d838e01611a5f565b909b509950899150611c8460208d01611ab5565b985060408c0135915080821115611c9a57600080fd5b611ca68d838e01611a5f565b909850965060608c0135915080821115611cbf57600080fd5b611ccb8d838e01611ae9565b955060808c0135915080821115611ce157600080fd5b50611cee8c828d01611b79565b935050611cfd60a08b01611c0f565b9150611d0b60c08b01611c1a565b90509295985092959850929598565b6000815180845260005b81811015611d4057602081850181015186830182015201611d24565b506000602082860101526020601f19601f83011685010191505092915050565b6020815260006117126020830184611d1a565b80356001600160a01b0381168114611ac057600080fd5b60008060008060008086880360e0811215611da457600080fd5b611dad88611d73565b9650602088013567ffffffffffffffff80821115611dca57600080fd5b611dd68b838c01611982565b97506040603f1984011215611dea57600080fd5b60405192506040830191508282108183111715611e0957611e0961193b565b506040908152880135611e1b81611bf9565b81526060880135611e2b81611bf9565b602082015293506080870135611e4081611aa8565b9250611e4e60a08801611c0f565b9150611e5c60c08801611c1a565b90509295509295509295565b600060208284031215611e7a57600080fd5b5035919050565b60008060208385031215611e9457600080fd5b823567ffffffffffffffff811115611eab57600080fd5b611eb785828601611a5f565b90969095509350505050565b634e487b7160e01b600052602160045260246000fd5b60038110610a4257610a42611ec3565b60028110611ef957611ef9611ec3565b9052565b6001600160a01b038416815260608101611f1684611ed9565b8360208301526111f66040830184611ee9565b600060208284031215611f3b57600080fd5b61171282611d73565b600181811c90821680611f5857607f821691505b602082108103611f7857634e487b7160e01b600052602260045260246000fd5b50919050565b60208101611f8b83611ed9565b91905290565b634e487b7160e01b600052603260045260246000fd5b611ef981611ed9565b600081518084526020808501808196508360051b8101915082860160005b85811015611ff8578284038952611fe6848351611d1a565b98850198935090840190600101611fce565b5091979650505050505050565b60e08152600080895461201781611f44565b8060e086015261010060018084166000811461203a576001811461205457612085565b60ff1985168884015283151560051b880183019550612085565b8e60005260208060002060005b8681101561207c5781548b8201870152908401908201612061565b8a018501975050505b5050505050612097602084018a611fa7565b82810360408401526120a98189611d1a565b905082810360608401526120bd8188611fb0565b905082810360808401526120d18187611fb0565b9150506120ea60a083018567ffffffffffffffff169052565b63ffffffff831660c083015298975050505050505050565b60006020828403121561211457600080fd5b5051919050565b601f82111561099a57600081815260208120601f850160051c810160208610156121425750805b601f850160051c820191505b818110156121615782815560010161214e565b505050505050565b67ffffffffffffffff8311156121815761218161193b565b6121958361218f8354611f44565b8361211b565b6000601f8411600181146121c957600085156121b15750838201355b600019600387901b1c1916600186901b178355612223565b600083815260209020601f19861690835b828110156121fa57868501358255602094850194600190920191016121da565b50868210156122175760001960f88860031b161c19848701351681555b505060018560011b0183555b5050505050565b815167ffffffffffffffff8111156122445761224461193b565b612258816122528454611f44565b8461211b565b602080601f83116001811461228d57600084156122755750858301515b600019600386901b1c1916600185901b178555612161565b600085815260208120601f198616915b828110156122bc5788860151825594840194600190910190840161229d565b50858210156122da5787850151600019600388901b60f8161c191681555b5050505050600190811b01905550565b8381526060602082015260006123036060830185611d1a565b82810360408401526123158185611d1a565b9695505050505050565b6000806040838503121561233257600080fd5b825161233d81611bf9565b602084015190925061234e81611bf9565b809150509250929050565b8381526080810161236984611ed9565b83602083015267ffffffffffffffff80845116604084015280602085015116606084015250949350505050565b602081016115538284611ee9565b634e487b7160e01b600052601160045260246000fd5b6000600182016123cc576123cc6123a4565b5060010190565b67ffffffffffffffff8616815260a0602082015260006123f660a0830187611d1a565b61ffff9590951660408301525063ffffffff92909216606083015260809091015292915050565b80820180821115611553576115536123a4565b81810381811115611553576115536123a4565b60008261246057634e487b7160e01b600052601260045260246000fd5b500690565b8082028115828204841417611553576115536123a4565b600181815b808511156124b757816000190482111561249d5761249d6123a4565b808516156124aa57918102915b93841c9390800290612481565b509250929050565b6000826124ce57506001611553565b816124db57506000611553565b81600181146124f157600281146124fb57612517565b6001915050611553565b60ff84111561250c5761250c6123a4565b50506001821b611553565b5060208310610133831016604e8410600b841016171561253a575081810a611553565b612544838361247c565b8060001904821115612558576125586123a4565b029392505050565b600061171283836124bf56fea2646970667358221220e44f30217920aa0f1584e28f55d5a5e9c582694404d532d538f28a0524899a5a64736f6c63430008140033",
  "linkReferences": {},
  "deployedLinkReferences": {}
}