{
  "_format": "hh-sol-artifact-1",
  "contractName": "ChainlinkConsumer",
  "sourceName": "contracts/ChainlinkConsumer.sol",
  "abi": [
    {
      "inputs": [
        {
          "internalType": "address",
          "name": "router",
          "type": "address"
        },
        {
          "internalType": "bytes32",
          "name": "_donId",
          "type": "bytes32"
        },
        {
          "internalType": "string",
          "name": "_source",
          "type": "string"
        }
      ],
      "stateMutability": "nonpayable",
      "type": "constructor"
    },
    {
      "inputs": [],
      "name": "EmptyArgs",
      "type": "error"
    },
    {
      "inputs": [],
      "name": "EmptySource",
      "type": "error"
    },
    {
      "inputs": [],
      "name": "EmptySource",
      "type": "error"
    },
    {
      "inputs": [
        {
          "internalType": "address",
          "name": "requesterAddress",
          "type": "address"
        }
      ],
      "name": "InvalidRequesterAddress",
      "type": "error"
    },
    {
      "inputs": [
        {
          "internalType": "enum StatusState.StatusType",
          "name": "statusType",
          "type": "uint8"
        }
      ],
      "name": "InvalidStatusType",
      "type": "error"
    },
    {
      "inputs": [
        {
          "internalType": "string",
          "name": "url",
          "type": "string"
        }
      ],
      "name": "InvalidUrl",
      "type": "error"
    },
    {
      "inputs": [],
      "name": "NoInlineSecrets",
      "type": "error"
    },
    {
      "inputs": [],
      "name": "OnlyRouterCanFulfill",
      "type": "error"
    },
    {
      "inputs": [
        {
          "internalType": "enum StatusState.StatusMechanism",
          "name": "",
          "type": "uint8"
        }
      ],
      "name": "UnsupportedStatusMechanism",
      "type": "error"
    },
    {
      "anonymous": false,
      "inputs": [
        {
          "indexed": true,
          "internalType": "address",
          "name": "from",
          "type": "address"
        },
        {
          "indexed": true,
          "internalType": "address",
          "name": "to",
          "type": "address"
        }
      ],
      "name": "OwnershipTransferRequested",
      "type": "event"
    },
    {
      "anonymous": false,
      "inputs": [
        {
          "indexed": true,
          "internalType": "address",
          "name": "from",
          "type": "address"
        },
        {
          "indexed": true,
          "internalType": "address",
          "name": "to",
          "type": "address"
        }
      ],
      "name": "OwnershipTransferred",
      "type": "event"
    },
    {
      "anonymous": false,
      "inputs": [
        {
          "indexed": true,
          "internalType": "bytes32",
          "name": "id",
          "type": "bytes32"
        }
      ],
      "name": "RequestFulfilled",
      "type": "event"
    },
    {
      "anonymous": false,
      "inputs": [
        {
          "indexed": true,
          "internalType": "bytes32",
          "name": "id",
          "type": "bytes32"
        }
      ],
      "name": "RequestSent",
      "type": "event"
    },
    {
      "anonymous": false,
      "inputs": [
        {
          "indexed": false,
          "internalType": "bytes32",
          "name": "requestId",
          "type": "bytes32"
        },
        {
          "indexed": false,
          "internalType": "bytes",
          "name": "response",
          "type": "bytes"
        },
        {
          "indexed": false,
          "internalType": "bytes",
          "name": "error",
          "type": "bytes"
        }
      ],
      "name": "ResponseReceived",
      "type": "event"
    },
    {
      "inputs": [],
      "name": "INVALID_ISSUER_ID",
      "outputs": [
        {
          "internalType": "StatusState.IssuerId",
          "name": "",
          "type": "uint8"
        }
      ],
      "stateMutability": "view",
      "type": "function"
    },
    {
      "inputs": [],
      "name": "acceptOwnership",
      "outputs": [],
      "stateMutability": "nonpayable",
      "type": "function"
    },
    {
      "inputs": [],
      "name": "donId",
      "outputs": [
        {
          "internalType": "bytes32",
          "name": "",
          "type": "bytes32"
        }
      ],
      "stateMutability": "view",
      "type": "function"
    },
    {
      "inputs": [],
      "name": "getSource",
      "outputs": [
        {
          "internalType": "string",
          "name": "",
          "type": "string"
        }
      ],
      "stateMutability": "view",
      "type": "function"
    },
    {
      "inputs": [
        {
          "internalType": "bytes32",
          "name": "requestId",
          "type": "bytes32"
        },
        {
          "internalType": "bytes",
          "name": "response",
          "type": "bytes"
        },
        {
          "internalType": "bytes",
          "name": "err",
          "type": "bytes"
        }
      ],
      "name": "handleOracleFulfillment",
      "outputs": [],
      "stateMutability": "nonpayable",
      "type": "function"
    },
    {
      "inputs": [],
      "name": "lastError",
      "outputs": [
        {
          "internalType": "bytes",
          "name": "",
          "type": "bytes"
        }
      ],
      "stateMutability": "view",
      "type": "function"
    },
    {
      "inputs": [],
      "name": "lastRequestId",
      "outputs": [
        {
          "internalType": "bytes32",
          "name": "",
          "type": "bytes32"
        }
      ],
      "stateMutability": "view",
      "type": "function"
    },
    {
      "inputs": [],
      "name": "lastResponse",
      "outputs": [
        {
          "internalType": "bytes",
          "name": "",
          "type": "bytes"
        }
      ],
      "stateMutability": "view",
      "type": "function"
    },
    {
      "inputs": [],
      "name": "owner",
      "outputs": [
        {
          "internalType": "address",
          "name": "",
          "type": "address"
        }
      ],
      "stateMutability": "view",
      "type": "function"
    },
    {
      "inputs": [
        {
          "internalType": "address",
          "name": "requesterAddress",
          "type": "address"
        },
        {
          "internalType": "string",
          "name": "url",
          "type": "string"
        },
        {
          "components": [
            {
              "internalType": "uint64",
              "name": "time",
              "type": "uint64"
            },
            {
              "internalType": "uint64",
              "name": "status",
              "type": "uint64"
            }
          ],
          "internalType": "struct StatusState.BSLStatus",
          "name": "lastStatusState",
          "type": "tuple"
        },
        {
          "internalType": "enum StatusState.StatusType",
          "name": "statusType",
          "type": "uint8"
        },
        {
          "internalType": "uint64",
          "name": "subscriptionId",
          "type": "uint64"
        },
        {
          "internalType": "uint32",
          "name": "callbackGasLimit",
          "type": "uint32"
        }
      ],
      "name": "requestBSLStatus",
      "outputs": [
        {
          "internalType": "bytes32",
          "name": "",
          "type": "bytes32"
        }
      ],
      "stateMutability": "nonpayable",
      "type": "function"
    },
    {
      "inputs": [
        {
          "internalType": "bytes32",
          "name": "",
          "type": "bytes32"
        }
      ],
      "name": "requests",
      "outputs": [
        {
          "internalType": "address",
          "name": "requesterAddress",
          "type": "address"
        },
        {
          "internalType": "enum StatusState.StatusType",
          "name": "statusType",
          "type": "uint8"
        },
        {
          "internalType": "enum StatusState.StatusMechanism",
          "name": "statusMechanism",
          "type": "uint8"
        }
      ],
      "stateMutability": "view",
      "type": "function"
    },
    {
      "inputs": [
        {
          "internalType": "string",
          "name": "_source",
          "type": "string"
        },
        {
          "internalType": "enum FunctionsRequest.Location",
          "name": "secretsLocation",
          "type": "uint8"
        },
        {
          "internalType": "bytes",
          "name": "encryptedSecretsReference",
          "type": "bytes"
        },
        {
          "internalType": "string[]",
          "name": "args",
          "type": "string[]"
        },
        {
          "internalType": "bytes[]",
          "name": "bytesArgs",
          "type": "bytes[]"
        },
        {
          "internalType": "uint64",
          "name": "subscriptionId",
          "type": "uint64"
        },
        {
          "internalType": "uint32",
          "name": "callbackGasLimit",
          "type": "uint32"
        }
      ],
      "name": "sendRequest",
      "outputs": [
        {
          "internalType": "bytes32",
          "name": "",
          "type": "bytes32"
        }
      ],
      "stateMutability": "nonpayable",
      "type": "function"
    },
    {
      "inputs": [
        {
          "internalType": "bytes32",
          "name": "newDonId",
          "type": "bytes32"
        }
      ],
      "name": "setDonId",
      "outputs": [],
      "stateMutability": "nonpayable",
      "type": "function"
    },
    {
      "inputs": [
        {
          "internalType": "string",
          "name": "_source",
          "type": "string"
        }
      ],
      "name": "setSource",
      "outputs": [],
      "stateMutability": "nonpayable",
      "type": "function"
    },
    {
      "inputs": [],
      "name": "source",
      "outputs": [
        {
          "internalType": "string",
          "name": "",
          "type": "string"
        }
      ],
      "stateMutability": "view",
      "type": "function"
    },
    {
      "inputs": [
        {
          "internalType": "address",
          "name": "to",
          "type": "address"
        }
      ],
      "name": "transferOwnership",
      "outputs": [],
      "stateMutability": "nonpayable",
      "type": "function"
    }
  ],
  "bytecode": "0x60a06040523480156200001157600080fd5b5060405162002ad138038062002ad18339810160408190526200003491620001cf565b6001600160a01b0383166080523380600081620000985760405162461bcd60e51b815260206004820152601860248201527f43616e6e6f7420736574206f776e657220746f207a65726f000000000000000060448201526064015b60405180910390fd5b600080546001600160a01b0319166001600160a01b0384811691909117909155811615620000cb57620000cb816200010e565b50505060028290558051600003620000f6576040516322ce3edd60e01b815260040160405180910390fd5b60066200010482826200035d565b5050505062000429565b336001600160a01b03821603620001685760405162461bcd60e51b815260206004820152601760248201527f43616e6e6f74207472616e7366657220746f2073656c6600000000000000000060448201526064016200008f565b600180546001600160a01b0319166001600160a01b0383811691821790925560008054604051929316917fed8889f560326eb138920d842192f0eb3dd22b4f139c87a2c57538e05bae12789190a350565b634e487b7160e01b600052604160045260246000fd5b600080600060608486031215620001e557600080fd5b83516001600160a01b0381168114620001fd57600080fd5b60208581015160408701519295509350906001600160401b03808211156200022457600080fd5b818701915087601f8301126200023957600080fd5b8151818111156200024e576200024e620001b9565b604051601f8201601f19908116603f01168101908382118183101715620002795762000279620001b9565b816040528281528a868487010111156200029257600080fd5b600093505b82841015620002b6578484018601518185018701529285019262000297565b60008684830101528096505050505050509250925092565b600181811c90821680620002e357607f821691505b6020821081036200030457634e487b7160e01b600052602260045260246000fd5b50919050565b601f8211156200035857600081815260208120601f850160051c81016020861015620003335750805b601f850160051c820191505b8181101562000354578281556001016200033f565b5050505b505050565b81516001600160401b03811115620003795762000379620001b9565b62000391816200038a8454620002ce565b846200030a565b602080601f831160018114620003c95760008415620003b05750858301515b600019600386901b1c1916600185901b17855562000354565b600085815260208120601f198616915b82811015620003fa57888601518255948401946001909101908401620003d9565b5085821015620004195787850151600019600388901b60f8161c191681555b5050505050600190811b01905550565b6080516126856200044c60003960008181610261015261115001526126856000f3fe608060405234801561001057600080fd5b50600436106101005760003560e01c806379ba5097116100975780639d866985116100665780639d866985146101e4578063afa293d414610232578063f2fde38b1461023a578063fc2a88c31461024d57600080fd5b806379ba5097146101a55780638da5cb5b146101ad5780638dbe7b9d146101c857806399d25455146101d157600080fd5b806342ad0c6a116100d357806342ad0c6a1461016f57806362747e421461018257806367e828bf1461018a57806378ca5de71461019257600080fd5b8063072fbc43146101055780630ca7617514610124578063231c16191461013957806329f0de3f1461015a575b600080fd5b61010d600081565b60405160ff90911681526020015b60405180910390f35b610137610132366004611aae565b610256565b005b61014c610147366004611cea565b6102f3565b60405190815260200161011b565b610162610431565b60405161011b9190611e1c565b61014c61017d366004611e46565b6104bf565b6101626108a7565b6101626108b4565b6101376101a0366004611f24565b6108c1565b6101376108ce565b6000546040516001600160a01b03909116815260200161011b565b61014c60025481565b6101376101df366004611f3d565b61098c565b6102236101f2366004611f24565b6007602052600090815260409020546001600160a01b0381169060ff600160a01b8204811691600160a81b90041683565b60405161011b93929190611fb9565b6101626109c0565b610137610248366004611fe5565b610a52565b61014c60035481565b336001600160a01b037f000000000000000000000000000000000000000000000000000000000000000016146102b8576040517fc6829f8300000000000000000000000000000000000000000000000000000000815260040160405180910390fd5b6102c3838383610a66565b60405183907f85e1543bf2f84fe80c6badbce3648c8539ad1df4d2b3d822938ca0538be727e690600090a2505050565b60006103366040805160e0810190915280600081526020016000815260200160008152602001606081526020016060815260200160608152602001606081525090565b61037d6000808d8d8080601f01602080910402602001604051908101604052809392919081815260200183838082843760009201919091525087959493925050610cfa9050565b6020810189600281111561039357610393611f7f565b908160028111156103a6576103a6611f7f565b8152505087878080601f01602080910402602001604051908101604052809392919081815260200183838082843760009201919091525050505060808201528551156103f6576103f68187610d78565b845115610407576104078186610da2565b61041d61041382610dcc565b858560025461114b565b60038190559b9a5050505050505050505050565b6005805461043e90612000565b80601f016020809104026020016040519081016040528092919081815260200182805461046a90612000565b80156104b75780601f1061048c576101008083540402835291602001916104b7565b820191906000526020600020905b81548152906001019060200180831161049a57829003601f168201915b505050505081565b60006104e260405180606001604052806024815260200161262c6024913961121f565b600680546104ef90612000565b9050600003610511576040516322ce3edd60e01b815260040160405180910390fd5b6001600160a01b038716610561576040517f46c6ebc50000000000000000000000000000000000000000000000000000000081526001600160a01b03881660048201526024015b60405180910390fd5b855160000361059e57856040517fb17265ae0000000000000000000000000000000000000000000000000000000081526004016105589190611e1c565b60008460028111156105b2576105b2611f7f565b036105eb57836040517f4ac15105000000000000000000000000000000000000000000000000000000008152600401610558919061203a565b60408051600580825260c08201909252600091816020015b6060815260200190600190039081610603579050509050868160008151811061062e5761062e61204d565b6020026020010181905250610650866020015167ffffffffffffffff16611290565b816001815181106106635761066361204d565b6020026020010181905250610685866000015167ffffffffffffffff16611290565b816002815181106106985761069861204d565b60200260200101819052506106c08560028111156106b8576106b8611f7f565b60ff16611290565b816003815181106106d3576106d361204d565b60209081029190910101526106e860006106b8565b816004815181106106fb576106fb61204d565b602002602001018190525060606000306001600160a01b031663231c1619600660016040518060200160405280600081525087878c8c6040518863ffffffff1660e01b815260040161075397969594939291906120c4565b6020604051808303816000875af1158015610772573d6000803e3d6000fd5b505050506040513d601f19601f8201168201806040525081019061079691906121c1565b905060405180606001604052808b6001600160a01b031681526020018860028111156107c4576107c4611f7f565b8152602001600090526000828152600760209081526040909120825181546001600160a01b0390911673ffffffffffffffffffffffffffffffffffffffff1982168117835592840151919283917fffffffffffffffffffffff0000000000000000000000000000000000000000001617600160a01b83600281111561084b5761084b611f7f565b02179055506040820151815482907fffffffffffffffffffff00ffffffffffffffffffffffffffffffffffffffffff16600160a81b83600181111561089257610892611f7f565b0217905550919b9a5050505050505050505050565b6004805461043e90612000565b6006805461043e90612000565b6108c9611330565b600255565b6001546001600160a01b031633146109285760405162461bcd60e51b815260206004820152601660248201527f4d7573742062652070726f706f736564206f776e6572000000000000000000006044820152606401610558565b600080543373ffffffffffffffffffffffffffffffffffffffff19808316821784556001805490911690556040516001600160a01b0390921692909183917f8be0079c531659141344cd1fd0a4f28419497f9722a3daafe3b4186f6b6457e091a350565b60008190036109ae576040516322ce3edd60e01b815260040160405180910390fd5b60066109bb828483612228565b505050565b6060600680546109cf90612000565b80601f01602080910402602001604051908101604052809291908181526020018280546109fb90612000565b8015610a485780601f10610a1d57610100808354040283529160200191610a48565b820191906000526020600020905b815481529060010190602001808311610a2b57829003601f168201915b5050505050905090565b610a5a611330565b610a638161138c565b50565b6004610a7283826122e9565b506005610a7f82826122e9565b507f9075ab953f4b4f161e64109ef0a89af6572e9dae864980dd1f697f83da7f78c2838383604051610ab3939291906123a9565b60405180910390a1600083815260076020908152604080832081516060810190925280546001600160a01b03811683529192909190830190600160a01b900460ff166002811115610b0657610b06611f7f565b6002811115610b1757610b17611f7f565b81528154602090910190600160a81b900460ff166001811115610b3c57610b3c611f7f565b6001811115610b4d57610b4d611f7f565b9052509050600081604001516001811115610b6a57610b6a611f7f565b03610cbc578051835115610c285760008085806020019051810190610b8f91906123de565b91509150826001600160a01b03166360646b5788866020015160405180604001604052808767ffffffffffffffff1681526020018667ffffffffffffffff168152506040518463ffffffff1660e01b8152600401610bef93929190612418565b600060405180830381600087803b158015610c0957600080fd5b505af1158015610c1d573d6000803e3d6000fd5b505050505050610cb6565b60408051808201825260008082526020820181905291517f60646b570000000000000000000000000000000000000000000000000000000081526001600160a01b038416926360646b5792610c83928a929190600401612418565b600060405180830381600087803b158015610c9d57600080fd5b505af1158015610cb1573d6000803e3d6000fd5b505050505b50610cf4565b80604001516040517f9baba3800000000000000000000000000000000000000000000000000000000081526004016105589190612455565b50505050565b8051600003610d1c576040516322ce3edd60e01b815260040160405180910390fd5b83836002811115610d2f57610d2f611f7f565b90816002811115610d4257610d42611f7f565b90525060408401828015610d5857610d58611f7f565b90818015610d6857610d68611f7f565b9052506060909301929092525050565b8051600003610d9a5760405163fe936cb760e01b815260040160405180910390fd5b60a090910152565b8051600003610dc45760405163fe936cb760e01b815260040160405180910390fd5b60c090910152565b60606000610ddb610100611442565b9050610e256040518060400160405280600c81526020017f636f64654c6f636174696f6e00000000000000000000000000000000000000008152508261146390919063ffffffff16565b8251610e43906002811115610e3c57610e3c611f7f565b829061147c565b60408051808201909152600881527f6c616e67756167650000000000000000000000000000000000000000000000006020820152610e82908290611463565b6040830151610e99908015610e3c57610e3c611f7f565b60408051808201909152600681527f736f7572636500000000000000000000000000000000000000000000000000006020820152610ed8908290611463565b6060830151610ee8908290611463565b60a08301515115610f955760408051808201909152600481527f61726773000000000000000000000000000000000000000000000000000000006020820152610f32908290611463565b610f3b816114b9565b60005b8360a0015151811015610f8b57610f7b8460a001518281518110610f6457610f6461204d565b60200260200101518361146390919063ffffffff16565b610f8481612479565b9050610f3e565b50610f95816114dd565b6080830151511561109657600083602001516002811115610fb857610fb8611f7f565b03610fef576040517fa80d31f700000000000000000000000000000000000000000000000000000000815260040160405180910390fd5b60408051808201909152600f81527f736563726574734c6f636174696f6e0000000000000000000000000000000000602082015261102e908290611463565b61104783602001516002811115610e3c57610e3c611f7f565b60408051808201909152600781527f73656372657473000000000000000000000000000000000000000000000000006020820152611086908290611463565b60808301516110969082906114fb565b60c083015151156111435760408051808201909152600981527f627974657341726773000000000000000000000000000000000000000000000060208201526110e0908290611463565b6110e9816114b9565b60005b8360c0015151811015611139576111298460c0015182815181106111125761111261204d565b6020026020010151836114fb90919063ffffffff16565b61113281612479565b90506110ec565b50611143816114dd565b515192915050565b6000807f00000000000000000000000000000000000000000000000000000000000000006001600160a01b031663461d27628688600188886040518663ffffffff1660e01b81526004016111a3959493929190612492565b6020604051808303816000875af11580156111c2573d6000803e3d6000fd5b505050506040513d601f19601f820116820180604052508101906111e691906121c1565b60405190915081907f1131472297a800fee664d1d89cfa8f7676ff07189ecc53f80bbb5f4969099db890600090a290505b949350505050565b610a63816040516024016112339190611e1c565b60408051601f198184030181529190526020810180517bffffffffffffffffffffffffffffffffffffffffffffffffffffffff167f41304fac00000000000000000000000000000000000000000000000000000000179052611508565b6060600061129d83611511565b600101905060008167ffffffffffffffff8111156112bd576112bd6119f7565b6040519080825280601f01601f1916602001820160405280156112e7576020820181803683370190505b5090508181016020015b600019017f3031323334353637383961626364656600000000000000000000000000000000600a86061a8153600a85049450846112f157509392505050565b6000546001600160a01b0316331461138a5760405162461bcd60e51b815260206004820152601660248201527f4f6e6c792063616c6c61626c65206279206f776e6572000000000000000000006044820152606401610558565b565b336001600160a01b038216036113e45760405162461bcd60e51b815260206004820152601760248201527f43616e6e6f74207472616e7366657220746f2073656c660000000000000000006044820152606401610558565b6001805473ffffffffffffffffffffffffffffffffffffffff19166001600160a01b0383811691821790925560008054604051929316917fed8889f560326eb138920d842192f0eb3dd22b4f139c87a2c57538e05bae12789190a350565b61144a6119c2565b805161145690836115f4565b5060006020820152919050565b611470826003835161166b565b81516109bb908261178c565b81516114899060c26117b4565b506114b582826040516020016114a191815260200190565b6040516020818303038152906040526114fb565b5050565b6114c481600461181d565b6001816020018181516114d791906124dc565b90525050565b6114e881600761181d565b6001816020018181516114d791906124ef565b611470826002835161166b565b610a6381611834565b6000807a184f03e93ff9f4daa797ed6e38ed64bf6a1f010000000000000000831061155a577a184f03e93ff9f4daa797ed6e38ed64bf6a1f010000000000000000830492506040015b6d04ee2d6d415b85acef81000000008310611586576d04ee2d6d415b85acef8100000000830492506020015b662386f26fc1000083106115a457662386f26fc10000830492506010015b6305f5e10083106115bc576305f5e100830492506008015b61271083106115d057612710830492506004015b606483106115e2576064830492506002015b600a83106115ee576001015b92915050565b604080518082019091526060815260006020820152611614602083612502565b1561163c57611624602083612502565b61162f9060206124ef565b61163990836124dc565b91505b60208084018390526040518085526000815290818401018181101561166057600080fd5b604052509192915050565b60178167ffffffffffffffff1611611692578251610cf49060e0600585901b1683176117b4565b60ff8167ffffffffffffffff16116116d45782516116bb906018611fe0600586901b16176117b4565b508251610cf49067ffffffffffffffff83166001611855565b61ffff8167ffffffffffffffff16116117175782516116fe906019611fe0600586901b16176117b4565b508251610cf49067ffffffffffffffff83166002611855565b63ffffffff8167ffffffffffffffff161161175c57825161174390601a611fe0600586901b16176117b4565b508251610cf49067ffffffffffffffff83166004611855565b825161177390601b611fe0600586901b16176117b4565b508251610cf49067ffffffffffffffff83166008611855565b6040805180820190915260608152600060208201526117ad838384516118da565b9392505050565b60408051808201909152606081526000602082015282515160006117d98260016124dc565b9050846020015182106117fa576117fa856117f5836002612524565b6119ab565b8451602083820101858153508051821115611813578181525b5093949350505050565b81516109bb90601f611fe0600585901b16176117b4565b60006a636f6e736f6c652e6c6f679050600080835160208501845afa505050565b604080518082019091526060815260006020820152835151600061187982856124dc565b9050856020015181111561189657611896866117f5836002612524565b600060016118a68661010061261f565b6118b091906124ef565b905086518281018783198251161781525080518311156118ce578281525b50959695505050505050565b60408051808201909152606081526000602082015282518211156118fd57600080fd5b835151600061190c84836124dc565b9050856020015181111561192957611929866117f5836002612524565b855180518382016020019160009180851115611943578482525b505050602086015b6020861061198357805182526119626020836124dc565b915061196f6020826124dc565b905061197c6020876124ef565b955061194b565b51815160001960208890036101000a0190811690199190911617905250849150509392505050565b81516119b783836115f4565b50610cf4838261178c565b60405180604001604052806119ea604051806040016040528060608152602001600081525090565b8152602001600081525090565b634e487b7160e01b600052604160045260246000fd5b604051601f8201601f1916810167ffffffffffffffff81118282101715611a3657611a366119f7565b604052919050565b600082601f830112611a4f57600080fd5b813567ffffffffffffffff811115611a6957611a696119f7565b611a7c601f8201601f1916602001611a0d565b818152846020838601011115611a9157600080fd5b816020850160208301376000918101602001919091529392505050565b600080600060608486031215611ac357600080fd5b83359250602084013567ffffffffffffffff80821115611ae257600080fd5b611aee87838801611a3e565b93506040860135915080821115611b0457600080fd5b50611b1186828701611a3e565b9150509250925092565b60008083601f840112611b2d57600080fd5b50813567ffffffffffffffff811115611b4557600080fd5b602083019150836020828501011115611b5d57600080fd5b9250929050565b60038110610a6357600080fd5b8035611b7c81611b64565b919050565b600067ffffffffffffffff821115611b9b57611b9b6119f7565b5060051b60200190565b600082601f830112611bb657600080fd5b81356020611bcb611bc683611b81565b611a0d565b82815260059290921b84018101918181019086841115611bea57600080fd5b8286015b84811015611c2a57803567ffffffffffffffff811115611c0e5760008081fd5b611c1c8986838b0101611a3e565b845250918301918301611bee565b509695505050505050565b600082601f830112611c4657600080fd5b81356020611c56611bc683611b81565b82815260059290921b84018101918181019086841115611c7557600080fd5b8286015b84811015611c2a57803567ffffffffffffffff811115611c995760008081fd5b611ca78986838b0101611a3e565b845250918301918301611c79565b67ffffffffffffffff81168114610a6357600080fd5b8035611b7c81611cb5565b803563ffffffff81168114611b7c57600080fd5b600080600080600080600080600060e08a8c031215611d0857600080fd5b893567ffffffffffffffff80821115611d2057600080fd5b611d2c8d838e01611b1b565b909b509950899150611d4060208d01611b71565b985060408c0135915080821115611d5657600080fd5b611d628d838e01611b1b565b909850965060608c0135915080821115611d7b57600080fd5b611d878d838e01611ba5565b955060808c0135915080821115611d9d57600080fd5b50611daa8c828d01611c35565b935050611db960a08b01611ccb565b9150611dc760c08b01611cd6565b90509295985092959850929598565b6000815180845260005b81811015611dfc57602081850181015186830182015201611de0565b506000602082860101526020601f19601f83011685010191505092915050565b6020815260006117ad6020830184611dd6565b80356001600160a01b0381168114611b7c57600080fd5b60008060008060008086880360e0811215611e6057600080fd5b611e6988611e2f565b9650602088013567ffffffffffffffff80821115611e8657600080fd5b611e928b838c01611a3e565b97506040603f1984011215611ea657600080fd5b60405192506040830191508282108183111715611ec557611ec56119f7565b506040908152880135611ed781611cb5565b81526060880135611ee781611cb5565b602082015293506080870135611efc81611b64565b9250611f0a60a08801611ccb565b9150611f1860c08801611cd6565b90509295509295509295565b600060208284031215611f3657600080fd5b5035919050565b60008060208385031215611f5057600080fd5b823567ffffffffffffffff811115611f6757600080fd5b611f7385828601611b1b565b90969095509350505050565b634e487b7160e01b600052602160045260246000fd5b60038110610a6357610a63611f7f565b60028110611fb557611fb5611f7f565b9052565b6001600160a01b038416815260608101611fd284611f95565b8360208301526112176040830184611fa5565b600060208284031215611ff757600080fd5b6117ad82611e2f565b600181811c9082168061201457607f821691505b60208210810361203457634e487b7160e01b600052602260045260246000fd5b50919050565b6020810161204783611f95565b91905290565b634e487b7160e01b600052603260045260246000fd5b611fb581611f95565b600082825180855260208086019550808260051b84010181860160005b848110156120b757601f198684030189526120a5838351611dd6565b98840198925090830190600101612089565b5090979650505050505050565b60e0815260008089546120d681612000565b8060e08601526101006001808416600081146120f9576001811461211357612144565b60ff1985168884015283151560051b880183019550612144565b8e60005260208060002060005b8681101561213b5781548b8201870152908401908201612120565b8a018501975050505b5050505050612156602084018a612063565b82810360408401526121688189611dd6565b9050828103606084015261217c818861206c565b90508281036080840152612190818761206c565b9150506121a960a083018567ffffffffffffffff169052565b63ffffffff831660c083015298975050505050505050565b6000602082840312156121d357600080fd5b5051919050565b601f8211156109bb57600081815260208120601f850160051c810160208610156122015750805b601f850160051c820191505b818110156122205782815560010161220d565b505050505050565b67ffffffffffffffff831115612240576122406119f7565b6122548361224e8354612000565b836121da565b6000601f84116001811461228857600085156122705750838201355b600019600387901b1c1916600186901b1783556122e2565b600083815260209020601f19861690835b828110156122b95786850135825560209485019460019092019101612299565b50868210156122d65760001960f88860031b161c19848701351681555b505060018560011b0183555b5050505050565b815167ffffffffffffffff811115612303576123036119f7565b612317816123118454612000565b846121da565b602080601f83116001811461234c57600084156123345750858301515b600019600386901b1c1916600185901b178555612220565b600085815260208120601f198616915b8281101561237b5788860151825594840194600190910190840161235c565b50858210156123995787850151600019600388901b60f8161c191681555b5050505050600190811b01905550565b8381526060602082015260006123c26060830185611dd6565b82810360408401526123d48185611dd6565b9695505050505050565b600080604083850312156123f157600080fd5b82516123fc81611cb5565b602084015190925061240d81611cb5565b809150509250929050565b8381526080810161242884611f95565b83602083015267ffffffffffffffff80845116604084015280602085015116606084015250949350505050565b602081016115ee8284611fa5565b634e487b7160e01b600052601160045260246000fd5b60006001820161248b5761248b612463565b5060010190565b67ffffffffffffffff8616815260a0602082015260006124b560a0830187611dd6565b61ffff9590951660408301525063ffffffff92909216606083015260809091015292915050565b808201808211156115ee576115ee612463565b818103818111156115ee576115ee612463565b60008261251f57634e487b7160e01b600052601260045260246000fd5b500690565b80820281158282048414176115ee576115ee612463565b600181815b8085111561257657816000190482111561255c5761255c612463565b8085161561256957918102915b93841c9390800290612540565b509250929050565b60008261258d575060016115ee565b8161259a575060006115ee565b81600181146125b057600281146125ba576125d6565b60019150506115ee565b60ff8411156125cb576125cb612463565b50506001821b6115ee565b5060208310610133831016604e8410600b84101617156125f9575081810a6115ee565b612603838361253b565b806000190482111561261757612617612463565b029392505050565b60006117ad838361257e56fe436861696e6c696e6b20436f6e73756d65723a207265717565737442534c537461747573a2646970667358221220e355c1efe0e10add9641a673f26936c102893d326355db4f260032e08226d56b64736f6c63430008140033",
  "linkReferences": {},
  "deployedLinkReferences": {}
}