{
  "_format": "hh-sol-artifact-1",
  "contractName": "StatusRegistry",
  "sourceName": "contracts/StatusRegistry.sol",
  "abi": [
    {
      "inputs": [
        {
          "internalType": "address",
          "name": "consumerAddress",
          "type": "address"
        }
      ],
      "stateMutability": "nonpayable",
      "type": "constructor"
    },
    {
      "inputs": [
        {
          "internalType": "bytes32",
          "name": "requestId",
          "type": "bytes32"
        }
      ],
      "name": "InvalidBSLStatus",
      "type": "error"
    },
    {
      "inputs": [
        {
          "internalType": "StatusState.IssuerId",
          "name": "issuerId",
          "type": "uint8"
        }
      ],
      "name": "InvalidIssuerId",
      "type": "error"
    },
    {
      "inputs": [
        {
          "internalType": "enum StatusState.StatusType",
          "name": "statusType",
          "type": "uint8"
        }
      ],
      "name": "InvalidStatusType",
      "type": "error"
    },
    {
      "inputs": [
        {
          "internalType": "string",
          "name": "url",
          "type": "string"
        }
      ],
      "name": "InvalidUrl",
      "type": "error"
    },
    {
      "inputs": [
        {
          "internalType": "StatusState.IssuerId",
          "name": "issuerId",
          "type": "uint8"
        }
      ],
      "name": "IssuerNotFound",
      "type": "error"
    },
    {
      "inputs": [
        {
          "internalType": "bytes32",
          "name": "requestId",
          "type": "bytes32"
        }
      ],
      "name": "RequestNotFound",
      "type": "error"
    },
    {
      "anonymous": false,
      "inputs": [
        {
          "indexed": false,
          "internalType": "StatusState.IssuerId",
          "name": "issuerId",
          "type": "uint8"
        },
        {
          "indexed": false,
          "internalType": "enum StatusState.StatusType",
          "name": "statusType",
          "type": "uint8"
        }
      ],
      "name": "StatusUpdated",
      "type": "event"
    },
    {
      "inputs": [],
      "name": "INVALID_ISSUER_ID",
      "outputs": [
        {
          "internalType": "StatusState.IssuerId",
          "name": "",
          "type": "uint8"
        }
      ],
      "stateMutability": "view",
      "type": "function"
    },
    {
      "inputs": [
        {
          "internalType": "StatusState.IssuerId",
          "name": "issuerId",
          "type": "uint8"
        },
        {
          "internalType": "string",
          "name": "url",
          "type": "string"
        },
        {
          "internalType": "enum StatusState.StatusMechanism",
          "name": "statusMechanism",
          "type": "uint8"
        }
      ],
      "name": "addIssuer",
      "outputs": [],
      "stateMutability": "nonpayable",
      "type": "function"
    },
    {
      "inputs": [
        {
          "internalType": "StatusState.IssuerId",
          "name": "",
          "type": "uint8"
        }
      ],
      "name": "bslIssuanceStatuses",
      "outputs": [
        {
          "internalType": "uint64",
          "name": "time",
          "type": "uint64"
        },
        {
          "internalType": "uint64",
          "name": "status",
          "type": "uint64"
        }
      ],
      "stateMutability": "view",
      "type": "function"
    },
    {
      "inputs": [
        {
          "internalType": "StatusState.IssuerId",
          "name": "",
          "type": "uint8"
        }
      ],
      "name": "bslRevocationStatuses",
      "outputs": [
        {
          "internalType": "uint64",
          "name": "time",
          "type": "uint64"
        },
        {
          "internalType": "uint64",
          "name": "status",
          "type": "uint64"
        }
      ],
      "stateMutability": "view",
      "type": "function"
    },
    {
      "inputs": [],
      "name": "consumerContract",
      "outputs": [
        {
          "internalType": "contract IOracleConsumer",
          "name": "",
          "type": "address"
        }
      ],
      "stateMutability": "view",
      "type": "function"
    },
    {
      "inputs": [
        {
          "internalType": "bytes32",
          "name": "requestId",
          "type": "bytes32"
        },
        {
          "internalType": "enum StatusState.StatusType",
          "name": "statusType",
          "type": "uint8"
        },
        {
          "components": [
            {
              "internalType": "uint64",
              "name": "time",
              "type": "uint64"
            },
            {
              "internalType": "uint64",
              "name": "status",
              "type": "uint64"
            }
          ],
          "internalType": "struct StatusState.BSLStatus",
          "name": "status",
          "type": "tuple"
        }
      ],
      "name": "fulfillBSLStatus",
      "outputs": [],
      "stateMutability": "nonpayable",
      "type": "function"
    },
    {
      "inputs": [
        {
          "internalType": "StatusState.IssuerId",
          "name": "issuerId",
          "type": "uint8"
        },
        {
          "internalType": "enum StatusState.StatusType",
          "name": "statusType",
          "type": "uint8"
        }
      ],
      "name": "getBSLStatus",
      "outputs": [
        {
          "components": [
            {
              "internalType": "uint64",
              "name": "time",
              "type": "uint64"
            },
            {
              "internalType": "uint64",
              "name": "status",
              "type": "uint64"
            }
          ],
          "internalType": "struct StatusState.BSLStatus",
          "name": "",
          "type": "tuple"
        }
      ],
      "stateMutability": "view",
      "type": "function"
    },
    {
      "inputs": [
        {
          "internalType": "StatusState.IssuerId",
          "name": "issuerId",
          "type": "uint8"
        }
      ],
      "name": "getIssuer",
      "outputs": [
        {
          "components": [
            {
              "internalType": "string",
              "name": "url",
              "type": "string"
            },
            {
              "internalType": "enum StatusState.StatusMechanism",
              "name": "statusMechanism",
              "type": "uint8"
            }
          ],
          "internalType": "struct StatusState.Issuer",
          "name": "",
          "type": "tuple"
        }
      ],
      "stateMutability": "view",
      "type": "function"
    },
    {
      "inputs": [
        {
          "internalType": "StatusState.IssuerId",
          "name": "",
          "type": "uint8"
        }
      ],
      "name": "issuers",
      "outputs": [
        {
          "internalType": "string",
          "name": "url",
          "type": "string"
        },
        {
          "internalType": "enum StatusState.StatusMechanism",
          "name": "statusMechanism",
          "type": "uint8"
        }
      ],
      "stateMutability": "view",
      "type": "function"
    },
    {
      "inputs": [
        {
          "internalType": "address",
          "name": "requesterAddress",
          "type": "address"
        },
        {
          "internalType": "StatusState.IssuerId",
          "name": "issuerId",
          "type": "uint8"
        },
        {
          "internalType": "enum StatusState.StatusType",
          "name": "statusType",
          "type": "uint8"
        },
        {
          "internalType": "bool",
          "name": "refresh",
          "type": "bool"
        },
        {
          "internalType": "uint64",
          "name": "subscriptionId",
          "type": "uint64"
        },
        {
          "internalType": "uint32",
          "name": "callbackGasLimit",
          "type": "uint32"
        }
      ],
      "name": "requestStatus",
      "outputs": [
        {
          "internalType": "bytes32",
          "name": "",
          "type": "bytes32"
        }
      ],
      "stateMutability": "nonpayable",
      "type": "function"
    },
    {
      "inputs": [
        {
          "internalType": "bytes32",
          "name": "",
          "type": "bytes32"
        }
      ],
      "name": "requests",
      "outputs": [
        {
          "internalType": "address",
          "name": "requesterAddress",
          "type": "address"
        },
        {
          "internalType": "StatusState.IssuerId",
          "name": "issuerId",
          "type": "uint8"
        },
        {
          "internalType": "enum StatusState.StatusType",
          "name": "statusType",
          "type": "uint8"
        },
        {
          "internalType": "enum StatusState.StatusMechanism",
          "name": "statusMechanism",
          "type": "uint8"
        }
      ],
      "stateMutability": "view",
      "type": "function"
    },
    {
      "inputs": [
        {
          "internalType": "StatusState.IssuerId",
          "name": "issuerId",
          "type": "uint8"
        },
        {
          "internalType": "enum StatusState.StatusType",
          "name": "statusType",
          "type": "uint8"
        },
        {
          "components": [
            {
              "internalType": "uint64",
              "name": "time",
              "type": "uint64"
            },
            {
              "internalType": "uint64",
              "name": "status",
              "type": "uint64"
            }
          ],
          "internalType": "struct StatusState.BSLStatus",
          "name": "status",
          "type": "tuple"
        }
      ],
      "name": "setBSLStatus",
      "outputs": [],
      "stateMutability": "nonpayable",
      "type": "function"
    }
  ],
  "bytecode": "0x608060405234801561001057600080fd5b5060405161168038038061168083398101604081905261002f91610054565b600480546001600160a01b0319166001600160a01b0392909216919091179055610084565b60006020828403121561006657600080fd5b81516001600160a01b038116811461007d57600080fd5b9392505050565b6115ed806100936000396000f3fe608060405234801561001057600080fd5b50600436106100d45760003560e01c806360646b571161008157806395fdb23b1161005b57806395fdb23b146102385780639d86698514610258578063d6d5e98e146102b257600080fd5b806360646b57146101cf578063736eeab4146101e257806393ba193a1461021757600080fd5b806322dbddb1116100b257806322dbddb11461012e578063416b1caa1461015957806350187d1f1461017957600080fd5b8063072fbc43146100d95780630db21b2c146100f857806315ed581114610119575b600080fd5b6100e1600081565b60405160ff90911681526020015b60405180910390f35b61010b610106366004610f72565b6102c5565b6040516100ef929190611004565b61012c6101273660046110c1565b61036c565b005b600454610141906001600160a01b031681565b6040516001600160a01b0390911681526020016100ef565b61016c610167366004610f72565b61048d565b6040516100ef9190611105565b6101ae610187366004610f72565b60036020526000908152604090205467ffffffffffffffff80821691600160401b90041682565b6040805167ffffffffffffffff9384168152929091166020830152016100ef565b61012c6101dd36600461113d565b6105b1565b6101ae6101f0366004610f72565b60026020526000908152604090205467ffffffffffffffff80821691600160401b90041682565b61022a610225366004611162565b6108fb565b6040519081526020016100ef565b61024b6102463660046111f8565b610d64565b6040516100ef919061122b565b6102a2610266366004611250565b6000602081905290815260409020546001600160a01b0381169060ff600160a01b8204811691600160a81b8104821691600160b01b9091041684565b6040516100ef9493929190611279565b61012c6102c03660046112b5565b610e4e565b6001602052600090815260409020805481906102e09061134f565b80601f016020809104026020016040519081016040528092919081815260200182805461030c9061134f565b80156103595780601f1061032e57610100808354040283529160200191610359565b820191906000526020600020905b81548152906001019060200180831161033c57829003601f168201915b5050506001909301549192505060ff1682565b60ff831661039757604051639712120560e01b815260ff841660048201526024015b60405180910390fd5b60018260028111156103ab576103ab610fda565b036104025760ff83166000908152600260209081526040909120825181549284015167ffffffffffffffff908116600160401b026fffffffffffffffffffffffffffffffff19909416911617919091179055505050565b600282600281111561041657610416610fda565b0361046d5760ff83166000908152600360209081526040909120825181549284015167ffffffffffffffff908116600160401b026fffffffffffffffffffffffffffffffff19909416911617919091179055505050565b81604051634ac1510560e01b815260040161038e9190611389565b505050565b60408051808201909152606081526000602082015260ff821660009081526001602052604080822081518083019092528054829082906104cc9061134f565b80601f01602080910402602001604051908101604052809291908181526020018280546104f89061134f565b80156105455780601f1061051a57610100808354040283529160200191610545565b820191906000526020600020905b81548152906001019060200180831161052857829003601f168201915b505050918352505060018281015460209092019160ff169081111561056c5761056c610fda565b600181111561057d5761057d610fda565b9052508051519091506000036105ab57604051630fbcc09f60e11b815260ff8416600482015260240161038e565b92915050565b600083815260208181526040808320815160808101835281546001600160a01b038116825260ff600160a01b820481169583019590955290939192840191600160a81b90910416600281111561060957610609610fda565b600281111561061a5761061a610fda565b81528154602090910190600160b01b900460ff16600181111561063f5761063f610fda565b600181111561065057610650610fda565b905250602081015190915060ff16610697576040517f1a3870620000000000000000000000000000000000000000000000000000000081526004810185905260240161038e565b604080518082019091526000808252602082015260018460028111156106bf576106bf610fda565b03610709575060208082015160ff1660009081526002825260409081902081518083019092525467ffffffffffffffff8082168352600160401b9091041691810191909152610782565b600284600281111561071d5761071d610fda565b03610767575060208082015160ff1660009081526003825260409081902081518083019092525467ffffffffffffffff8082168352600160401b9091041691810191909152610782565b83604051634ac1510560e01b815260040161038e9190611389565b60208181015190840151811667ffffffffffffffff9081169116146107d6576040517f6207f3320000000000000000000000000000000000000000000000000000000081526004810186905260240161038e565b60208201516040517f15ed581100000000000000000000000000000000000000000000000000000000815230916315ed58119161081a919088908890600401611397565b600060405180830381600087803b15801561083457600080fd5b505af1158015610848573d6000803e3d6000fd5b505083516020850151604051636e57e37560e01b81529193506001600160a01b0384169250636e57e37591610884919089908990600401611397565b600060405180830381600087803b15801561089e57600080fd5b505af11580156108b2573d6000803e3d6000fd5b505050507f84950c1c14f7f37b4e67d58ad2a95ad1e04ad8954e4417799095a4f0e9c74f728360200151866040516108eb9291906113d4565b60405180910390a1505050505050565b600060ff861661092357604051639712120560e01b815260ff8716600482015260240161038e565b60ff8616600090815260016020526040808220815180830190925280548290829061094d9061134f565b80601f01602080910402602001604051908101604052809291908181526020018280546109799061134f565b80156109c65780601f1061099b576101008083540402835291602001916109c6565b820191906000526020600020905b8154815290600101906020018083116109a957829003601f168201915b505050918352505060018281015460209092019160ff16908111156109ed576109ed610fda565b60018111156109fe576109fe610fda565b905250805151909150600003610a2c57604051630fbcc09f60e11b815260ff8816600482015260240161038e565b60408051808201909152600080825260208201526001876002811115610a5457610a54610fda565b03610a99575060ff871660009081526002602090815260409182902082518084019093525467ffffffffffffffff8082168452600160401b9091041690820152610b0d565b6002876002811115610aad57610aad610fda565b03610af2575060ff871660009081526003602090815260409182902082518084019093525467ffffffffffffffff8082168452600160401b9091041690820152610b0d565b86604051634ac1510560e01b815260040161038e9190611389565b60008615610ced576004805484516040517f42ad0c6a0000000000000000000000000000000000000000000000000000000081526001600160a01b03909216926342ad0c6a92610b69923092909188918f918e918e91016113eb565b6020604051808303816000875af1158015610b88573d6000803e3d6000fd5b505050506040513d601f19601f82011682018060405250810190610bac9190611461565b905060405180608001604052808b6001600160a01b031681526020018a60ff168152602001896002811115610be357610be3610fda565b815260200184602001516001811115610bfe57610bfe610fda565b905260008281526020818152604091829020835181549285015160ff16600160a01b027fffffffffffffffffffffff0000000000000000000000000000000000000000009093166001600160a01b03909116179190911780825591830151909182907fffffffffffffffffffff00ffffffffffffffffffffffffffffffffffffffffff16600160a81b836002811115610c9957610c99610fda565b02179055506060820151815482907fffffffffffffffffff00ffffffffffffffffffffffffffffffffffffffffffff16600160b01b836001811115610ce057610ce0610fda565b0217905550905050610d57565b50604051636e57e37560e01b81526000908a906001600160a01b03821690636e57e37590610d23908d908d908890600401611397565b600060405180830381600087803b158015610d3d57600080fd5b505af1158015610d51573d6000803e3d6000fd5b50505050505b9998505050505050505050565b604080518082019091526000808252602082015260ff8316610d9e57604051639712120560e01b815260ff8416600482015260240161038e565b6001826002811115610db257610db2610fda565b03610df7575060ff821660009081526002602090815260409182902082518084019093525467ffffffffffffffff8082168452600160401b90910416908201526105ab565b6002826002811115610e0b57610e0b610fda565b0361046d57505060ff1660009081526003602090815260409182902082518084019093525467ffffffffffffffff8082168452600160401b909104169082015290565b60ff8416610e7457604051639712120560e01b815260ff8516600482015260240161038e565b6000829003610eb35782826040517fb17265ae00000000000000000000000000000000000000000000000000000000815260040161038e92919061147a565b6040805160606020601f86018190040282018101835291810184815290918291908690869081908501838280828437600092019190915250505090825250602001826001811115610f0657610f06610fda565b905260ff8516600090815260016020526040902081518190610f2890826114f7565b50602082015160018083018054909160ff19909116908381811115610f4f57610f4f610fda565b0217905550505050505050565b803560ff81168114610f6d57600080fd5b919050565b600060208284031215610f8457600080fd5b610f8d82610f5c565b9392505050565b6000815180845260005b81811015610fba57602081850181015186830182015201610f9e565b506000602082860101526020601f19601f83011685010191505092915050565b634e487b7160e01b600052602160045260246000fd5b6002811061100057611000610fda565b9052565b6040815260006110176040830185610f94565b9050610f8d6020830184610ff0565b803560038110610f6d57600080fd5b634e487b7160e01b600052604160045260246000fd5b803567ffffffffffffffff81168114610f6d57600080fd5b60006040828403121561107557600080fd5b6040516040810181811067ffffffffffffffff8211171561109857611098611035565b6040529050806110a78361104b565b81526110b56020840161104b565b60208201525092915050565b6000806000608084860312156110d657600080fd5b6110df84610f5c565b92506110ed60208501611026565b91506110fc8560408601611063565b90509250925092565b6020815260008251604060208401526111216060840182610f94565b905060208401516111356040850182610ff0565b509392505050565b60008060006080848603121561115257600080fd5b833592506110ed60208501611026565b60008060008060008060c0878903121561117b57600080fd5b86356001600160a01b038116811461119257600080fd5b95506111a060208801610f5c565b94506111ae60408801611026565b9350606087013580151581146111c357600080fd5b92506111d16080880161104b565b915060a087013563ffffffff811681146111ea57600080fd5b809150509295509295509295565b6000806040838503121561120b57600080fd5b61121483610f5c565b915061122260208401611026565b90509250929050565b604081016105ab8284805167ffffffffffffffff908116835260209182015116910152565b60006020828403121561126257600080fd5b5035919050565b6003811061100057611000610fda565b6001600160a01b038516815260ff841660208201526080810161129f6040830185611269565b6112ac6060830184610ff0565b95945050505050565b600080600080606085870312156112cb57600080fd5b6112d485610f5c565b9350602085013567ffffffffffffffff808211156112f157600080fd5b818701915087601f83011261130557600080fd5b81358181111561131457600080fd5b88602082850101111561132657600080fd5b60208301955080945050505060408501356002811061134457600080fd5b939692955090935050565b600181811c9082168061136357607f821691505b60208210810361138357634e487b7160e01b600052602260045260246000fd5b50919050565b602081016105ab8284611269565b60ff84168152608081016113ae6020830185611269565b825167ffffffffffffffff90811660408401526020840151166060830152949350505050565b60ff8316815260408101610f8d6020830184611269565b6001600160a01b038716815260e06020820152600061140d60e0830188610f94565b865167ffffffffffffffff90811660408501526020880151166060840152905061143a6080830186611269565b67ffffffffffffffff841660a083015263ffffffff831660c0830152979650505050505050565b60006020828403121561147357600080fd5b5051919050565b60208152816020820152818360408301376000818301604090810191909152601f909201601f19160101919050565b601f82111561048857600081815260208120601f850160051c810160208610156114d05750805b601f850160051c820191505b818110156114ef578281556001016114dc565b505050505050565b815167ffffffffffffffff81111561151157611511611035565b6115258161151f845461134f565b846114a9565b602080601f83116001811461155a57600084156115425750858301515b600019600386901b1c1916600185901b1785556114ef565b600085815260208120601f198616915b828110156115895788860151825594840194600190910190840161156a565b50858210156115a75787850151600019600388901b60f8161c191681555b5050505050600190811b0190555056fea26469706673582212207efd3448f7bfe6599a8ee3eb4091cdc9e82b41885b623c7f5f63adc21b50f0de64736f6c63430008140033",
  "linkReferences": {},
  "deployedLinkReferences": {}
}