{
  "_format": "hh-sol-artifact-1",
  "contractName": "StatusRegistry",
  "sourceName": "contracts/StatusRegistry.sol",
  "abi": [
    {
      "inputs": [
        {
          "internalType": "address",
          "name": "consumerAddress",
          "type": "address"
        },
        {
          "internalType": "address",
          "name": "zkConsumerAddress",
          "type": "address"
        }
      ],
      "stateMutability": "nonpayable",
      "type": "constructor"
    },
    {
      "inputs": [
        {
          "internalType": "bytes32",
          "name": "requestId",
          "type": "bytes32"
        }
      ],
      "name": "InvalidBSLStatus",
      "type": "error"
    },
    {
      "inputs": [
        {
          "internalType": "StatusState.IssuerId",
          "name": "issuerId",
          "type": "uint8"
        }
      ],
      "name": "InvalidIssuerId",
      "type": "error"
    },
    {
      "inputs": [
        {
          "internalType": "enum OracleType",
          "name": "oracleType",
          "type": "uint8"
        }
      ],
      "name": "InvalidOracleType",
      "type": "error"
    },
    {
      "inputs": [
        {
          "internalType": "enum StatusState.StatusType",
          "name": "statusType",
          "type": "uint8"
        }
      ],
      "name": "InvalidStatusType",
      "type": "error"
    },
    {
      "inputs": [
        {
          "internalType": "string",
          "name": "url",
          "type": "string"
        }
      ],
      "name": "InvalidUrl",
      "type": "error"
    },
    {
      "inputs": [
        {
          "internalType": "StatusState.IssuerId",
          "name": "issuerId",
          "type": "uint8"
        }
      ],
      "name": "IssuerNotFound",
      "type": "error"
    },
    {
      "inputs": [
        {
          "internalType": "bytes32",
          "name": "requestId",
          "type": "bytes32"
        }
      ],
      "name": "RequestNotFound",
      "type": "error"
    },
    {
      "anonymous": false,
      "inputs": [
        {
          "indexed": false,
          "internalType": "StatusState.IssuerId",
          "name": "issuerId",
          "type": "uint8"
        },
        {
          "indexed": false,
          "internalType": "enum StatusState.StatusType",
          "name": "statusType",
          "type": "uint8"
        }
      ],
      "name": "StatusUpdated",
      "type": "event"
    },
    {
      "inputs": [],
      "name": "INVALID_ISSUER_ID",
      "outputs": [
        {
          "internalType": "StatusState.IssuerId",
          "name": "",
          "type": "uint8"
        }
      ],
      "stateMutability": "view",
      "type": "function"
    },
    {
      "inputs": [
        {
          "internalType": "StatusState.IssuerId",
          "name": "issuerId",
          "type": "uint8"
        },
        {
          "internalType": "string",
          "name": "url",
          "type": "string"
        },
        {
          "internalType": "enum StatusState.StatusMechanism",
          "name": "statusMechanism",
          "type": "uint8"
        }
      ],
      "name": "addIssuer",
      "outputs": [],
      "stateMutability": "nonpayable",
      "type": "function"
    },
    {
      "inputs": [
        {
          "internalType": "StatusState.IssuerId",
          "name": "",
          "type": "uint8"
        }
      ],
      "name": "bslIssuanceStatuses",
      "outputs": [
        {
          "internalType": "uint64",
          "name": "time",
          "type": "uint64"
        },
        {
          "internalType": "uint64",
          "name": "status",
          "type": "uint64"
        }
      ],
      "stateMutability": "view",
      "type": "function"
    },
    {
      "inputs": [
        {
          "internalType": "StatusState.IssuerId",
          "name": "",
          "type": "uint8"
        }
      ],
      "name": "bslRevocationStatuses",
      "outputs": [
        {
          "internalType": "uint64",
          "name": "time",
          "type": "uint64"
        },
        {
          "internalType": "uint64",
          "name": "status",
          "type": "uint64"
        }
      ],
      "stateMutability": "view",
      "type": "function"
    },
    {
      "inputs": [],
      "name": "consumerContract",
      "outputs": [
        {
          "internalType": "contract IOracleConsumer",
          "name": "",
          "type": "address"
        }
      ],
      "stateMutability": "view",
      "type": "function"
    },
    {
      "inputs": [
        {
          "internalType": "bytes32",
          "name": "requestId",
          "type": "bytes32"
        },
        {
          "internalType": "enum StatusState.StatusType",
          "name": "statusType",
          "type": "uint8"
        },
        {
          "components": [
            {
              "internalType": "uint64",
              "name": "time",
              "type": "uint64"
            },
            {
              "internalType": "uint64",
              "name": "status",
              "type": "uint64"
            }
          ],
          "internalType": "struct StatusState.BSLStatus",
          "name": "status",
          "type": "tuple"
        }
      ],
      "name": "fulfillBSLStatus",
      "outputs": [],
      "stateMutability": "nonpayable",
      "type": "function"
    },
    {
      "inputs": [
        {
          "internalType": "StatusState.IssuerId",
          "name": "issuerId",
          "type": "uint8"
        },
        {
          "internalType": "enum StatusState.StatusType",
          "name": "statusType",
          "type": "uint8"
        }
      ],
      "name": "getBSLStatus",
      "outputs": [
        {
          "components": [
            {
              "internalType": "uint64",
              "name": "time",
              "type": "uint64"
            },
            {
              "internalType": "uint64",
              "name": "status",
              "type": "uint64"
            }
          ],
          "internalType": "struct StatusState.BSLStatus",
          "name": "",
          "type": "tuple"
        }
      ],
      "stateMutability": "view",
      "type": "function"
    },
    {
      "inputs": [
        {
          "internalType": "enum OracleType",
          "name": "oracleType",
          "type": "uint8"
        }
      ],
      "name": "getConsumerAddress",
      "outputs": [
        {
          "internalType": "address",
          "name": "",
          "type": "address"
        }
      ],
      "stateMutability": "view",
      "type": "function"
    },
    {
      "inputs": [
        {
          "internalType": "StatusState.IssuerId",
          "name": "issuerId",
          "type": "uint8"
        }
      ],
      "name": "getIssuer",
      "outputs": [
        {
          "components": [
            {
              "internalType": "string",
              "name": "url",
              "type": "string"
            },
            {
              "internalType": "enum StatusState.StatusMechanism",
              "name": "statusMechanism",
              "type": "uint8"
            }
          ],
          "internalType": "struct StatusState.Issuer",
          "name": "",
          "type": "tuple"
        }
      ],
      "stateMutability": "view",
      "type": "function"
    },
    {
      "inputs": [
        {
          "internalType": "StatusState.IssuerId",
          "name": "",
          "type": "uint8"
        }
      ],
      "name": "issuers",
      "outputs": [
        {
          "internalType": "string",
          "name": "url",
          "type": "string"
        },
        {
          "internalType": "enum StatusState.StatusMechanism",
          "name": "statusMechanism",
          "type": "uint8"
        }
      ],
      "stateMutability": "view",
      "type": "function"
    },
    {
      "inputs": [
        {
          "internalType": "address",
          "name": "requesterAddress",
          "type": "address"
        },
        {
          "internalType": "StatusState.IssuerId",
          "name": "issuerId",
          "type": "uint8"
        },
        {
          "internalType": "enum StatusState.StatusType",
          "name": "statusType",
          "type": "uint8"
        },
        {
          "internalType": "bool",
          "name": "refresh",
          "type": "bool"
        },
        {
          "internalType": "enum OracleType",
          "name": "oracleType",
          "type": "uint8"
        },
        {
          "internalType": "uint64",
          "name": "subscriptionId",
          "type": "uint64"
        },
        {
          "internalType": "uint32",
          "name": "callbackGasLimit",
          "type": "uint32"
        }
      ],
      "name": "requestStatus",
      "outputs": [
        {
          "internalType": "bytes32",
          "name": "",
          "type": "bytes32"
        }
      ],
      "stateMutability": "nonpayable",
      "type": "function"
    },
    {
      "inputs": [
        {
          "internalType": "bytes32",
          "name": "",
          "type": "bytes32"
        }
      ],
      "name": "requests",
      "outputs": [
        {
          "internalType": "address",
          "name": "requesterAddress",
          "type": "address"
        },
        {
          "internalType": "StatusState.IssuerId",
          "name": "issuerId",
          "type": "uint8"
        },
        {
          "internalType": "enum StatusState.StatusType",
          "name": "statusType",
          "type": "uint8"
        },
        {
          "internalType": "enum StatusState.StatusMechanism",
          "name": "statusMechanism",
          "type": "uint8"
        },
        {
          "internalType": "enum OracleType",
          "name": "oracleType",
          "type": "uint8"
        }
      ],
      "stateMutability": "view",
      "type": "function"
    },
    {
      "inputs": [
        {
          "internalType": "StatusState.IssuerId",
          "name": "issuerId",
          "type": "uint8"
        },
        {
          "internalType": "enum StatusState.StatusType",
          "name": "statusType",
          "type": "uint8"
        },
        {
          "components": [
            {
              "internalType": "uint64",
              "name": "time",
              "type": "uint64"
            },
            {
              "internalType": "uint64",
              "name": "status",
              "type": "uint64"
            }
          ],
          "internalType": "struct StatusState.BSLStatus",
          "name": "status",
          "type": "tuple"
        }
      ],
      "name": "setBSLStatus",
      "outputs": [],
      "stateMutability": "nonpayable",
      "type": "function"
    },
    {
      "inputs": [],
      "name": "zkConsumerContract",
      "outputs": [
        {
          "internalType": "contract IOracleConsumer",
          "name": "",
          "type": "address"
        }
      ],
      "stateMutability": "view",
      "type": "function"
    }
  ],
  "bytecode": "0x60806040523480156200001157600080fd5b5060405162001beb38038062001beb833981016040819052620000349162000083565b600480546001600160a01b039384166001600160a01b03199182161790915560058054929093169116179055620000bb565b80516001600160a01b03811681146200007e57600080fd5b919050565b600080604083850312156200009757600080fd5b620000a28362000066565b9150620000b26020840162000066565b90509250929050565b611b2080620000cb6000396000f3fe608060405234801561001057600080fd5b50600436106100ea5760003560e01c8063541e4cb51161008c57806382ee8b4a1161006657806382ee8b4a1461026157806395fdb23b146102745780639d86698514610294578063d6d5e98e146102f857600080fd5b8063541e4cb51461020657806360646b5714610219578063736eeab41461022c57600080fd5b806322dbddb1116100c857806322dbddb114610144578063416b1caa1461016f57806342e6c2aa1461018f57806350187d1f146101b057600080fd5b8063072fbc43146100ef5780630db21b2c1461010e57806315ed58111461012f575b600080fd5b6100f7600081565b60405160ff90911681526020015b60405180910390f35b61012161011c366004611346565b61030b565b6040516101059291906113d4565b61014261013d36600461149a565b6103b2565b005b600454610157906001600160a01b031681565b6040516001600160a01b039091168152602001610105565b61018261017d366004611346565b6104d3565b60405161010591906114de565b6101a261019d366004611527565b6105f7565b604051908152602001610105565b6101e56101be366004611346565b60036020526000908152604090205467ffffffffffffffff80821691600160401b90041682565b6040805167ffffffffffffffff938416815292909116602083015201610105565b6101576102143660046115d1565b610c02565b6101426102273660046115ee565b610c72565b6101e561023a366004611346565b60026020526000908152604090205467ffffffffffffffff80821691600160401b90041682565b600554610157906001600160a01b031681565b610287610282366004611613565b610ff2565b6040516101059190611646565b6102e76102a236600461166b565b6000602081905290815260409020546001600160a01b0381169060ff600160a01b8204811691600160a81b8104821691600160b01b8204811691600160b81b90041685565b604051610105959493929190611698565b6101426103063660046116e6565b6110dc565b6001602052600090815260409020805481906103269061177c565b80601f01602080910402602001604051908101604052809291908181526020018280546103529061177c565b801561039f5780601f106103745761010080835404028352916020019161039f565b820191906000526020600020905b81548152906001019060200180831161038257829003601f168201915b5050506001909301549192505060ff1682565b60ff83166103dd57604051639712120560e01b815260ff841660048201526024015b60405180910390fd5b60018260028111156103f1576103f16113ae565b036104485760ff83166000908152600260209081526040909120825181549284015167ffffffffffffffff908116600160401b026fffffffffffffffffffffffffffffffff19909416911617919091179055505050565b600282600281111561045c5761045c6113ae565b036104b35760ff83166000908152600360209081526040909120825181549284015167ffffffffffffffff908116600160401b026fffffffffffffffffffffffffffffffff19909416911617919091179055505050565b81604051634ac1510560e01b81526004016103d491906117b6565b505050565b60408051808201909152606081526000602082015260ff821660009081526001602052604080822081518083019092528054829082906105129061177c565b80601f016020809104026020016040519081016040528092919081815260200182805461053e9061177c565b801561058b5780601f106105605761010080835404028352916020019161058b565b820191906000526020600020905b81548152906001019060200180831161056e57829003601f168201915b505050918352505060018281015460209092019160ff16908111156105b2576105b26113ae565b60018111156105c3576105c36113ae565b9052508051519091506000036105f157604051630fbcc09f60e11b815260ff841660048201526024016103d4565b92915050565b600060ff871661061f57604051639712120560e01b815260ff881660048201526024016103d4565b60ff871660009081526001602052604080822081518083019092528054829082906106499061177c565b80601f01602080910402602001604051908101604052809291908181526020018280546106759061177c565b80156106c25780601f10610697576101008083540402835291602001916106c2565b820191906000526020600020905b8154815290600101906020018083116106a557829003601f168201915b505050918352505060018281015460209092019160ff16908111156106e9576106e96113ae565b60018111156106fa576106fa6113ae565b90525080515190915060000361072857604051630fbcc09f60e11b815260ff891660048201526024016103d4565b60408051808201909152600080825260208201526001886002811115610750576107506113ae565b03610795575060ff881660009081526002602090815260409182902082518084019093525467ffffffffffffffff8082168452600160401b9091041690820152610809565b60028860028111156107a9576107a96113ae565b036107ee575060ff881660009081526003602090815260409182902082518084019093525467ffffffffffffffff8082168452600160401b9091041690820152610809565b87604051634ac1510560e01b81526004016103d491906117b6565b6000610856604051806080016040528060418152602001611a8060419139600089600181111561083b5761083b6113ae565b1460018a6001811115610850576108506113ae565b146111ea565b8715610b8a576000876001811115610870576108706113ae565b0361092f576108966040518060600160405280602a8152602001611ac1602a913961124a565b600460009054906101000a90046001600160a01b03166001600160a01b03166342ad0c6a308560000151858d8b8b6040518763ffffffff1660e01b81526004016108e5969594939291906117c4565b6020604051808303816000875af1158015610904573d6000803e3d6000fd5b505050506040513d601f19601f82011682018060405250810190610928919061183a565b90506109ed565b6001876001811115610943576109436113ae565b036109d25761097e604051806060016040528060298152602001611a5760299139886001811115610976576109766113ae565b60ff166112a9565b60055483516040517f42ad0c6a0000000000000000000000000000000000000000000000000000000081526001600160a01b03909216916342ad0c6a916108e59130919087908f908d908d906004016117c4565b86604051636a7d5e3560e01b81526004016103d49190611853565b6040518060a001604052808c6001600160a01b031681526020018b60ff1681526020018a6002811115610a2257610a226113ae565b815260200184602001516001811115610a3d57610a3d6113ae565b8152602001886001811115610a5457610a546113ae565b905260008281526020818152604091829020835181549285015160ff16600160a01b027fffffffffffffffffffffff0000000000000000000000000000000000000000009093166001600160a01b03909116179190911780825591830151909182907fffffffffffffffffffff00ffffffffffffffffffffffffffffffffffffffffff16600160a81b836002811115610aef57610aef6113ae565b02179055506060820151815482907fffffffffffffffffff00ffffffffffffffffffffffffffffffffffffffffffff16600160b01b836001811115610b3657610b366113ae565b02179055506080820151815482907fffffffffffffffff00ffffffffffffffffffffffffffffffffffffffffffffff16600160b81b836001811115610b7d57610b7d6113ae565b0217905550905050610bf4565b50604051636e57e37560e01b81526000908b906001600160a01b03821690636e57e37590610bc0908e908e908890600401611866565b600060405180830381600087803b158015610bda57600080fd5b505af1158015610bee573d6000803e3d6000fd5b50505050505b9a9950505050505050505050565b600080826001811115610c1757610c176113ae565b03610c2d5750506004546001600160a01b031690565b6001826001811115610c4157610c416113ae565b03610c575750506005546001600160a01b031690565b81604051636a7d5e3560e01b81526004016103d49190611853565b600083815260208181526040808320815160a08101835281546001600160a01b038116825260ff600160a01b820481169583019590955290939192840191600160a81b909104166002811115610cca57610cca6113ae565b6002811115610cdb57610cdb6113ae565b81528154602090910190600160b01b900460ff166001811115610d0057610d006113ae565b6001811115610d1157610d116113ae565b81528154602090910190600160b81b900460ff166001811115610d3657610d366113ae565b6001811115610d4757610d476113ae565b905250602081015190915060ff16610d8e576040517f1a387062000000000000000000000000000000000000000000000000000000008152600481018590526024016103d4565b60408051808201909152600080825260208201526001846002811115610db657610db66113ae565b03610e00575060208082015160ff1660009081526002825260409081902081518083019092525467ffffffffffffffff8082168352600160401b9091041691810191909152610e79565b6002846002811115610e1457610e146113ae565b03610e5e575060208082015160ff1660009081526003825260409081902081518083019092525467ffffffffffffffff8082168352600160401b9091041691810191909152610e79565b83604051634ac1510560e01b81526004016103d491906117b6565b60208181015190840151811667ffffffffffffffff908116911614610ecd576040517f6207f332000000000000000000000000000000000000000000000000000000008152600481018690526024016103d4565b60208201516040517f15ed581100000000000000000000000000000000000000000000000000000000815230916315ed581191610f11919088908890600401611866565b600060405180830381600087803b158015610f2b57600080fd5b505af1158015610f3f573d6000803e3d6000fd5b505083516020850151604051636e57e37560e01b81529193506001600160a01b0384169250636e57e37591610f7b919089908990600401611866565b600060405180830381600087803b158015610f9557600080fd5b505af1158015610fa9573d6000803e3d6000fd5b505050507f84950c1c14f7f37b4e67d58ad2a95ad1e04ad8954e4417799095a4f0e9c74f72836020015186604051610fe29291906118a3565b60405180910390a1505050505050565b604080518082019091526000808252602082015260ff831661102c57604051639712120560e01b815260ff841660048201526024016103d4565b6001826002811115611040576110406113ae565b03611085575060ff821660009081526002602090815260409182902082518084019093525467ffffffffffffffff8082168452600160401b90910416908201526105f1565b6002826002811115611099576110996113ae565b036104b357505060ff1660009081526003602090815260409182902082518084019093525467ffffffffffffffff8082168452600160401b909104169082015290565b60ff841661110257604051639712120560e01b815260ff851660048201526024016103d4565b60008290036111415782826040517fb17265ae0000000000000000000000000000000000000000000000000000000081526004016103d49291906118ba565b6040805160606020601f86018190040282018101835291810184815290918291908690869081908501838280828437600092019190915250505090825250602001826001811115611194576111946113ae565b905260ff85166000908152600160205260409020815181906111b69082611937565b50602082015160018083018054909160ff199091169083818111156111dd576111dd6113ae565b0217905550505050505050565b6104ce838383604051602401611202939291906119f7565b60408051601f198184030181529190526020810180516001600160e01b03167f850b7ad60000000000000000000000000000000000000000000000000000000017905261130b565b6112a68160405160240161125e9190611a21565b60408051601f198184030181529190526020810180516001600160e01b03167f41304fac0000000000000000000000000000000000000000000000000000000017905261130b565b50565b61130782826040516024016112bf929190611a34565b60408051601f198184030181529190526020810180516001600160e01b03167fb60e72cc0000000000000000000000000000000000000000000000000000000017905261130b565b5050565b6112a68160006a636f6e736f6c652e6c6f679050600080835160208501845afa505050565b803560ff8116811461134157600080fd5b919050565b60006020828403121561135857600080fd5b61136182611330565b9392505050565b6000815180845260005b8181101561138e57602081850181015186830182015201611372565b506000602082860101526020601f19601f83011685010191505092915050565b634e487b7160e01b600052602160045260246000fd5b600281106112a6576112a66113ae565b6040815260006113e76040830185611368565b90506113f2836113c4565b8260208301529392505050565b80356003811061134157600080fd5b634e487b7160e01b600052604160045260246000fd5b803567ffffffffffffffff8116811461134157600080fd5b60006040828403121561144e57600080fd5b6040516040810181811067ffffffffffffffff821117156114715761147161140e565b60405290508061148083611424565b815261148e60208401611424565b60208201525092915050565b6000806000608084860312156114af57600080fd5b6114b884611330565b92506114c6602085016113ff565b91506114d5856040860161143c565b90509250925092565b6020815260008251604060208401526114fa6060840182611368565b9050602084015161150a816113c4565b6040939093019290925250919050565b600281106112a657600080fd5b600080600080600080600060e0888a03121561154257600080fd5b87356001600160a01b038116811461155957600080fd5b965061156760208901611330565b9550611575604089016113ff565b94506060880135801515811461158a57600080fd5b9350608088013561159a8161151a565b92506115a860a08901611424565b915060c088013563ffffffff811681146115c157600080fd5b8091505092959891949750929550565b6000602082840312156115e357600080fd5b81356113618161151a565b60008060006080848603121561160357600080fd5b833592506114c6602085016113ff565b6000806040838503121561162657600080fd5b61162f83611330565b915061163d602084016113ff565b90509250929050565b604081016105f18284805167ffffffffffffffff908116835260209182015116910152565b60006020828403121561167d57600080fd5b5035919050565b60038110611694576116946113ae565b9052565b6001600160a01b038616815260ff8516602082015260a081016116be6040830186611684565b6116c7846113c4565b8360608301526116d6836113c4565b8260808301529695505050505050565b600080600080606085870312156116fc57600080fd5b61170585611330565b9350602085013567ffffffffffffffff8082111561172257600080fd5b818701915087601f83011261173657600080fd5b81358181111561174557600080fd5b88602082850101111561175757600080fd5b60208301955080945050505060408501356117718161151a565b939692955090935050565b600181811c9082168061179057607f821691505b6020821081036117b057634e487b7160e01b600052602260045260246000fd5b50919050565b602081016105f18284611684565b6001600160a01b038716815260e0602082015260006117e660e0830188611368565b865167ffffffffffffffff9081166040850152602088015116606084015290506118136080830186611684565b67ffffffffffffffff841660a083015263ffffffff831660c0830152979650505050505050565b60006020828403121561184c57600080fd5b5051919050565b60208101611860836113c4565b91905290565b60ff841681526080810161187d6020830185611684565b825167ffffffffffffffff90811660408401526020840151166060830152949350505050565b60ff83168152604081016113616020830184611684565b60208152816020820152818360408301376000818301604090810191909152601f909201601f19160101919050565b601f8211156104ce57600081815260208120601f850160051c810160208610156119105750805b601f850160051c820191505b8181101561192f5782815560010161191c565b505050505050565b815167ffffffffffffffff8111156119515761195161140e565b6119658161195f845461177c565b846118e9565b602080601f83116001811461199a57600084156119825750858301515b600019600386901b1c1916600185901b17855561192f565b600085815260208120601f198616915b828110156119c9578886015182559484019460019091019084016119aa565b50858210156119e75787850151600019600388901b60f8161c191681555b5050505050600190811b01905550565b606081526000611a0a6060830186611368565b931515602083015250901515604090910152919050565b6020815260006113616020830184611368565b604081526000611a476040830185611368565b9050826020830152939250505056fe53746174757352656769737472793a2072657175657374696e67207a6b20636f6e73756d657220257353746174757352656769737472793a207265717565737420636f6e73756d65722e20497320697420636861696e6c696e6b2025732c206973206974205a4b20257353746174757352656769737472793a207265717565737420636861696e6c696e6b20636f6e73756d6572a26469706673582212204d4a8289e09150f24b710db40d5ec36a071105fb709ba39275dde4e0afb6a17d64736f6c63430008140033",
  "linkReferences": {},
  "deployedLinkReferences": {}
}