{
  "_format": "hh-sol-artifact-1",
  "contractName": "Verifier",
  "sourceName": "contracts/Verifier.sol",
  "abi": [
    {
      "inputs": [
        {
          "internalType": "uint8",
          "name": "_id",
          "type": "uint8"
        },
        {
          "internalType": "address",
          "name": "_statusRegistryAddress",
          "type": "address"
        }
      ],
      "stateMutability": "nonpayable",
      "type": "constructor"
    },
    {
      "inputs": [
        {
          "internalType": "enum StatusState.StatusType",
          "name": "statusType",
          "type": "uint8"
        }
      ],
      "name": "InvalidStatusType",
      "type": "error"
    },
    {
      "anonymous": false,
      "inputs": [
        {
          "indexed": false,
          "internalType": "StatusState.IssuerId",
          "name": "issuerId",
          "type": "uint8"
        },
        {
          "indexed": false,
          "internalType": "enum StatusState.StatusType",
          "name": "statusType",
          "type": "uint8"
        }
      ],
      "name": "StatusUpdated",
      "type": "event"
    },
    {
      "inputs": [
        {
          "internalType": "StatusState.IssuerId",
          "name": "",
          "type": "uint8"
        }
      ],
      "name": "blsIssuanceStatus",
      "outputs": [
        {
          "internalType": "uint64",
          "name": "time",
          "type": "uint64"
        },
        {
          "internalType": "uint64",
          "name": "status",
          "type": "uint64"
        }
      ],
      "stateMutability": "view",
      "type": "function"
    },
    {
      "inputs": [
        {
          "internalType": "StatusState.IssuerId",
          "name": "",
          "type": "uint8"
        }
      ],
      "name": "blsRevocationStatus",
      "outputs": [
        {
          "internalType": "uint64",
          "name": "time",
          "type": "uint64"
        },
        {
          "internalType": "uint64",
          "name": "status",
          "type": "uint64"
        }
      ],
      "stateMutability": "view",
      "type": "function"
    },
    {
      "inputs": [
        {
          "internalType": "StatusState.IssuerId",
          "name": "issuerId",
          "type": "uint8"
        },
        {
          "internalType": "enum StatusState.StatusType",
          "name": "statusType",
          "type": "uint8"
        },
        {
          "components": [
            {
              "internalType": "uint64",
              "name": "time",
              "type": "uint64"
            },
            {
              "internalType": "uint64",
              "name": "status",
              "type": "uint64"
            }
          ],
          "internalType": "struct StatusState.BSLStatus",
          "name": "status",
          "type": "tuple"
        }
      ],
      "name": "fulfillBSLStatus",
      "outputs": [],
      "stateMutability": "nonpayable",
      "type": "function"
    },
    {
      "inputs": [
        {
          "internalType": "StatusState.IssuerId",
          "name": "issuerId",
          "type": "uint8"
        },
        {
          "internalType": "enum StatusState.StatusType",
          "name": "statusType",
          "type": "uint8"
        }
      ],
      "name": "getBSLStatus",
      "outputs": [
        {
          "components": [
            {
              "internalType": "uint64",
              "name": "time",
              "type": "uint64"
            },
            {
              "internalType": "uint64",
              "name": "status",
              "type": "uint64"
            }
          ],
          "internalType": "struct StatusState.BSLStatus",
          "name": "",
          "type": "tuple"
        }
      ],
      "stateMutability": "view",
      "type": "function"
    },
    {
      "inputs": [],
      "name": "getId",
      "outputs": [
        {
          "internalType": "uint8",
          "name": "",
          "type": "uint8"
        }
      ],
      "stateMutability": "view",
      "type": "function"
    },
    {
      "inputs": [],
      "name": "getSubscriptionId",
      "outputs": [
        {
          "internalType": "uint64",
          "name": "",
          "type": "uint64"
        }
      ],
      "stateMutability": "view",
      "type": "function"
    },
    {
      "inputs": [],
      "name": "id",
      "outputs": [
        {
          "internalType": "uint8",
          "name": "",
          "type": "uint8"
        }
      ],
      "stateMutability": "view",
      "type": "function"
    },
    {
      "inputs": [
        {
          "internalType": "StatusState.IssuerId",
          "name": "",
          "type": "uint8"
        }
      ],
      "name": "issuers",
      "outputs": [
        {
          "internalType": "string",
          "name": "url",
          "type": "string"
        },
        {
          "internalType": "enum StatusState.StatusMechanism",
          "name": "statusMechanism",
          "type": "uint8"
        }
      ],
      "stateMutability": "view",
      "type": "function"
    },
    {
      "inputs": [],
      "name": "registryContract",
      "outputs": [
        {
          "internalType": "contract IStatusRegistry",
          "name": "",
          "type": "address"
        }
      ],
      "stateMutability": "view",
      "type": "function"
    },
    {
      "inputs": [
        {
          "internalType": "StatusState.IssuerId",
          "name": "issuerId",
          "type": "uint8"
        },
        {
          "internalType": "enum StatusState.StatusType",
          "name": "statusType",
          "type": "uint8"
        },
        {
          "internalType": "bool",
          "name": "refresh",
          "type": "bool"
        },
        {
          "internalType": "uint32",
          "name": "callbackGasLimit",
          "type": "uint32"
        }
      ],
      "name": "requestStatus",
      "outputs": [],
      "stateMutability": "nonpayable",
      "type": "function"
    },
    {
      "inputs": [
        {
          "internalType": "uint64",
          "name": "_subscriptionId",
          "type": "uint64"
        }
      ],
      "name": "setSubscriptionId",
      "outputs": [],
      "stateMutability": "nonpayable",
      "type": "function"
    },
    {
      "inputs": [],
      "name": "subscriptionId",
      "outputs": [
        {
          "internalType": "uint64",
          "name": "",
          "type": "uint64"
        }
      ],
      "stateMutability": "view",
      "type": "function"
    }
  ],
  "bytecode": "0x608060405234801561001057600080fd5b50604051610aa1380380610aa183398101604081905261002f9161006d565b600080546001600160a01b0390921669010000000000000000000260ff600160481b03600160e81b031990921660ff909316929092171790556100b9565b6000806040838503121561008057600080fd5b825160ff8116811461009157600080fd5b60208401519092506001600160a01b03811681146100ae57600080fd5b809150509250929050565b6109d9806100c86000396000f3fe608060405234801561001057600080fd5b50600436106100d45760003560e01c80639d91ab7111610081578063d336d8731161005b578063d336d87314610267578063de3d9fb7146102a1578063ea7b4f77146102b857600080fd5b80639d91ab71146101ec5780639e78434e14610247578063af640d0f1461025a57600080fd5b80635d1ca631116100b25780635d1ca631146101835780636e57e3751461019c57806395fdb23b146101b157600080fd5b806309c1ba2e146100d95780630db21b2c1461011057806328c1f99b14610131575b600080fd5b6000546100f290610100900467ffffffffffffffff1681565b60405167ffffffffffffffff90911681526020015b60405180910390f35b61012361011e36600461069d565b6102f0565b6040516101079291906106d5565b60005461015e906901000000000000000000900473ffffffffffffffffffffffffffffffffffffffff1681565b60405173ffffffffffffffffffffffffffffffffffffffff9091168152602001610107565b60005460ff165b60405160ff9091168152602001610107565b6101af6101aa366004610761565b610397565b005b6101c46101bf366004610803565b6104b1565b60408051825167ffffffffffffffff9081168252602093840151169281019290925201610107565b6102266101fa36600461069d565b60026020526000908152604090205467ffffffffffffffff808216916801000000000000000090041682565b6040805167ffffffffffffffff938416815292909116602083015201610107565b6101af610255366004610836565b6105c4565b60005461018a9060ff1681565b61022661027536600461069d565b60036020526000908152604090205467ffffffffffffffff808216916801000000000000000090041682565b600054610100900467ffffffffffffffff166100f2565b6101af6102c636600461089c565b6000805467ffffffffffffffff9092166101000268ffffffffffffffff0019909216919091179055565b60016020526000908152604090208054819061030b906108b7565b80601f0160208091040260200160405190810160405280929190818152602001828054610337906108b7565b80156103845780601f1061035957610100808354040283529160200191610384565b820191906000526020600020905b81548152906001019060200180831161036757829003601f168201915b5050506001909301549192505060ff1682565b60018260028111156103ab576103ab6106bf565b036104075760ff83166000908152600260209081526040909120825181549284015167ffffffffffffffff90811668010000000000000000026fffffffffffffffffffffffffffffffff19909416911617919091179055610473565b600282600281111561041b5761041b6106bf565b036104735760ff83166000908152600360209081526040909120825181549284015167ffffffffffffffff90811668010000000000000000026fffffffffffffffffffffffffffffffff199094169116179190911790555b7f84950c1c14f7f37b4e67d58ad2a95ad1e04ad8954e4417799095a4f0e9c74f7283836040516104a4929190610905565b60405180910390a1505050565b604080518082019091526000808252602082015260018260028111156104d9576104d96106bf565b03610523575060ff821660009081526002602090815260409182902082518084019093525467ffffffffffffffff80821684526801000000000000000090910416908201526105be565b6002826002811115610537576105376106bf565b03610581575060ff821660009081526003602090815260409182902082518084019093525467ffffffffffffffff80821684526801000000000000000090910416908201526105be565b816040517f4ac151050000000000000000000000000000000000000000000000000000000081526004016105b5919061091c565b60405180910390fd5b92915050565b6000546040517f93ba193a0000000000000000000000000000000000000000000000000000000081526901000000000000000000820473ffffffffffffffffffffffffffffffffffffffff16916393ba193a9161063d913091899189918991610100900467ffffffffffffffff1690899060040161092a565b6020604051808303816000875af115801561065c573d6000803e3d6000fd5b505050506040513d601f19601f82011682018060405250810190610680919061098a565b5050505050565b803560ff8116811461069857600080fd5b919050565b6000602082840312156106af57600080fd5b6106b882610687565b9392505050565b634e487b7160e01b600052602160045260246000fd5b604081526000835180604084015260005b8181101561070357602081870181015160608684010152016106e6565b506000606082850101526060601f19601f8301168401019150506002831061072d5761072d6106bf565b8260208301529392505050565b80356003811061069857600080fd5b803567ffffffffffffffff8116811461069857600080fd5b6000806000838503608081121561077757600080fd5b61078085610687565b935061078e6020860161073a565b92506040603f19820112156107a257600080fd5b506040516040810181811067ffffffffffffffff821117156107d457634e487b7160e01b600052604160045260246000fd5b80604052506107e560408601610749565b81526107f360608601610749565b6020820152809150509250925092565b6000806040838503121561081657600080fd5b61081f83610687565b915061082d6020840161073a565b90509250929050565b6000806000806080858703121561084c57600080fd5b61085585610687565b93506108636020860161073a565b92506040850135801515811461087857600080fd5b9150606085013563ffffffff8116811461089157600080fd5b939692955090935050565b6000602082840312156108ae57600080fd5b6106b882610749565b600181811c908216806108cb57607f821691505b6020821081036108eb57634e487b7160e01b600052602260045260246000fd5b50919050565b60038110610901576109016106bf565b9052565b60ff83168152604081016106b860208301846108f1565b602081016105be82846108f1565b73ffffffffffffffffffffffffffffffffffffffff8716815260ff8616602082015260c0810161095d60408301876108f1565b931515606082015267ffffffffffffffff92909216608083015263ffffffff1660a0909101529392505050565b60006020828403121561099c57600080fd5b505191905056fea26469706673582212200c130427f74f1ea602573f3fa2094a3db1a5fb40678ab810ab654e8959abd6b564736f6c63430008140033",
  "linkReferences": {},
  "deployedLinkReferences": {}
}