{
  "_format": "hh-sol-artifact-1",
  "contractName": "Verifier",
  "sourceName": "contracts/Verifier.sol",
  "abi": [
    {
      "inputs": [
        {
          "internalType": "uint8",
          "name": "_id",
          "type": "uint8"
        },
        {
          "internalType": "address",
          "name": "_statusRegistryAddress",
          "type": "address"
        }
      ],
      "stateMutability": "nonpayable",
      "type": "constructor"
    },
    {
      "inputs": [
        {
          "internalType": "enum StatusState.StatusType",
          "name": "statusType",
          "type": "uint8"
        }
      ],
      "name": "InvalidStatusType",
      "type": "error"
    },
    {
      "anonymous": false,
      "inputs": [
        {
          "indexed": false,
          "internalType": "StatusState.IssuerId",
          "name": "issuerId",
          "type": "uint8"
        },
        {
          "indexed": false,
          "internalType": "enum StatusState.StatusType",
          "name": "statusType",
          "type": "uint8"
        }
      ],
      "name": "StatusUpdated",
      "type": "event"
    },
    {
      "inputs": [
        {
          "internalType": "StatusState.IssuerId",
          "name": "",
          "type": "uint8"
        }
      ],
      "name": "blsIssuanceStatus",
      "outputs": [
        {
          "internalType": "uint64",
          "name": "time",
          "type": "uint64"
        },
        {
          "internalType": "uint64",
          "name": "status",
          "type": "uint64"
        }
      ],
      "stateMutability": "view",
      "type": "function"
    },
    {
      "inputs": [
        {
          "internalType": "StatusState.IssuerId",
          "name": "",
          "type": "uint8"
        }
      ],
      "name": "blsRevocationStatus",
      "outputs": [
        {
          "internalType": "uint64",
          "name": "time",
          "type": "uint64"
        },
        {
          "internalType": "uint64",
          "name": "status",
          "type": "uint64"
        }
      ],
      "stateMutability": "view",
      "type": "function"
    },
    {
      "inputs": [
        {
          "internalType": "StatusState.IssuerId",
          "name": "issuerId",
          "type": "uint8"
        },
        {
          "internalType": "enum StatusState.StatusType",
          "name": "statusType",
          "type": "uint8"
        },
        {
          "components": [
            {
              "internalType": "uint64",
              "name": "time",
              "type": "uint64"
            },
            {
              "internalType": "uint64",
              "name": "status",
              "type": "uint64"
            }
          ],
          "internalType": "struct StatusState.BSLStatus",
          "name": "status",
          "type": "tuple"
        }
      ],
      "name": "fulfillBSLStatus",
      "outputs": [],
      "stateMutability": "nonpayable",
      "type": "function"
    },
    {
      "inputs": [
        {
          "internalType": "StatusState.IssuerId",
          "name": "issuerId",
          "type": "uint8"
        },
        {
          "internalType": "enum StatusState.StatusType",
          "name": "statusType",
          "type": "uint8"
        }
      ],
      "name": "getBSLStatus",
      "outputs": [
        {
          "components": [
            {
              "internalType": "uint64",
              "name": "time",
              "type": "uint64"
            },
            {
              "internalType": "uint64",
              "name": "status",
              "type": "uint64"
            }
          ],
          "internalType": "struct StatusState.BSLStatus",
          "name": "",
          "type": "tuple"
        }
      ],
      "stateMutability": "view",
      "type": "function"
    },
    {
      "inputs": [],
      "name": "getId",
      "outputs": [
        {
          "internalType": "uint8",
          "name": "",
          "type": "uint8"
        }
      ],
      "stateMutability": "view",
      "type": "function"
    },
    {
      "inputs": [],
      "name": "getSubscriptionId",
      "outputs": [
        {
          "internalType": "uint64",
          "name": "",
          "type": "uint64"
        }
      ],
      "stateMutability": "view",
      "type": "function"
    },
    {
      "inputs": [],
      "name": "id",
      "outputs": [
        {
          "internalType": "uint8",
          "name": "",
          "type": "uint8"
        }
      ],
      "stateMutability": "view",
      "type": "function"
    },
    {
      "inputs": [
        {
          "internalType": "StatusState.IssuerId",
          "name": "",
          "type": "uint8"
        }
      ],
      "name": "issuers",
      "outputs": [
        {
          "internalType": "string",
          "name": "url",
          "type": "string"
        },
        {
          "internalType": "enum StatusState.StatusMechanism",
          "name": "statusMechanism",
          "type": "uint8"
        }
      ],
      "stateMutability": "view",
      "type": "function"
    },
    {
      "inputs": [],
      "name": "registryContract",
      "outputs": [
        {
          "internalType": "contract IStatusRegistry",
          "name": "",
          "type": "address"
        }
      ],
      "stateMutability": "view",
      "type": "function"
    },
    {
      "inputs": [
        {
          "internalType": "StatusState.IssuerId",
          "name": "issuerId",
          "type": "uint8"
        },
        {
          "internalType": "enum StatusState.StatusType",
          "name": "statusType",
          "type": "uint8"
        },
        {
          "internalType": "bool",
          "name": "refresh",
          "type": "bool"
        },
        {
          "internalType": "enum OracleType",
          "name": "oracleType",
          "type": "uint8"
        },
        {
          "internalType": "uint32",
          "name": "callbackGasLimit",
          "type": "uint32"
        }
      ],
      "name": "requestStatus",
      "outputs": [],
      "stateMutability": "nonpayable",
      "type": "function"
    },
    {
      "inputs": [
        {
          "internalType": "uint64",
          "name": "_subscriptionId",
          "type": "uint64"
        }
      ],
      "name": "setSubscriptionId",
      "outputs": [],
      "stateMutability": "nonpayable",
      "type": "function"
    },
    {
      "inputs": [],
      "name": "subscriptionId",
      "outputs": [
        {
          "internalType": "uint64",
          "name": "",
          "type": "uint64"
        }
      ],
      "stateMutability": "view",
      "type": "function"
    }
  ],
  "bytecode": "0x608060405234801561001057600080fd5b50604051610b91380380610b9183398101604081905261002f9161006d565b600080546001600160a01b0390921669010000000000000000000260ff600160481b03600160e81b031990921660ff909316929092171790556100b9565b6000806040838503121561008057600080fd5b825160ff8116811461009157600080fd5b60208401519092506001600160a01b03811681146100ae57600080fd5b809150509250929050565b610ac9806100c86000396000f3fe608060405234801561001057600080fd5b50600436106100d45760003560e01c806395fdb23b11610081578063d336d8731161005b578063d336d87314610267578063de3d9fb7146102a1578063ea7b4f77146102b857600080fd5b806395fdb23b146101c45780639d91ab71146101ff578063af640d0f1461025a57600080fd5b80635d1ca631116100b25780635d1ca631146101835780636e57e3751461019c57806395ba6027146101b157600080fd5b806309c1ba2e146100d95780630db21b2c1461011057806328c1f99b14610131575b600080fd5b6000546100f290610100900467ffffffffffffffff1681565b60405167ffffffffffffffff90911681526020015b60405180910390f35b61012361011e366004610759565b6102f0565b6040516101079291906107a1565b60005461015e906901000000000000000000900473ffffffffffffffffffffffffffffffffffffffff1681565b60405173ffffffffffffffffffffffffffffffffffffffff9091168152602001610107565b60005460ff165b60405160ff9091168152602001610107565b6101af6101aa366004610826565b610397565b005b6101af6101bf3660046108c8565b6104b1565b6101d76101d2366004610947565b610595565b60408051825167ffffffffffffffff9081168252602093840151169281019290925201610107565b61023961020d366004610759565b60026020526000908152604090205467ffffffffffffffff808216916801000000000000000090041682565b6040805167ffffffffffffffff938416815292909116602083015201610107565b60005461018a9060ff1681565b610239610275366004610759565b60036020526000908152604090205467ffffffffffffffff808216916801000000000000000090041682565b600054610100900467ffffffffffffffff166100f2565b6101af6102c636600461097a565b6000805467ffffffffffffffff9092166101000268ffffffffffffffff0019909216919091179055565b60016020526000908152604090208054819061030b90610995565b80601f016020809104026020016040519081016040528092919081815260200182805461033790610995565b80156103845780601f1061035957610100808354040283529160200191610384565b820191906000526020600020905b81548152906001019060200180831161036757829003601f168201915b5050506001909301549192505060ff1682565b60018260028111156103ab576103ab61077b565b036104075760ff83166000908152600260209081526040909120825181549284015167ffffffffffffffff90811668010000000000000000026fffffffffffffffffffffffffffffffff19909416911617919091179055610473565b600282600281111561041b5761041b61077b565b036104735760ff83166000908152600360209081526040909120825181549284015167ffffffffffffffff90811668010000000000000000026fffffffffffffffffffffffffffffffff199094169116179190911790555b7f84950c1c14f7f37b4e67d58ad2a95ad1e04ad8954e4417799095a4f0e9c74f7283836040516104a49291906109e3565b60405180910390a1505050565b6104ce8260018111156104c6576104c661077b565b60ff166106a8565b6000546040517f42e6c2aa0000000000000000000000000000000000000000000000000000000081526901000000000000000000820473ffffffffffffffffffffffffffffffffffffffff16916342e6c2aa9161054a9130918a918a918a918a9161010090910467ffffffffffffffff16908a906004016109fa565b6020604051808303816000875af1158015610569573d6000803e3d6000fd5b505050506040513d601f19601f8201168201806040525081019061058d9190610a6c565b505050505050565b604080518082019091526000808252602082015260018260028111156105bd576105bd61077b565b03610607575060ff821660009081526002602090815260409182902082518084019093525467ffffffffffffffff80821684526801000000000000000090910416908201526106a2565b600282600281111561061b5761061b61077b565b03610665575060ff821660009081526003602090815260409182902082518084019093525467ffffffffffffffff80821684526801000000000000000090910416908201526106a2565b816040517f4ac151050000000000000000000000000000000000000000000000000000000081526004016106999190610a85565b60405180910390fd5b92915050565b61071b816040516024016106be91815260200190565b60408051601f198184030181529190526020810180517bffffffffffffffffffffffffffffffffffffffffffffffffffffffff167ff82c50f10000000000000000000000000000000000000000000000000000000017905261071e565b50565b61071b8160006a636f6e736f6c652e6c6f679050600080835160208501845afa505050565b803560ff8116811461075457600080fd5b919050565b60006020828403121561076b57600080fd5b61077482610743565b9392505050565b634e487b7160e01b600052602160045260246000fd5b6002811061071b5761071b61077b565b604081526000835180604084015260005b818110156107cf57602081870181015160608684010152016107b2565b506000606082850101526060601f19601f8301168401019150506107f283610791565b8260208301529392505050565b80356003811061075457600080fd5b803567ffffffffffffffff8116811461075457600080fd5b6000806000838503608081121561083c57600080fd5b61084585610743565b9350610853602086016107ff565b92506040603f198201121561086757600080fd5b506040516040810181811067ffffffffffffffff8211171561089957634e487b7160e01b600052604160045260246000fd5b80604052506108aa6040860161080e565b81526108b86060860161080e565b6020820152809150509250925092565b600080600080600060a086880312156108e057600080fd5b6108e986610743565b94506108f7602087016107ff565b93506040860135801515811461090c57600080fd5b925060608601356002811061092057600080fd5b9150608086013563ffffffff8116811461093957600080fd5b809150509295509295909350565b6000806040838503121561095a57600080fd5b61096383610743565b9150610971602084016107ff565b90509250929050565b60006020828403121561098c57600080fd5b6107748261080e565b600181811c908216806109a957607f821691505b6020821081036109c957634e487b7160e01b600052602260045260246000fd5b50919050565b600381106109df576109df61077b565b9052565b60ff831681526040810161077460208301846109cf565b73ffffffffffffffffffffffffffffffffffffffff8816815260ff8716602082015260e08101610a2d60408301886109cf565b8515156060830152610a3e85610791565b84608083015267ffffffffffffffff841660a083015263ffffffff831660c083015298975050505050505050565b600060208284031215610a7e57600080fd5b5051919050565b602081016106a282846109cf56fea2646970667358221220a959699a23d70542379066f60e591a61c8d7442556280e51a516425a7e5fda4564736f6c63430008140033",
  "linkReferences": {},
  "deployedLinkReferences": {}
}