{
  "_format": "hh-sol-artifact-1",
  "contractName": "ZKOracleManager",
  "sourceName": "contracts/ZKOracleManager.sol",
  "abi": [
    {
      "inputs": [
        {
          "internalType": "uint8",
          "name": "_numAggregators",
          "type": "uint8"
        },
        {
          "internalType": "uint8",
          "name": "_numAgreements",
          "type": "uint8"
        }
      ],
      "stateMutability": "nonpayable",
      "type": "constructor"
    },
    {
      "inputs": [
        {
          "internalType": "uint64",
          "name": "token",
          "type": "uint64"
        }
      ],
      "name": "InvalidDeposit",
      "type": "error"
    },
    {
      "inputs": [
        {
          "internalType": "string",
          "name": "url",
          "type": "string"
        }
      ],
      "name": "InvalidUrl",
      "type": "error"
    },
    {
      "inputs": [
        {
          "internalType": "uint256",
          "name": "oracleId",
          "type": "uint256"
        }
      ],
      "name": "OracleAlreadyExists",
      "type": "error"
    },
    {
      "inputs": [
        {
          "internalType": "uint256",
          "name": "oracleId",
          "type": "uint256"
        }
      ],
      "name": "OracleNotFound",
      "type": "error"
    },
    {
      "inputs": [
        {
          "internalType": "bytes32",
          "name": "requestId",
          "type": "bytes32"
        }
      ],
      "name": "RequestNotFound",
      "type": "error"
    },
    {
      "inputs": [
        {
          "internalType": "enum StatusState.StatusMechanism",
          "name": "",
          "type": "uint8"
        }
      ],
      "name": "UnsupportedStatusMechanism",
      "type": "error"
    },
    {
      "anonymous": false,
      "inputs": [
        {
          "components": [
            {
              "internalType": "uint8",
              "name": "id",
              "type": "uint8"
            },
            {
              "internalType": "address",
              "name": "oracleAddress",
              "type": "address"
            },
            {
              "internalType": "string",
              "name": "url",
              "type": "string"
            },
            {
              "internalType": "uint64",
              "name": "amount",
              "type": "uint64"
            }
          ],
          "indexed": false,
          "internalType": "struct ZKOracleManager.Oracle",
          "name": "oracle",
          "type": "tuple"
        }
      ],
      "name": "OracleAdded",
      "type": "event"
    },
    {
      "anonymous": false,
      "inputs": [
        {
          "indexed": false,
          "internalType": "bytes32",
          "name": "requestId",
          "type": "bytes32"
        }
      ],
      "name": "RequestReceived",
      "type": "event"
    },
    {
      "anonymous": false,
      "inputs": [
        {
          "indexed": false,
          "internalType": "bytes32",
          "name": "requestId",
          "type": "bytes32"
        },
        {
          "indexed": false,
          "internalType": "bytes",
          "name": "response",
          "type": "bytes"
        },
        {
          "indexed": false,
          "internalType": "bytes",
          "name": "err",
          "type": "bytes"
        }
      ],
      "name": "ResponseReceived",
      "type": "event"
    },
    {
      "anonymous": false,
      "inputs": [
        {
          "indexed": false,
          "internalType": "bytes32",
          "name": "requestId",
          "type": "bytes32"
        },
        {
          "indexed": false,
          "internalType": "uint64",
          "name": "time",
          "type": "uint64"
        },
        {
          "indexed": false,
          "internalType": "uint64",
          "name": "status",
          "type": "uint64"
        }
      ],
      "name": "StatusReceived",
      "type": "event"
    },
    {
      "inputs": [
        {
          "internalType": "uint8",
          "name": "oracleId",
          "type": "uint8"
        },
        {
          "internalType": "string",
          "name": "url",
          "type": "string"
        },
        {
          "internalType": "uint64",
          "name": "amount",
          "type": "uint64"
        }
      ],
      "name": "addOracle",
      "outputs": [],
      "stateMutability": "nonpayable",
      "type": "function"
    },
    {
      "inputs": [],
      "name": "currentAggregatorIndex",
      "outputs": [
        {
          "internalType": "uint8",
          "name": "",
          "type": "uint8"
        }
      ],
      "stateMutability": "view",
      "type": "function"
    },
    {
      "inputs": [
        {
          "internalType": "bytes32",
          "name": "requestId",
          "type": "bytes32"
        },
        {
          "internalType": "bytes",
          "name": "response",
          "type": "bytes"
        },
        {
          "internalType": "bytes",
          "name": "err",
          "type": "bytes"
        }
      ],
      "name": "fulfillRequestWithAllStatuses",
      "outputs": [],
      "stateMutability": "nonpayable",
      "type": "function"
    },
    {
      "inputs": [
        {
          "internalType": "bytes32",
          "name": "requestId",
          "type": "bytes32"
        },
        {
          "internalType": "bytes",
          "name": "response",
          "type": "bytes"
        },
        {
          "internalType": "bytes",
          "name": "err",
          "type": "bytes"
        }
      ],
      "name": "fulfillRequestWithLastStatus",
      "outputs": [],
      "stateMutability": "nonpayable",
      "type": "function"
    },
    {
      "inputs": [],
      "name": "getNumOracles",
      "outputs": [
        {
          "internalType": "uint256",
          "name": "",
          "type": "uint256"
        }
      ],
      "stateMutability": "view",
      "type": "function"
    },
    {
      "inputs": [
        {
          "internalType": "uint8",
          "name": "oracleId",
          "type": "uint8"
        }
      ],
      "name": "getOracle",
      "outputs": [
        {
          "components": [
            {
              "internalType": "uint8",
              "name": "id",
              "type": "uint8"
            },
            {
              "internalType": "address",
              "name": "oracleAddress",
              "type": "address"
            },
            {
              "internalType": "string",
              "name": "url",
              "type": "string"
            },
            {
              "internalType": "uint64",
              "name": "amount",
              "type": "uint64"
            }
          ],
          "internalType": "struct ZKOracleManager.Oracle",
          "name": "",
          "type": "tuple"
        }
      ],
      "stateMutability": "view",
      "type": "function"
    },
    {
      "inputs": [],
      "name": "getOracles",
      "outputs": [
        {
          "components": [
            {
              "internalType": "uint8",
              "name": "id",
              "type": "uint8"
            },
            {
              "internalType": "address",
              "name": "oracleAddress",
              "type": "address"
            },
            {
              "internalType": "string",
              "name": "url",
              "type": "string"
            },
            {
              "internalType": "uint64",
              "name": "amount",
              "type": "uint64"
            }
          ],
          "internalType": "struct ZKOracleManager.Oracle[]",
          "name": "",
          "type": "tuple[]"
        }
      ],
      "stateMutability": "view",
      "type": "function"
    },
    {
      "inputs": [
        {
          "internalType": "bytes32",
          "name": "requestId",
          "type": "bytes32"
        }
      ],
      "name": "getRequestById",
      "outputs": [
        {
          "components": [
            {
              "internalType": "bytes32",
              "name": "requestId",
              "type": "bytes32"
            },
            {
              "internalType": "address",
              "name": "requesterAddress",
              "type": "address"
            },
            {
              "internalType": "string",
              "name": "url",
              "type": "string"
            },
            {
              "components": [
                {
                  "internalType": "uint64",
                  "name": "time",
                  "type": "uint64"
                },
                {
                  "internalType": "uint64",
                  "name": "status",
                  "type": "uint64"
                }
              ],
              "internalType": "struct StatusState.BSLStatus",
              "name": "lastStatusState",
              "type": "tuple"
            },
            {
              "internalType": "enum StatusState.StatusType",
              "name": "statusType",
              "type": "uint8"
            },
            {
              "internalType": "enum StatusState.StatusMechanism",
              "name": "statusMechanism",
              "type": "uint8"
            },
            {
              "internalType": "uint64",
              "name": "subscriptionId",
              "type": "uint64"
            },
            {
              "internalType": "uint32",
              "name": "callbackGasLimit",
              "type": "uint32"
            },
            {
              "internalType": "uint8[]",
              "name": "aggregatorIds",
              "type": "uint8[]"
            },
            {
              "internalType": "uint8",
              "name": "numAgreements",
              "type": "uint8"
            }
          ],
          "internalType": "struct ZKOracleManager.Request",
          "name": "",
          "type": "tuple"
        }
      ],
      "stateMutability": "view",
      "type": "function"
    },
    {
      "inputs": [],
      "name": "numAggregators",
      "outputs": [
        {
          "internalType": "uint8",
          "name": "",
          "type": "uint8"
        }
      ],
      "stateMutability": "view",
      "type": "function"
    },
    {
      "inputs": [],
      "name": "numAgreements",
      "outputs": [
        {
          "internalType": "uint8",
          "name": "",
          "type": "uint8"
        }
      ],
      "stateMutability": "view",
      "type": "function"
    },
    {
      "inputs": [
        {
          "internalType": "uint256",
          "name": "",
          "type": "uint256"
        }
      ],
      "name": "oracleIds",
      "outputs": [
        {
          "internalType": "uint8",
          "name": "",
          "type": "uint8"
        }
      ],
      "stateMutability": "view",
      "type": "function"
    },
    {
      "inputs": [
        {
          "internalType": "uint8",
          "name": "",
          "type": "uint8"
        }
      ],
      "name": "oracles",
      "outputs": [
        {
          "internalType": "uint8",
          "name": "id",
          "type": "uint8"
        },
        {
          "internalType": "address",
          "name": "oracleAddress",
          "type": "address"
        },
        {
          "internalType": "string",
          "name": "url",
          "type": "string"
        },
        {
          "internalType": "uint64",
          "name": "amount",
          "type": "uint64"
        }
      ],
      "stateMutability": "view",
      "type": "function"
    },
    {
      "inputs": [
        {
          "internalType": "address",
          "name": "requesterAddress",
          "type": "address"
        },
        {
          "internalType": "string",
          "name": "url",
          "type": "string"
        },
        {
          "components": [
            {
              "internalType": "uint64",
              "name": "time",
              "type": "uint64"
            },
            {
              "internalType": "uint64",
              "name": "status",
              "type": "uint64"
            }
          ],
          "internalType": "struct StatusState.BSLStatus",
          "name": "lastStatusState",
          "type": "tuple"
        },
        {
          "internalType": "enum StatusState.StatusType",
          "name": "statusType",
          "type": "uint8"
        },
        {
          "internalType": "uint64",
          "name": "subscriptionId",
          "type": "uint64"
        },
        {
          "internalType": "uint32",
          "name": "callbackGasLimit",
          "type": "uint32"
        }
      ],
      "name": "requestBSLStatus",
      "outputs": [
        {
          "internalType": "bytes32",
          "name": "",
          "type": "bytes32"
        }
      ],
      "stateMutability": "nonpayable",
      "type": "function"
    },
    {
      "inputs": [
        {
          "internalType": "uint256",
          "name": "",
          "type": "uint256"
        }
      ],
      "name": "requests",
      "outputs": [
        {
          "internalType": "bytes32",
          "name": "requestId",
          "type": "bytes32"
        },
        {
          "internalType": "address",
          "name": "requesterAddress",
          "type": "address"
        },
        {
          "internalType": "string",
          "name": "url",
          "type": "string"
        },
        {
          "components": [
            {
              "internalType": "uint64",
              "name": "time",
              "type": "uint64"
            },
            {
              "internalType": "uint64",
              "name": "status",
              "type": "uint64"
            }
          ],
          "internalType": "struct StatusState.BSLStatus",
          "name": "lastStatusState",
          "type": "tuple"
        },
        {
          "internalType": "enum StatusState.StatusType",
          "name": "statusType",
          "type": "uint8"
        },
        {
          "internalType": "enum StatusState.StatusMechanism",
          "name": "statusMechanism",
          "type": "uint8"
        },
        {
          "internalType": "uint64",
          "name": "subscriptionId",
          "type": "uint64"
        },
        {
          "internalType": "uint32",
          "name": "callbackGasLimit",
          "type": "uint32"
        },
        {
          "internalType": "uint8",
          "name": "numAgreements",
          "type": "uint8"
        }
      ],
      "stateMutability": "view",
      "type": "function"
    }
  ],
  "bytecode": "0x60806040523480156200001157600080fd5b506040516200279f3803806200279f833981016040819052620000349162000072565b6003805460ff928316620100000262ffffff199091169390921692909217179055620000aa565b805160ff811681146200006d57600080fd5b919050565b600080604083850312156200008657600080fd5b62000091836200005b565b9150620000a1602084016200005b565b90509250929050565b6126e580620000ba6000396000f3fe608060405234801561001057600080fd5b50600436106100ea5760003560e01c806348159d761161008c5780637e83c953116100665780637e83c953146101e157806381d12c58146101f4578063b12e37481461021c578063cb0347271461023c57600080fd5b806348159d76146101995780636b3de885146101ac5780636cc7a670146101cf57600080fd5b806330c344f7116100c857806330c344f71461015257806340504d2a1461016457806340884c521461017157806342ad0c6a1461018657600080fd5b80631569aaf9146100ef5780631b1ac1941461011857806324d46dc11461012d575b600080fd5b6101026100fd3660046119f8565b61024f565b60405161010f9190611abf565b60405180910390f35b61012b610126366004611be4565b6103ad565b005b6003546101409062010000900460ff1681565b60405160ff909116815260200161010f565b6001545b60405190815260200161010f565b6003546101409060ff1681565b610179610659565b60405161010f9190611c51565b610156610194366004611d18565b61082e565b61012b6101a7366004611dde565b610b9f565b6101bf6101ba3660046119f8565b610f35565b60405161010f9493929190611e42565b60035461014090610100900460ff1681565b61012b6101ef366004611be4565b610ffe565b610207610202366004611e88565b6111fc565b60405161010f99989796959493929190611edb565b61022f61022a366004611e88565b611332565b60405161010f9190611fb8565b61014061024a366004611e88565b611638565b6040805160808101825260008082526020820181905260609282018390529181019190915260ff8281166000908152602081815260408083208151608081018352815495861681526101009095046001600160a01b031692850192909252600182018054939493918401916102c3906120c0565b80601f01602080910402602001604051908101604052809291908181526020018280546102ef906120c0565b801561033c5780601f106103115761010080835404028352916020019161033c565b820191906000526020600020905b81548152906001019060200180831161031f57829003601f168201915b50505091835250506002919091015467ffffffffffffffff166020909101526040810151519091506000036103a7576040517f4bce26dd00000000000000000000000000000000000000000000000000000000815260ff841660048201526024015b60405180910390fd5b92915050565b604051631625c6e960e31b815260048101849052600090309063b12e374890602401600060405180830381865afa1580156103ec573d6000803e3d6000fd5b505050506040513d6000823e601f3d908101601f19168201604052610414919081019061225c565b905060008160a00151600181111561042e5761042e611ea1565b036105e0576020810151835115610565576000848060200190518101906104559190612374565b905060005b81518160ff16101561055e576000828260ff168151811061047d5761047d612410565b602002602001015190507f85893da7594ef2dcffd5e43bf4990385d1b69d8ba7d70d9fd6e7373782a9b12988826000015183602001516040516104dd9392919092835267ffffffffffffffff918216602084015216604082015260600190565b60405180910390a160808501516040516360646b5760e01b81526001600160a01b038616916360646b5791610518918c918690600401612426565b600060405180830381600087803b15801561053257600080fd5b505af1158015610546573d6000803e3d6000fd5b5050505050808061055690612473565b91505061045a565b50506105da565b60408051808201825260008082526020820181905291516360646b5760e01b81526001600160a01b038416926360646b57926105a7928a929190600401612426565b600060405180830381600087803b1580156105c157600080fd5b505af11580156105d5573d6000803e3d6000fd5b505050505b50610618565b8060a001516040517f9baba38000000000000000000000000000000000000000000000000000000000815260040161039e9190612492565b7f9075ab953f4b4f161e64109ef0a89af6572e9dae864980dd1f697f83da7f78c284848460405161064b939291906124a0565b60405180910390a150505050565b60015460609060009067ffffffffffffffff81111561067a5761067a611ad2565b6040519080825280602002602001820160405280156106cd57816020015b604080516080810182526000808252602080830182905260609383018490529282015282526000199092019101816106985790505b50905060005b60015481101561082857600080600183815481106106f3576106f3612410565b600091825260208083208183040154601f90921661010090810a90920460ff9081168552848201959095526040938401909220835160808101855281549586168152919094046001600160a01b03169181019190915260018301805491939284019161075e906120c0565b80601f016020809104026020016040519081016040528092919081815260200182805461078a906120c0565b80156107d75780601f106107ac576101008083540402835291602001916107d7565b820191906000526020600020905b8154815290600101906020018083116107ba57829003601f168201915b50505091835250506002919091015467ffffffffffffffff16602090910152825183908390811061080a5761080a612410565b60200260200101819052508080610820906124d5565b9150506106d3565b50919050565b600061086e6040518060400160405280601881526020017f5a4b204f7261636c653a2072657175657374537461747573000000000000000081525061166c565b60006108786116cb565b90506001600360018282829054906101000a900460ff1661089991906124ee565b92506101000a81548160ff021916908360ff160217905550600060028054905060001b905060006040518061014001604052808381526020018b6001600160a01b031681526020018a81526020018981526020018860028111156108ff576108ff611ea1565b81526000602080830182905267ffffffffffffffff8a1660408085019190915263ffffffff8a1660608501526080840188905260035462010000900460ff1660a09094019390935260028054600181018255925283517f405787fa12a823e0f2b7631cc41b3ba8828b3321ca811111fa75cd3aa3bb5ace6007909302928301908155908401517f405787fa12a823e0f2b7631cc41b3ba8828b3321ca811111fa75cd3aa3bb5acf830180547fffffffffffffffffffffffff0000000000000000000000000000000000000000166001600160a01b039092169190911790559183015192935083927f405787fa12a823e0f2b7631cc41b3ba8828b3321ca811111fa75cd3aa3bb5ad090910190610a159082612556565b506060820151805160038301805460209093015167ffffffffffffffff90811668010000000000000000027fffffffffffffffffffffffffffffffff00000000000000000000000000000000909416921691909117919091179055608082015160048201805460ff19166001836002811115610a9357610a93611ea1565b021790555060a082015160048201805461ff001916610100836001811115610abd57610abd611ea1565b021790555060c082015160048201805460e085015163ffffffff166a0100000000000000000000026dffffffff000000000000000000001967ffffffffffffffff9094166201000002939093166dffffffffffffffffffffffff000019909116179190911790556101008201518051610b409160058401916020909101906118a1565b5061012091909101516006909101805460ff191660ff9092169190911790556040518281527f01fec4a455e3c96956abfbcc392b36849c44e005cdd404e99f5247731e4e65bf9060200160405180910390a15098975050505050505050565b8151600003610bdc57816040517fb17265ae00000000000000000000000000000000000000000000000000000000815260040161039e9190612616565b8067ffffffffffffffff16600003610c2c576040517f37359ba600000000000000000000000000000000000000000000000000000000815267ffffffffffffffff8216600482015260240161039e565b60ff8381166000908152602081815260408083208151608081018352815495861681526101009095046001600160a01b03169285019290925260018201805493949391840191610c7b906120c0565b80601f0160208091040260200160405190810160405280929190818152602001828054610ca7906120c0565b8015610cf45780601f10610cc957610100808354040283529160200191610cf4565b820191906000526020600020905b815481529060010190602001808311610cd757829003601f168201915b50505091835250506002919091015467ffffffffffffffff1660209091015260408101515190915015610de3578360ff16816000015160ff16141580610d47575060208101516001600160a01b03163314155b80610da2575082604051602001610d5e9190612629565b604051602081830303815290604052805190602001208160400151604051602001610d899190612629565b6040516020818303038152906040528051906020012014155b15610dde576040517f1f4a2fc000000000000000000000000000000000000000000000000000000000815260ff8516600482015260240161039e565b610f2f565b6040805160808101825260ff80871680835233602080850191825284860189815267ffffffffffffffff89166060870152600093845290839052949091208351815492516001600160a01b0316610100027fffffffffffffffffffffff0000000000000000000000000000000000000000009093169316929092171781559151909182916001820190610e769082612556565b50606091909101516002909101805467ffffffffffffffff191667ffffffffffffffff9092169190911790556001805480820182556000919091527fb10e2d527612073b26eecdfd717e6a320cf44b4afac2b0732d9fcbe2b7fa0cf660208204018054601f9092166101000a60ff81810219909316928816029190911790556040517fddb3d8cc69f850a34efff34ec494596eaebc99a942d2363fa2ebcdfa87d4e53890610f25908390611abf565b60405180910390a1505b50505050565b6000602081905290815260409020805460018201805460ff8316936101009093046001600160a01b0316929190610f6b906120c0565b80601f0160208091040260200160405190810160405280929190818152602001828054610f97906120c0565b8015610fe45780601f10610fb957610100808354040283529160200191610fe4565b820191906000526020600020905b815481529060010190602001808311610fc757829003601f168201915b5050506002909301549192505067ffffffffffffffff1684565b604051631625c6e960e31b815260048101849052600090309063b12e374890602401600060405180830381865afa15801561103d573d6000803e3d6000fd5b505050506040513d6000823e601f3d908101601f19168201604052611065919081019061225c565b905060008160a00151600181111561107f5761107f611ea1565b036105e057602081015183511561118157600080858060200190518101906110a79190612645565b604080518a815267ffffffffffffffff848116602083015283168183015290519294509092507f85893da7594ef2dcffd5e43bf4990385d1b69d8ba7d70d9fd6e7373782a9b129919081900360600190a1608084015160408051808201825267ffffffffffffffff80861682528416602082015290516360646b5760e01b81526001600160a01b038616926360646b5792611148928c929190600401612426565b600060405180830381600087803b15801561116257600080fd5b505af1158015611176573d6000803e3d6000fd5b5050505050506111f6565b60408051808201825260008082526020820181905291516360646b5760e01b81526001600160a01b038416926360646b57926111c3928a929190600401612426565b600060405180830381600087803b1580156111dd57600080fd5b505af11580156111f1573d6000803e3d6000fd5b505050505b50610f2f565b6002818154811061120c57600080fd5b60009182526020909120600790910201805460018201546002830180549294506001600160a01b039091169291611242906120c0565b80601f016020809104026020016040519081016040528092919081815260200182805461126e906120c0565b80156112bb5780601f10611290576101008083540402835291602001916112bb565b820191906000526020600020905b81548152906001019060200180831161129e57829003601f168201915b505060408051808201909152600386015467ffffffffffffffff8082168352680100000000000000009091048116602083015260048701546006909701549596919560ff808416965061010084048116955062010000840490921693506a010000000000000000000090920463ffffffff16911689565b61133a611947565b60408051808201909152600e81527f6765745265717565737442794964000000000000000000000000000000000000602082015282906113799061166c565b600254611385906117c8565b61138e816117c8565b60025461139d90821015611826565b60025481106113db576040517f1a3870620000000000000000000000000000000000000000000000000000000081526004810184905260240161039e565b600281815481106113ee576113ee612410565b906000526020600020906007020160405180610140016040529081600082015481526020016001820160009054906101000a90046001600160a01b03166001600160a01b03166001600160a01b03168152602001600282018054611451906120c0565b80601f016020809104026020016040519081016040528092919081815260200182805461147d906120c0565b80156114ca5780601f1061149f576101008083540402835291602001916114ca565b820191906000526020600020905b8154815290600101906020018083116114ad57829003601f168201915b5050509183525050604080518082018252600384015467ffffffffffffffff80821683526801000000000000000090910416602082810191909152830152600483015491019060ff16600281111561152457611524611ea1565b600281111561153557611535611ea1565b81526020016004820160019054906101000a900460ff16600181111561155d5761155d611ea1565b600181111561156e5761156e611ea1565b8152600482015462010000810467ffffffffffffffff166020808401919091526a010000000000000000000090910463ffffffff16604080840191909152600584018054825181850281018501909352808352606090940193919290919083018282801561161957602002820191906000526020600020906000905b825461010083900a900460ff168152602060019283018181049485019490930390920291018084116115ea5790505b50505091835250506006919091015460ff166020909101529392505050565b6001818154811061164857600080fd5b9060005260206000209060209182820401919006915054906101000a900460ff1681565b6116c8816040516024016116809190612616565b60408051601f198184030181529190526020810180516001600160e01b03167f41304fac0000000000000000000000000000000000000000000000000000000017905261187c565b50565b60035460609060009060ff1667ffffffffffffffff8111156116ef576116ef611ad2565b604051908082528060200260200182016040528015611718578160200160208202803683370190505b50905060005b60035460ff9081169082161015610828576001546003546000919061174c908490610100900460ff166124ee565b611756919061267f565b905060018160ff168154811061176e5761176e612410565b90600052602060002090602091828204019190069054906101000a900460ff16838360ff16815181106117a3576117a3612410565b60ff9092166020928302919091019091015250806117c081612473565b91505061171e565b6116c8816040516024016117de91815260200190565b60408051601f198184030181529190526020810180516001600160e01b03167ff82c50f10000000000000000000000000000000000000000000000000000000017905261187c565b60405181151560248201526116c89060440160408051601f198184030181529190526020810180516001600160e01b03167f32458eed000000000000000000000000000000000000000000000000000000001790525b6116c88160006a636f6e736f6c652e6c6f679050600080835160208501845afa505050565b82805482825590600052602060002090601f016020900481019282156119375791602002820160005b8382111561190857835183826101000a81548160ff021916908360ff16021790555092602001926001016020816000010492830192600103026118ca565b80156119355782816101000a81549060ff0219169055600101602081600001049283019260010302611908565b505b506119439291506119d4565b5090565b6040518061014001604052806000801916815260200160006001600160a01b03168152602001606081526020016119a56040518060400160405280600067ffffffffffffffff168152602001600067ffffffffffffffff1681525090565b815260200160008152602001600081526000602082018190526040820181905260608083015260809091015290565b5b8082111561194357600081556001016119d5565b60ff811681146116c857600080fd5b600060208284031215611a0a57600080fd5b8135611a15816119e9565b9392505050565b60005b83811015611a37578181015183820152602001611a1f565b50506000910152565b60008151808452611a58816020860160208601611a1c565b601f01601f19169290920160200192915050565b60ff81511682526001600160a01b0360208201511660208301526000604082015160806040850152611aa16080850182611a40565b60609384015167ffffffffffffffff16949093019390935250919050565b602081526000611a156020830184611a6c565b634e487b7160e01b600052604160045260246000fd5b6040805190810167ffffffffffffffff81118282101715611b0b57611b0b611ad2565b60405290565b604051610140810167ffffffffffffffff81118282101715611b0b57611b0b611ad2565b604051601f8201601f1916810167ffffffffffffffff81118282101715611b5e57611b5e611ad2565b604052919050565b600067ffffffffffffffff821115611b8057611b80611ad2565b50601f01601f191660200190565b600082601f830112611b9f57600080fd5b8135611bb2611bad82611b66565b611b35565b818152846020838601011115611bc757600080fd5b816020850160208301376000918101602001919091529392505050565b600080600060608486031215611bf957600080fd5b83359250602084013567ffffffffffffffff80821115611c1857600080fd5b611c2487838801611b8e565b93506040860135915080821115611c3a57600080fd5b50611c4786828701611b8e565b9150509250925092565b6000602080830181845280855180835260408601915060408160051b870101925083870160005b82811015611ca657603f19888603018452611c94858351611a6c565b94509285019290850190600101611c78565b5092979650505050505050565b6001600160a01b03811681146116c857600080fd5b67ffffffffffffffff811681146116c857600080fd5b8035611ce981611cc8565b919050565b600381106116c857600080fd5b63ffffffff811681146116c857600080fd5b8035611ce981611cfb565b60008060008060008086880360e0811215611d3257600080fd5b8735611d3d81611cb3565b9650602088013567ffffffffffffffff811115611d5957600080fd5b611d658a828b01611b8e565b9650506040603f1982011215611d7a57600080fd5b50611d83611ae8565b6040880135611d9181611cc8565b81526060880135611da181611cc8565b602082015293506080870135611db681611cee565b9250611dc460a08801611cde565b9150611dd260c08801611d0d565b90509295509295509295565b600080600060608486031215611df357600080fd5b8335611dfe816119e9565b9250602084013567ffffffffffffffff811115611e1a57600080fd5b611e2686828701611b8e565b9250506040840135611e3781611cc8565b809150509250925092565b60ff851681526001600160a01b0384166020820152608060408201526000611e6d6080830185611a40565b905067ffffffffffffffff8316606083015295945050505050565b600060208284031215611e9a57600080fd5b5035919050565b634e487b7160e01b600052602160045260246000fd5b60038110611ec757611ec7611ea1565b9052565b60028110611ec757611ec7611ea1565b60006101408b83526001600160a01b038b166020840152806040840152611f048184018b611a40565b895167ffffffffffffffff908116606086015260208b01511660808501529150611f2b9050565b611f3860a0830188611eb7565b611f4560c0830187611ecb565b67ffffffffffffffff851660e083015263ffffffff841661010083015260ff83166101208301529a9950505050505050505050565b600081518084526020808501945080840160005b83811015611fad57815160ff1687529582019590820190600101611f8e565b509495945050505050565b602081528151602082015260006020830151611fdf60408401826001600160a01b03169052565b506040830151610160806060850152611ffc610180850183611a40565b6060860151805167ffffffffffffffff908116608088015260208201511660a087015290925050608085015161203560c0860182611eb7565b5060a085015161204860e0860182611ecb565b5060c08501516101006120668187018367ffffffffffffffff169052565b60e087015191506101206120818188018463ffffffff169052565b87820151878603601f1901610140890152925061209e8584611f7a565b945080880151925050506120b68286018260ff169052565b5090949350505050565b600181811c908216806120d457607f821691505b60208210810361082857634e487b7160e01b600052602260045260246000fd5b8051611ce981611cb3565b600082601f83011261211057600080fd5b815161211e611bad82611b66565b81815284602083860101111561213357600080fd5b612144826020830160208701611a1c565b949350505050565b8051611ce981611cc8565b60006040828403121561216957600080fd5b612171611ae8565b9050815161217e81611cc8565b8152602082015161218e81611cc8565b602082015292915050565b8051611ce981611cee565b805160028110611ce957600080fd5b8051611ce981611cfb565b600067ffffffffffffffff8211156121d8576121d8611ad2565b5060051b60200190565b8051611ce9816119e9565b600082601f8301126121fe57600080fd5b8151602061220e611bad836121be565b82815260059290921b8401810191818101908684111561222d57600080fd5b8286015b84811015612251578051612244816119e9565b8352918301918301612231565b509695505050505050565b60006020828403121561226e57600080fd5b815167ffffffffffffffff8082111561228657600080fd5b90830190610160828603121561229b57600080fd5b6122a3611b11565b825181526122b3602084016120f4565b60208201526040830151828111156122ca57600080fd5b6122d6878286016120ff565b6040830152506122e98660608501612157565b60608201526122fa60a08401612199565b608082015261230b60c084016121a4565b60a082015261231c60e0840161214c565b60c082015261010061232f8185016121b3565b60e0830152610120808501518481111561234857600080fd5b612354898288016121ed565b838501525061236661014086016121e2565b908301525095945050505050565b6000602080838503121561238757600080fd5b825167ffffffffffffffff81111561239e57600080fd5b8301601f810185136123af57600080fd5b80516123bd611bad826121be565b81815260069190911b820183019083810190878311156123dc57600080fd5b928401925b82841015612405576123f38885612157565b825284820191506040840193506123e1565b979650505050505050565b634e487b7160e01b600052603260045260246000fd5b8381526080810161243a6020830185611eb7565b825167ffffffffffffffff90811660408401526020840151166060830152612144565b634e487b7160e01b600052601160045260246000fd5b600060ff821660ff81036124895761248961245d565b60010192915050565b602081016103a78284611ecb565b8381526060602082015260006124b96060830185611a40565b82810360408401526124cb8185611a40565b9695505050505050565b6000600182016124e7576124e761245d565b5060010190565b60ff81811683821601908111156103a7576103a761245d565b601f82111561255157600081815260208120601f850160051c8101602086101561252e5750805b601f850160051c820191505b8181101561254d5782815560010161253a565b5050505b505050565b815167ffffffffffffffff81111561257057612570611ad2565b6125848161257e84546120c0565b84612507565b602080601f8311600181146125b957600084156125a15750858301515b600019600386901b1c1916600185901b17855561254d565b600085815260208120601f198616915b828110156125e8578886015182559484019460019091019084016125c9565b50858210156126065787850151600019600388901b60f8161c191681555b5050505050600190811b01905550565b602081526000611a156020830184611a40565b6000825161263b818460208701611a1c565b9190910192915050565b6000806040838503121561265857600080fd5b825161266381611cc8565b602084015190925061267481611cc8565b809150509250929050565b600060ff8316806126a057634e487b7160e01b600052601260045260246000fd5b8060ff8416069150509291505056fea2646970667358221220bdbaea5c148f238bd52fce0b6bb464ee3499aa5f930eb63aee8253fcb6149cb364736f6c63430008140033",
  "linkReferences": {},
  "deployedLinkReferences": {}
}