{
  "_format": "hh-sol-artifact-1",
  "contractName": "ZKOracleManager",
  "sourceName": "contracts/ZKOracleManager.sol",
  "abi": [
    {
      "inputs": [],
      "stateMutability": "nonpayable",
      "type": "constructor"
    },
    {
      "inputs": [
        {
          "internalType": "uint64",
          "name": "token",
          "type": "uint64"
        }
      ],
      "name": "InvalidDeposit",
      "type": "error"
    },
    {
      "inputs": [
        {
          "internalType": "string",
          "name": "url",
          "type": "string"
        }
      ],
      "name": "InvalidUrl",
      "type": "error"
    },
    {
      "inputs": [
        {
          "internalType": "uint256",
          "name": "oracleId",
          "type": "uint256"
        }
      ],
      "name": "OracleAlreadyExists",
      "type": "error"
    },
    {
      "inputs": [
        {
          "internalType": "uint256",
          "name": "oracleId",
          "type": "uint256"
        }
      ],
      "name": "OracleNotFound",
      "type": "error"
    },
    {
      "inputs": [
        {
          "internalType": "bytes32",
          "name": "requestId",
          "type": "bytes32"
        }
      ],
      "name": "RequestNotFound",
      "type": "error"
    },
    {
      "anonymous": false,
      "inputs": [
        {
          "components": [
            {
              "internalType": "uint8",
              "name": "id",
              "type": "uint8"
            },
            {
              "internalType": "address",
              "name": "oracleAddress",
              "type": "address"
            },
            {
              "internalType": "string",
              "name": "url",
              "type": "string"
            },
            {
              "internalType": "uint64",
              "name": "amount",
              "type": "uint64"
            }
          ],
          "indexed": false,
          "internalType": "struct ZKOracleManager.Oracle",
          "name": "oracle",
          "type": "tuple"
        }
      ],
      "name": "OracleAdded",
      "type": "event"
    },
    {
      "anonymous": false,
      "inputs": [
        {
          "indexed": false,
          "internalType": "bytes32",
          "name": "requestId",
          "type": "bytes32"
        }
      ],
      "name": "RequestReceived",
      "type": "event"
    },
    {
      "inputs": [
        {
          "internalType": "uint8",
          "name": "oracleId",
          "type": "uint8"
        },
        {
          "internalType": "string",
          "name": "url",
          "type": "string"
        },
        {
          "internalType": "uint64",
          "name": "amount",
          "type": "uint64"
        }
      ],
      "name": "addOracle",
      "outputs": [],
      "stateMutability": "nonpayable",
      "type": "function"
    },
    {
      "inputs": [],
      "name": "getNumOracles",
      "outputs": [
        {
          "internalType": "uint256",
          "name": "",
          "type": "uint256"
        }
      ],
      "stateMutability": "view",
      "type": "function"
    },
    {
      "inputs": [
        {
          "internalType": "uint8",
          "name": "oracleId",
          "type": "uint8"
        }
      ],
      "name": "getOracle",
      "outputs": [
        {
          "components": [
            {
              "internalType": "uint8",
              "name": "id",
              "type": "uint8"
            },
            {
              "internalType": "address",
              "name": "oracleAddress",
              "type": "address"
            },
            {
              "internalType": "string",
              "name": "url",
              "type": "string"
            },
            {
              "internalType": "uint64",
              "name": "amount",
              "type": "uint64"
            }
          ],
          "internalType": "struct ZKOracleManager.Oracle",
          "name": "",
          "type": "tuple"
        }
      ],
      "stateMutability": "view",
      "type": "function"
    },
    {
      "inputs": [],
      "name": "getOracles",
      "outputs": [
        {
          "components": [
            {
              "internalType": "uint8",
              "name": "id",
              "type": "uint8"
            },
            {
              "internalType": "address",
              "name": "oracleAddress",
              "type": "address"
            },
            {
              "internalType": "string",
              "name": "url",
              "type": "string"
            },
            {
              "internalType": "uint64",
              "name": "amount",
              "type": "uint64"
            }
          ],
          "internalType": "struct ZKOracleManager.Oracle[]",
          "name": "",
          "type": "tuple[]"
        }
      ],
      "stateMutability": "view",
      "type": "function"
    },
    {
      "inputs": [
        {
          "internalType": "bytes32",
          "name": "requestId",
          "type": "bytes32"
        }
      ],
      "name": "getRequestById",
      "outputs": [
        {
          "components": [
            {
              "internalType": "address",
              "name": "requesterAddress",
              "type": "address"
            },
            {
              "internalType": "string",
              "name": "url",
              "type": "string"
            },
            {
              "components": [
                {
                  "internalType": "uint64",
                  "name": "time",
                  "type": "uint64"
                },
                {
                  "internalType": "uint64",
                  "name": "status",
                  "type": "uint64"
                }
              ],
              "internalType": "struct StatusState.BSLStatus",
              "name": "lastStatusState",
              "type": "tuple"
            },
            {
              "internalType": "enum StatusState.StatusType",
              "name": "statusType",
              "type": "uint8"
            },
            {
              "internalType": "enum StatusState.StatusMechanism",
              "name": "statusMechanism",
              "type": "uint8"
            },
            {
              "internalType": "uint64",
              "name": "subscriptionId",
              "type": "uint64"
            },
            {
              "internalType": "uint32",
              "name": "callbackGasLimit",
              "type": "uint32"
            },
            {
              "internalType": "uint8[]",
              "name": "aggregatorIds",
              "type": "uint8[]"
            }
          ],
          "internalType": "struct ZKOracleManager.Request",
          "name": "",
          "type": "tuple"
        }
      ],
      "stateMutability": "view",
      "type": "function"
    },
    {
      "inputs": [
        {
          "internalType": "uint256",
          "name": "",
          "type": "uint256"
        }
      ],
      "name": "oracleIds",
      "outputs": [
        {
          "internalType": "uint8",
          "name": "",
          "type": "uint8"
        }
      ],
      "stateMutability": "view",
      "type": "function"
    },
    {
      "inputs": [
        {
          "internalType": "uint8",
          "name": "",
          "type": "uint8"
        }
      ],
      "name": "oracles",
      "outputs": [
        {
          "internalType": "uint8",
          "name": "id",
          "type": "uint8"
        },
        {
          "internalType": "address",
          "name": "oracleAddress",
          "type": "address"
        },
        {
          "internalType": "string",
          "name": "url",
          "type": "string"
        },
        {
          "internalType": "uint64",
          "name": "amount",
          "type": "uint64"
        }
      ],
      "stateMutability": "view",
      "type": "function"
    },
    {
      "inputs": [
        {
          "internalType": "address",
          "name": "requesterAddress",
          "type": "address"
        },
        {
          "internalType": "string",
          "name": "url",
          "type": "string"
        },
        {
          "components": [
            {
              "internalType": "uint64",
              "name": "time",
              "type": "uint64"
            },
            {
              "internalType": "uint64",
              "name": "status",
              "type": "uint64"
            }
          ],
          "internalType": "struct StatusState.BSLStatus",
          "name": "lastStatusState",
          "type": "tuple"
        },
        {
          "internalType": "enum StatusState.StatusType",
          "name": "statusType",
          "type": "uint8"
        },
        {
          "internalType": "uint64",
          "name": "subscriptionId",
          "type": "uint64"
        },
        {
          "internalType": "uint32",
          "name": "callbackGasLimit",
          "type": "uint32"
        }
      ],
      "name": "requestBSLStatus",
      "outputs": [
        {
          "internalType": "bytes32",
          "name": "",
          "type": "bytes32"
        }
      ],
      "stateMutability": "nonpayable",
      "type": "function"
    },
    {
      "inputs": [
        {
          "internalType": "uint256",
          "name": "",
          "type": "uint256"
        }
      ],
      "name": "requests",
      "outputs": [
        {
          "internalType": "address",
          "name": "requesterAddress",
          "type": "address"
        },
        {
          "internalType": "string",
          "name": "url",
          "type": "string"
        },
        {
          "components": [
            {
              "internalType": "uint64",
              "name": "time",
              "type": "uint64"
            },
            {
              "internalType": "uint64",
              "name": "status",
              "type": "uint64"
            }
          ],
          "internalType": "struct StatusState.BSLStatus",
          "name": "lastStatusState",
          "type": "tuple"
        },
        {
          "internalType": "enum StatusState.StatusType",
          "name": "statusType",
          "type": "uint8"
        },
        {
          "internalType": "enum StatusState.StatusMechanism",
          "name": "statusMechanism",
          "type": "uint8"
        },
        {
          "internalType": "uint64",
          "name": "subscriptionId",
          "type": "uint64"
        },
        {
          "internalType": "uint32",
          "name": "callbackGasLimit",
          "type": "uint32"
        }
      ],
      "stateMutability": "view",
      "type": "function"
    }
  ],
  "bytecode": "0x608060405234801561001057600080fd5b506003805461ffff19166004179055611a118061002e6000396000f3fe608060405234801561001057600080fd5b50600436106100a35760003560e01c806348159d761161007657806381d12c581161005b57806381d12c5814610143578063b12e374814610169578063cb0347271461018957600080fd5b806348159d761461010b5780636b3de8851461012057600080fd5b80631569aaf9146100a857806330c344f7146100d157806340884c52146100e357806342ad0c6a146100f8575b600080fd5b6100bb6100b6366004611224565b6101ae565b6040516100c891906112e9565b60405180910390f35b6001545b6040519081526020016100c8565b6100eb61030c565b6040516100c891906112fc565b6100d5610106366004611465565b6104e1565b61011e610119366004611531565b6107a6565b005b61013361012e366004611224565b610b3c565b6040516100c8949392919061158f565b6101566101513660046115d5565b610c05565b6040516100c89796959493929190611628565b61017c6101773660046115d5565b610d2b565b6040516100c891906116f2565b61019c6101973660046115d5565b610fa7565b60405160ff90911681526020016100c8565b6040805160808101825260008082526020820181905260609282018390529181019190915260ff8281166000908152602081815260408083208151608081018352815495861681526101009095046001600160a01b03169285019290925260018201805493949391840191610222906117bc565b80601f016020809104026020016040519081016040528092919081815260200182805461024e906117bc565b801561029b5780601f106102705761010080835404028352916020019161029b565b820191906000526020600020905b81548152906001019060200180831161027e57829003601f168201915b50505091835250506002919091015467ffffffffffffffff16602090910152604081015151909150600003610306576040517f4bce26dd00000000000000000000000000000000000000000000000000000000815260ff841660048201526024015b60405180910390fd5b92915050565b60015460609060009067ffffffffffffffff81111561032d5761032d61135e565b60405190808252806020026020018201604052801561038057816020015b6040805160808101825260008082526020808301829052606093830184905292820152825260001990920191018161034b5790505b50905060005b6001548110156104db57600080600183815481106103a6576103a66117f0565b600091825260208083208183040154601f90921661010090810a90920460ff9081168552848201959095526040938401909220835160808101855281549586168152919094046001600160a01b031691810191909152600183018054919392840191610411906117bc565b80601f016020809104026020016040519081016040528092919081815260200182805461043d906117bc565b801561048a5780601f1061045f5761010080835404028352916020019161048a565b820191906000526020600020905b81548152906001019060200180831161046d57829003601f168201915b50505091835250506002919091015467ffffffffffffffff1660209091015282518390839081106104bd576104bd6117f0565b602002602001018190525080806104d39061181c565b915050610386565b50919050565b6000806104ec610fdb565b90506001600360018282829054906101000a900460ff1661050d9190611835565b92506101000a81548160ff021916908360ff16021790555060006040518061010001604052808a6001600160a01b03168152602001898152602001888152602001876002811115610560576105606115ee565b81526000602080830182905267ffffffffffffffff8916604084015263ffffffff88166060840152608090920185905260028054600181018255915282517f405787fa12a823e0f2b7631cc41b3ba8828b3321ca811111fa75cd3aa3bb5ace6005830290810180547fffffffffffffffffffffffff0000000000000000000000000000000000000000166001600160a01b0390931692909217825592840151939450909284927f405787fa12a823e0f2b7631cc41b3ba8828b3321ca811111fa75cd3aa3bb5acf0190610633908261189d565b50604082015180516002808401805460209094015167ffffffffffffffff90811668010000000000000000027fffffffffffffffffffffffffffffffff0000000000000000000000000000000090951693169290921792909217905560608301516003830180549192909160ff19169060019084908111156106b7576106b76115ee565b0217905550608082015160038201805461ff0019166101008360018111156106e1576106e16115ee565b021790555060a082015160038201805460c085015163ffffffff166a0100000000000000000000026dffffffff000000000000000000001967ffffffffffffffff9094166201000002939093166dffffffffffffffffffffffff0000199091161791909117905560e082015180516107639160048401916020909101906110d8565b50506040518281527f01fec4a455e3c96956abfbcc392b36849c44e005cdd404e99f5247731e4e65bf915060200160405180910390a19998505050505050505050565b81516000036107e357816040517fb17265ae0000000000000000000000000000000000000000000000000000000081526004016102fd919061195d565b8067ffffffffffffffff16600003610833576040517f37359ba600000000000000000000000000000000000000000000000000000000815267ffffffffffffffff821660048201526024016102fd565b60ff8381166000908152602081815260408083208151608081018352815495861681526101009095046001600160a01b03169285019290925260018201805493949391840191610882906117bc565b80601f01602080910402602001604051908101604052809291908181526020018280546108ae906117bc565b80156108fb5780601f106108d0576101008083540402835291602001916108fb565b820191906000526020600020905b8154815290600101906020018083116108de57829003601f168201915b50505091835250506002919091015467ffffffffffffffff16602090910152604081015151909150156109ea578360ff16816000015160ff1614158061094e575060208101516001600160a01b03163314155b806109a95750826040516020016109659190611970565b6040516020818303038152906040528051906020012081604001516040516020016109909190611970565b6040516020818303038152906040528051906020012014155b156109e5576040517f1f4a2fc000000000000000000000000000000000000000000000000000000000815260ff851660048201526024016102fd565b610b36565b6040805160808101825260ff80871680835233602080850191825284860189815267ffffffffffffffff89166060870152600093845290839052949091208351815492516001600160a01b0316610100027fffffffffffffffffffffff0000000000000000000000000000000000000000009093169316929092171781559151909182916001820190610a7d908261189d565b50606091909101516002909101805467ffffffffffffffff191667ffffffffffffffff9092169190911790556001805480820182556000919091527fb10e2d527612073b26eecdfd717e6a320cf44b4afac2b0732d9fcbe2b7fa0cf660208204018054601f9092166101000a60ff81810219909316928816029190911790556040517fddb3d8cc69f850a34efff34ec494596eaebc99a942d2363fa2ebcdfa87d4e53890610b2c9083906112e9565b60405180910390a1505b50505050565b6000602081905290815260409020805460018201805460ff8316936101009093046001600160a01b0316929190610b72906117bc565b80601f0160208091040260200160405190810160405280929190818152602001828054610b9e906117bc565b8015610beb5780601f10610bc057610100808354040283529160200191610beb565b820191906000526020600020905b815481529060010190602001808311610bce57829003601f168201915b5050506002909301549192505067ffffffffffffffff1684565b60028181548110610c1557600080fd5b6000918252602090912060059091020180546001820180546001600160a01b03909216935090610c44906117bc565b80601f0160208091040260200160405190810160405280929190818152602001828054610c70906117bc565b8015610cbd5780601f10610c9257610100808354040283529160200191610cbd565b820191906000526020600020905b815481529060010190602001808311610ca057829003601f168201915b505060408051808201909152600286015467ffffffffffffffff808216835268010000000000000000909104811660208301526003909601549495909460ff8082169550610100820416935062010000810490911691506a0100000000000000000000900463ffffffff1687565b610d3361117e565b60025482908110610d73576040517f1a387062000000000000000000000000000000000000000000000000000000008152600481018490526024016102fd565b60028181548110610d8657610d866117f0565b600091825260209182902060408051610100810190915260059092020180546001600160a01b031682526001810180549293919291840191610dc7906117bc565b80601f0160208091040260200160405190810160405280929190818152602001828054610df3906117bc565b8015610e405780601f10610e1557610100808354040283529160200191610e40565b820191906000526020600020905b815481529060010190602001808311610e2357829003601f168201915b505050918352505060408051808201825260028481015467ffffffffffffffff808216845268010000000000000000909104166020838101919091528401919091526003840154919092019160ff90911690811115610ea157610ea16115ee565b6002811115610eb257610eb26115ee565b81526020016003820160019054906101000a900460ff166001811115610eda57610eda6115ee565b6001811115610eeb57610eeb6115ee565b8152600382015462010000810467ffffffffffffffff166020808401919091526a010000000000000000000090910463ffffffff166040808401919091526004840180548251818502810185019093528083526060909401939192909190830182828015610f9657602002820191906000526020600020906000905b825461010083900a900460ff16815260206001928301818104948501949093039092029101808411610f675790505b505050505081525050915050919050565b60018181548110610fb757600080fd5b9060005260206000209060209182820401919006915054906101000a900460ff1681565b60035460609060009060ff1667ffffffffffffffff811115610fff57610fff61135e565b604051908082528060200260200182016040528015611028578160200160208202803683370190505b50905060005b60035460ff90811690821610156104db576001546003546000919061105c908490610100900460ff16611835565b611066919061198c565b905060018160ff168154811061107e5761107e6117f0565b90600052602060002090602091828204019190069054906101000a900460ff16838360ff16815181106110b3576110b36117f0565b60ff9092166020928302919091019091015250806110d0816119bc565b91505061102e565b82805482825590600052602060002090601f0160209004810192821561116e5791602002820160005b8382111561113f57835183826101000a81548160ff021916908360ff1602179055509260200192600101602081600001049283019260010302611101565b801561116c5782816101000a81549060ff021916905560010160208160000104928301926001030261113f565b505b5061117a9291506111f9565b5090565b60405180610100016040528060006001600160a01b03168152602001606081526020016111d26040518060400160405280600067ffffffffffffffff168152602001600067ffffffffffffffff1681525090565b81526020016000815260200160008152600060208201819052604082015260609081015290565b5b8082111561117a57600081556001016111fa565b803560ff8116811461121f57600080fd5b919050565b60006020828403121561123657600080fd5b61123f8261120e565b9392505050565b60005b83811015611261578181015183820152602001611249565b50506000910152565b60008151808452611282816020860160208601611246565b601f01601f19169290920160200192915050565b60ff81511682526001600160a01b03602082015116602083015260006040820151608060408501526112cb608085018261126a565b60609384015167ffffffffffffffff16949093019390935250919050565b60208152600061123f6020830184611296565b6000602080830181845280855180835260408601915060408160051b870101925083870160005b8281101561135157603f1988860301845261133f858351611296565b94509285019290850190600101611323565b5092979650505050505050565b634e487b7160e01b600052604160045260246000fd5b6040805190810167ffffffffffffffff811182821017156113975761139761135e565b60405290565b600082601f8301126113ae57600080fd5b813567ffffffffffffffff808211156113c9576113c961135e565b604051601f8301601f19908116603f011681019082821181831017156113f1576113f161135e565b8160405283815286602085880101111561140a57600080fd5b836020870160208301376000602085830101528094505050505092915050565b803567ffffffffffffffff8116811461121f57600080fd5b80356003811061121f57600080fd5b803563ffffffff8116811461121f57600080fd5b60008060008060008086880360e081121561147f57600080fd5b87356001600160a01b038116811461149657600080fd5b9650602088013567ffffffffffffffff8111156114b257600080fd5b6114be8a828b0161139d565b9650506040603f19820112156114d357600080fd5b506114dc611374565b6114e86040890161142a565b81526114f66060890161142a565b6020820152935061150960808801611442565b925061151760a0880161142a565b915061152560c08801611451565b90509295509295509295565b60008060006060848603121561154657600080fd5b61154f8461120e565b9250602084013567ffffffffffffffff81111561156b57600080fd5b6115778682870161139d565b9250506115866040850161142a565b90509250925092565b60ff851681526001600160a01b03841660208201526080604082015260006115ba608083018561126a565b905067ffffffffffffffff8316606083015295945050505050565b6000602082840312156115e757600080fd5b5035919050565b634e487b7160e01b600052602160045260246000fd5b60038110611614576116146115ee565b9052565b60028110611614576116146115ee565b60006101006001600160a01b038a16835280602084015261164b8184018a61126a565b885167ffffffffffffffff908116604086015260208a015116606085015291506116729050565b61167f6080830187611604565b61168c60a0830186611618565b67ffffffffffffffff841660c083015263ffffffff831660e083015298975050505050505050565b600081518084526020808501945080840160005b838110156116e757815160ff16875295820195908201906001016116c8565b509495945050505050565b602081526001600160a01b0382511660208201526000602083015161012080604085015261172461014085018361126a565b6040860151805167ffffffffffffffff9081166060880152602082015116608087015290925050606085015161175d60a0860182611604565b50608085015161177060c0860182611618565b5060a085015167ffffffffffffffff1660e08581019190915260c086015163ffffffff16610100860152850151848303601f1901828601526117b283826116b4565b9695505050505050565b600181811c908216806117d057607f821691505b6020821081036104db57634e487b7160e01b600052602260045260246000fd5b634e487b7160e01b600052603260045260246000fd5b634e487b7160e01b600052601160045260246000fd5b60006001820161182e5761182e611806565b5060010190565b60ff818116838216019081111561030657610306611806565b601f82111561189857600081815260208120601f850160051c810160208610156118755750805b601f850160051c820191505b8181101561189457828155600101611881565b5050505b505050565b815167ffffffffffffffff8111156118b7576118b761135e565b6118cb816118c584546117bc565b8461184e565b602080601f83116001811461190057600084156118e85750858301515b600019600386901b1c1916600185901b178555611894565b600085815260208120601f198616915b8281101561192f57888601518255948401946001909101908401611910565b508582101561194d5787850151600019600388901b60f8161c191681555b5050505050600190811b01905550565b60208152600061123f602083018461126a565b60008251611982818460208701611246565b9190910192915050565b600060ff8316806119ad57634e487b7160e01b600052601260045260246000fd5b8060ff84160691505092915050565b600060ff821660ff81036119d2576119d2611806565b6001019291505056fea26469706673582212200292054475124d2dd2c1455ebe30dee90fceaf3a9798f1ce00debca1a1ff83b564736f6c63430008140033",
  "linkReferences": {},
  "deployedLinkReferences": {}
}