{
  "_format": "hh-sol-artifact-1",
  "contractName": "ZKOracleConsumer",
  "sourceName": "contracts/ZKOracleConsumer.sol",
  "abi": [
    {
      "inputs": [
        {
          "internalType": "address",
          "name": "requesterAddress",
          "type": "address"
        },
        {
          "internalType": "string",
          "name": "url",
          "type": "string"
        },
        {
          "components": [
            {
              "internalType": "uint64",
              "name": "time",
              "type": "uint64"
            },
            {
              "internalType": "uint64",
              "name": "status",
              "type": "uint64"
            }
          ],
          "internalType": "struct StatusState.BSLStatus",
          "name": "lastStatusState",
          "type": "tuple"
        },
        {
          "internalType": "enum StatusState.StatusType",
          "name": "statusType",
          "type": "uint8"
        },
        {
          "internalType": "uint64",
          "name": "subscriptionId",
          "type": "uint64"
        },
        {
          "internalType": "uint32",
          "name": "callbackGasLimit",
          "type": "uint32"
        }
      ],
      "name": "requestBSLStatus",
      "outputs": [
        {
          "internalType": "bytes32",
          "name": "",
          "type": "bytes32"
        }
      ],
      "stateMutability": "nonpayable",
      "type": "function"
    }
  ],
  "bytecode": "0x608060405234801561001057600080fd5b50610293806100206000396000f3fe608060405234801561001057600080fd5b506004361061002b5760003560e01c806342ad0c6a14610030575b600080fd5b61004a61003e36600461015a565b60009695505050505050565b60405190815260200160405180910390f35b7f4e487b7100000000000000000000000000000000000000000000000000000000600052604160045260246000fd5b604051601f8201601f1916810167ffffffffffffffff811182821017156100b4576100b461005c565b604052919050565b803567ffffffffffffffff811681146100d457600080fd5b919050565b6000604082840312156100eb57600080fd5b6040516040810181811067ffffffffffffffff8211171561010e5761010e61005c565b60405290508061011d836100bc565b815261012b602084016100bc565b60208201525092915050565b8035600381106100d457600080fd5b803563ffffffff811681146100d457600080fd5b60008060008060008060e0878903121561017357600080fd5b863573ffffffffffffffffffffffffffffffffffffffff8116811461019757600080fd5b955060208781013567ffffffffffffffff808211156101b557600080fd5b818a0191508a601f8301126101c957600080fd5b8135818111156101db576101db61005c565b6101ed601f8201601f1916850161008b565b91508082528b8482850101111561020357600080fd5b808484018584013760008482840101525080975050505061022788604089016100d9565b935061023560808801610137565b925061024360a088016100bc565b915061025160c08801610146565b9050929550929550929556fea2646970667358221220af2c1e409ad013eb8d8f9b2fb21054161f180fe8a98496db8e8f894cede6257b64736f6c63430008140033",
  "linkReferences": {},
  "deployedLinkReferences": {}
}