{
  "_format": "hh-sol-artifact-1",
  "contractName": "ZKOracleManager",
  "sourceName": "contracts/ZKOracleManager.sol",
  "abi": [
    {
      "inputs": [
        {
          "internalType": "uint8",
          "name": "_numAggregators",
          "type": "uint8"
        },
        {
          "internalType": "uint8",
          "name": "_numAgreements",
          "type": "uint8"
        }
      ],
      "stateMutability": "nonpayable",
      "type": "constructor"
    },
    {
      "inputs": [
        {
          "internalType": "uint64",
          "name": "token",
          "type": "uint64"
        }
      ],
      "name": "InvalidDeposit",
      "type": "error"
    },
    {
      "inputs": [
        {
          "internalType": "string",
          "name": "url",
          "type": "string"
        }
      ],
      "name": "InvalidUrl",
      "type": "error"
    },
    {
      "inputs": [
        {
          "internalType": "uint256",
          "name": "oracleId",
          "type": "uint256"
        }
      ],
      "name": "OracleAlreadyExists",
      "type": "error"
    },
    {
      "inputs": [
        {
          "internalType": "uint256",
          "name": "oracleId",
          "type": "uint256"
        }
      ],
      "name": "OracleNotFound",
      "type": "error"
    },
    {
      "inputs": [
        {
          "internalType": "bytes32",
          "name": "requestId",
          "type": "bytes32"
        }
      ],
      "name": "RequestNotFound",
      "type": "error"
    },
    {
      "anonymous": false,
      "inputs": [
        {
          "components": [
            {
              "internalType": "uint8",
              "name": "id",
              "type": "uint8"
            },
            {
              "internalType": "address",
              "name": "oracleAddress",
              "type": "address"
            },
            {
              "internalType": "string",
              "name": "url",
              "type": "string"
            },
            {
              "internalType": "uint64",
              "name": "amount",
              "type": "uint64"
            }
          ],
          "indexed": false,
          "internalType": "struct ZKOracleManager.Oracle",
          "name": "oracle",
          "type": "tuple"
        }
      ],
      "name": "OracleAdded",
      "type": "event"
    },
    {
      "anonymous": false,
      "inputs": [
        {
          "indexed": false,
          "internalType": "bytes32",
          "name": "requestId",
          "type": "bytes32"
        }
      ],
      "name": "RequestReceived",
      "type": "event"
    },
    {
      "inputs": [
        {
          "internalType": "uint8",
          "name": "oracleId",
          "type": "uint8"
        },
        {
          "internalType": "string",
          "name": "url",
          "type": "string"
        },
        {
          "internalType": "uint64",
          "name": "amount",
          "type": "uint64"
        }
      ],
      "name": "addOracle",
      "outputs": [],
      "stateMutability": "nonpayable",
      "type": "function"
    },
    {
      "inputs": [],
      "name": "currentAggregatorIndex",
      "outputs": [
        {
          "internalType": "uint8",
          "name": "",
          "type": "uint8"
        }
      ],
      "stateMutability": "view",
      "type": "function"
    },
    {
      "inputs": [],
      "name": "getNumOracles",
      "outputs": [
        {
          "internalType": "uint256",
          "name": "",
          "type": "uint256"
        }
      ],
      "stateMutability": "view",
      "type": "function"
    },
    {
      "inputs": [
        {
          "internalType": "uint8",
          "name": "oracleId",
          "type": "uint8"
        }
      ],
      "name": "getOracle",
      "outputs": [
        {
          "components": [
            {
              "internalType": "uint8",
              "name": "id",
              "type": "uint8"
            },
            {
              "internalType": "address",
              "name": "oracleAddress",
              "type": "address"
            },
            {
              "internalType": "string",
              "name": "url",
              "type": "string"
            },
            {
              "internalType": "uint64",
              "name": "amount",
              "type": "uint64"
            }
          ],
          "internalType": "struct ZKOracleManager.Oracle",
          "name": "",
          "type": "tuple"
        }
      ],
      "stateMutability": "view",
      "type": "function"
    },
    {
      "inputs": [],
      "name": "getOracles",
      "outputs": [
        {
          "components": [
            {
              "internalType": "uint8",
              "name": "id",
              "type": "uint8"
            },
            {
              "internalType": "address",
              "name": "oracleAddress",
              "type": "address"
            },
            {
              "internalType": "string",
              "name": "url",
              "type": "string"
            },
            {
              "internalType": "uint64",
              "name": "amount",
              "type": "uint64"
            }
          ],
          "internalType": "struct ZKOracleManager.Oracle[]",
          "name": "",
          "type": "tuple[]"
        }
      ],
      "stateMutability": "view",
      "type": "function"
    },
    {
      "inputs": [
        {
          "internalType": "bytes32",
          "name": "requestId",
          "type": "bytes32"
        }
      ],
      "name": "getRequestById",
      "outputs": [
        {
          "components": [
            {
              "internalType": "bytes32",
              "name": "requestId",
              "type": "bytes32"
            },
            {
              "internalType": "address",
              "name": "requesterAddress",
              "type": "address"
            },
            {
              "internalType": "string",
              "name": "url",
              "type": "string"
            },
            {
              "components": [
                {
                  "internalType": "uint64",
                  "name": "time",
                  "type": "uint64"
                },
                {
                  "internalType": "uint64",
                  "name": "status",
                  "type": "uint64"
                }
              ],
              "internalType": "struct StatusState.BSLStatus",
              "name": "lastStatusState",
              "type": "tuple"
            },
            {
              "internalType": "enum StatusState.StatusType",
              "name": "statusType",
              "type": "uint8"
            },
            {
              "internalType": "enum StatusState.StatusMechanism",
              "name": "statusMechanism",
              "type": "uint8"
            },
            {
              "internalType": "uint64",
              "name": "subscriptionId",
              "type": "uint64"
            },
            {
              "internalType": "uint32",
              "name": "callbackGasLimit",
              "type": "uint32"
            },
            {
              "internalType": "uint8[]",
              "name": "aggregatorIds",
              "type": "uint8[]"
            },
            {
              "internalType": "uint8",
              "name": "numAgreements",
              "type": "uint8"
            }
          ],
          "internalType": "struct ZKOracleManager.Request",
          "name": "",
          "type": "tuple"
        }
      ],
      "stateMutability": "view",
      "type": "function"
    },
    {
      "inputs": [],
      "name": "numAggregators",
      "outputs": [
        {
          "internalType": "uint8",
          "name": "",
          "type": "uint8"
        }
      ],
      "stateMutability": "view",
      "type": "function"
    },
    {
      "inputs": [],
      "name": "numAgreements",
      "outputs": [
        {
          "internalType": "uint8",
          "name": "",
          "type": "uint8"
        }
      ],
      "stateMutability": "view",
      "type": "function"
    },
    {
      "inputs": [
        {
          "internalType": "uint256",
          "name": "",
          "type": "uint256"
        }
      ],
      "name": "oracleIds",
      "outputs": [
        {
          "internalType": "uint8",
          "name": "",
          "type": "uint8"
        }
      ],
      "stateMutability": "view",
      "type": "function"
    },
    {
      "inputs": [
        {
          "internalType": "uint8",
          "name": "",
          "type": "uint8"
        }
      ],
      "name": "oracles",
      "outputs": [
        {
          "internalType": "uint8",
          "name": "id",
          "type": "uint8"
        },
        {
          "internalType": "address",
          "name": "oracleAddress",
          "type": "address"
        },
        {
          "internalType": "string",
          "name": "url",
          "type": "string"
        },
        {
          "internalType": "uint64",
          "name": "amount",
          "type": "uint64"
        }
      ],
      "stateMutability": "view",
      "type": "function"
    },
    {
      "inputs": [
        {
          "internalType": "address",
          "name": "requesterAddress",
          "type": "address"
        },
        {
          "internalType": "string",
          "name": "url",
          "type": "string"
        },
        {
          "components": [
            {
              "internalType": "uint64",
              "name": "time",
              "type": "uint64"
            },
            {
              "internalType": "uint64",
              "name": "status",
              "type": "uint64"
            }
          ],
          "internalType": "struct StatusState.BSLStatus",
          "name": "lastStatusState",
          "type": "tuple"
        },
        {
          "internalType": "enum StatusState.StatusType",
          "name": "statusType",
          "type": "uint8"
        },
        {
          "internalType": "uint64",
          "name": "subscriptionId",
          "type": "uint64"
        },
        {
          "internalType": "uint32",
          "name": "callbackGasLimit",
          "type": "uint32"
        }
      ],
      "name": "requestBSLStatus",
      "outputs": [
        {
          "internalType": "bytes32",
          "name": "",
          "type": "bytes32"
        }
      ],
      "stateMutability": "nonpayable",
      "type": "function"
    },
    {
      "inputs": [
        {
          "internalType": "uint256",
          "name": "",
          "type": "uint256"
        }
      ],
      "name": "requests",
      "outputs": [
        {
          "internalType": "bytes32",
          "name": "requestId",
          "type": "bytes32"
        },
        {
          "internalType": "address",
          "name": "requesterAddress",
          "type": "address"
        },
        {
          "internalType": "string",
          "name": "url",
          "type": "string"
        },
        {
          "components": [
            {
              "internalType": "uint64",
              "name": "time",
              "type": "uint64"
            },
            {
              "internalType": "uint64",
              "name": "status",
              "type": "uint64"
            }
          ],
          "internalType": "struct StatusState.BSLStatus",
          "name": "lastStatusState",
          "type": "tuple"
        },
        {
          "internalType": "enum StatusState.StatusType",
          "name": "statusType",
          "type": "uint8"
        },
        {
          "internalType": "enum StatusState.StatusMechanism",
          "name": "statusMechanism",
          "type": "uint8"
        },
        {
          "internalType": "uint64",
          "name": "subscriptionId",
          "type": "uint64"
        },
        {
          "internalType": "uint32",
          "name": "callbackGasLimit",
          "type": "uint32"
        },
        {
          "internalType": "uint8",
          "name": "numAgreements",
          "type": "uint8"
        }
      ],
      "stateMutability": "view",
      "type": "function"
    }
  ],
  "bytecode": "0x60806040523480156200001157600080fd5b5060405162001c3938038062001c39833981016040819052620000349162000072565b6003805460ff928316620100000262ffffff199091169390921692909217179055620000aa565b805160ff811681146200006d57600080fd5b919050565b600080604083850312156200008657600080fd5b62000091836200005b565b9150620000a1602084016200005b565b90509250929050565b611b7f80620000ba6000396000f3fe608060405234801561001057600080fd5b50600436106100d45760003560e01c806348159d761161008157806381d12c581161005b57806381d12c58146101b8578063b12e3748146101e0578063cb0347271461020057600080fd5b806348159d761461016e5780636b3de885146101835780636cc7a670146101a657600080fd5b806340504d2a116100b257806340504d2a1461013957806340884c521461014657806342ad0c6a1461015b57600080fd5b80631569aaf9146100d957806324d46dc11461010257806330c344f714610127575b600080fd5b6100ec6100e7366004611341565b610213565b6040516100f99190611406565b60405180910390f35b6003546101159062010000900460ff1681565b60405160ff90911681526020016100f9565b6001545b6040519081526020016100f9565b6003546101159060ff1681565b61014e610371565b6040516100f99190611419565b61012b610169366004611582565b610546565b61018161017c36600461164e565b610878565b005b610196610191366004611341565b610c0e565b6040516100f994939291906116ac565b60035461011590610100900460ff1681565b6101cb6101c63660046116f2565b610cd7565b6040516100f999989796959493929190611745565b6101f36101ee3660046116f2565b610e0d565b6040516100f99190611822565b61011561020e3660046116f2565b6110b2565b6040805160808101825260008082526020820181905260609282018390529181019190915260ff8281166000908152602081815260408083208151608081018352815495861681526101009095046001600160a01b031692850192909252600182018054939493918401916102879061192a565b80601f01602080910402602001604051908101604052809291908181526020018280546102b39061192a565b80156103005780601f106102d557610100808354040283529160200191610300565b820191906000526020600020905b8154815290600101906020018083116102e357829003601f168201915b50505091835250506002919091015467ffffffffffffffff1660209091015260408101515190915060000361036b576040517f4bce26dd00000000000000000000000000000000000000000000000000000000815260ff841660048201526024015b60405180910390fd5b92915050565b60015460609060009067ffffffffffffffff8111156103925761039261147b565b6040519080825280602002602001820160405280156103e557816020015b604080516080810182526000808252602080830182905260609383018490529282015282526000199092019101816103b05790505b50905060005b600154811015610540576000806001838154811061040b5761040b61195e565b600091825260208083208183040154601f90921661010090810a90920460ff9081168552848201959095526040938401909220835160808101855281549586168152919094046001600160a01b0316918101919091526001830180549193928401916104769061192a565b80601f01602080910402602001604051908101604052809291908181526020018280546104a29061192a565b80156104ef5780601f106104c4576101008083540402835291602001916104ef565b820191906000526020600020905b8154815290600101906020018083116104d257829003601f168201915b50505091835250506002919091015467ffffffffffffffff1660209091015282518390839081106105225761052261195e565b602002602001018190525080806105389061198a565b9150506103eb565b50919050565b6000806105516110e6565b90506001600360018282829054906101000a900460ff1661057291906119a3565b92506101000a81548160ff021916908360ff160217905550600060028054905060001b905060006040518061014001604052808381526020018b6001600160a01b031681526020018a81526020018981526020018860028111156105d8576105d861170b565b81526000602080830182905267ffffffffffffffff8a1660408085019190915263ffffffff8a1660608501526080840188905260035462010000900460ff1660a09094019390935260028054600181018255925283517f405787fa12a823e0f2b7631cc41b3ba8828b3321ca811111fa75cd3aa3bb5ace6007909302928301908155908401517f405787fa12a823e0f2b7631cc41b3ba8828b3321ca811111fa75cd3aa3bb5acf830180547fffffffffffffffffffffffff0000000000000000000000000000000000000000166001600160a01b039092169190911790559183015192935083927f405787fa12a823e0f2b7631cc41b3ba8828b3321ca811111fa75cd3aa3bb5ad0909101906106ee9082611a0b565b506060820151805160038301805460209093015167ffffffffffffffff90811668010000000000000000027fffffffffffffffffffffffffffffffff00000000000000000000000000000000909416921691909117919091179055608082015160048201805460ff1916600183600281111561076c5761076c61170b565b021790555060a082015160048201805461ff0019166101008360018111156107965761079661170b565b021790555060c082015160048201805460e085015163ffffffff166a0100000000000000000000026dffffffff000000000000000000001967ffffffffffffffff9094166201000002939093166dffffffffffffffffffffffff0000199091161791909117905561010082015180516108199160058401916020909101906111e3565b5061012091909101516006909101805460ff191660ff9092169190911790556040518281527f01fec4a455e3c96956abfbcc392b36849c44e005cdd404e99f5247731e4e65bf9060200160405180910390a15098975050505050505050565b81516000036108b557816040517fb17265ae0000000000000000000000000000000000000000000000000000000081526004016103629190611acb565b8067ffffffffffffffff16600003610905576040517f37359ba600000000000000000000000000000000000000000000000000000000815267ffffffffffffffff82166004820152602401610362565b60ff8381166000908152602081815260408083208151608081018352815495861681526101009095046001600160a01b031692850192909252600182018054939493918401916109549061192a565b80601f01602080910402602001604051908101604052809291908181526020018280546109809061192a565b80156109cd5780601f106109a2576101008083540402835291602001916109cd565b820191906000526020600020905b8154815290600101906020018083116109b057829003601f168201915b50505091835250506002919091015467ffffffffffffffff1660209091015260408101515190915015610abc578360ff16816000015160ff16141580610a20575060208101516001600160a01b03163314155b80610a7b575082604051602001610a379190611ade565b604051602081830303815290604052805190602001208160400151604051602001610a629190611ade565b6040516020818303038152906040528051906020012014155b15610ab7576040517f1f4a2fc000000000000000000000000000000000000000000000000000000000815260ff85166004820152602401610362565b610c08565b6040805160808101825260ff80871680835233602080850191825284860189815267ffffffffffffffff89166060870152600093845290839052949091208351815492516001600160a01b0316610100027fffffffffffffffffffffff0000000000000000000000000000000000000000009093169316929092171781559151909182916001820190610b4f9082611a0b565b50606091909101516002909101805467ffffffffffffffff191667ffffffffffffffff9092169190911790556001805480820182556000919091527fb10e2d527612073b26eecdfd717e6a320cf44b4afac2b0732d9fcbe2b7fa0cf660208204018054601f9092166101000a60ff81810219909316928816029190911790556040517fddb3d8cc69f850a34efff34ec494596eaebc99a942d2363fa2ebcdfa87d4e53890610bfe908390611406565b60405180910390a1505b50505050565b6000602081905290815260409020805460018201805460ff8316936101009093046001600160a01b0316929190610c449061192a565b80601f0160208091040260200160405190810160405280929190818152602001828054610c709061192a565b8015610cbd5780601f10610c9257610100808354040283529160200191610cbd565b820191906000526020600020905b815481529060010190602001808311610ca057829003601f168201915b5050506002909301549192505067ffffffffffffffff1684565b60028181548110610ce757600080fd5b60009182526020909120600790910201805460018201546002830180549294506001600160a01b039091169291610d1d9061192a565b80601f0160208091040260200160405190810160405280929190818152602001828054610d499061192a565b8015610d965780601f10610d6b57610100808354040283529160200191610d96565b820191906000526020600020905b815481529060010190602001808311610d7957829003601f168201915b505060408051808201909152600386015467ffffffffffffffff8082168352680100000000000000009091048116602083015260048701546006909701549596919560ff808416965061010084048116955062010000840490921693506a010000000000000000000090920463ffffffff16911689565b610e15611289565b60025482908110610e55576040517f1a38706200000000000000000000000000000000000000000000000000000000815260048101849052602401610362565b60028181548110610e6857610e6861195e565b906000526020600020906007020160405180610140016040529081600082015481526020016001820160009054906101000a90046001600160a01b03166001600160a01b03166001600160a01b03168152602001600282018054610ecb9061192a565b80601f0160208091040260200160405190810160405280929190818152602001828054610ef79061192a565b8015610f445780601f10610f1957610100808354040283529160200191610f44565b820191906000526020600020905b815481529060010190602001808311610f2757829003601f168201915b5050509183525050604080518082018252600384015467ffffffffffffffff80821683526801000000000000000090910416602082810191909152830152600483015491019060ff166002811115610f9e57610f9e61170b565b6002811115610faf57610faf61170b565b81526020016004820160019054906101000a900460ff166001811115610fd757610fd761170b565b6001811115610fe857610fe861170b565b8152600482015462010000810467ffffffffffffffff166020808401919091526a010000000000000000000090910463ffffffff16604080840191909152600584018054825181850281018501909352808352606090940193919290919083018282801561109357602002820191906000526020600020906000905b825461010083900a900460ff168152602060019283018181049485019490930390920291018084116110645790505b50505091835250506006919091015460ff166020909101529392505050565b600181815481106110c257600080fd5b9060005260206000209060209182820401919006915054906101000a900460ff1681565b60035460609060009060ff1667ffffffffffffffff81111561110a5761110a61147b565b604051908082528060200260200182016040528015611133578160200160208202803683370190505b50905060005b60035460ff90811690821610156105405760015460035460009190611167908490610100900460ff166119a3565b6111719190611afa565b905060018160ff16815481106111895761118961195e565b90600052602060002090602091828204019190069054906101000a900460ff16838360ff16815181106111be576111be61195e565b60ff9092166020928302919091019091015250806111db81611b2a565b915050611139565b82805482825590600052602060002090601f016020900481019282156112795791602002820160005b8382111561124a57835183826101000a81548160ff021916908360ff160217905550926020019260010160208160000104928301926001030261120c565b80156112775782816101000a81549060ff021916905560010160208160000104928301926001030261124a565b505b50611285929150611316565b5090565b6040518061014001604052806000801916815260200160006001600160a01b03168152602001606081526020016112e76040518060400160405280600067ffffffffffffffff168152602001600067ffffffffffffffff1681525090565b815260200160008152602001600081526000602082018190526040820181905260608083015260809091015290565b5b808211156112855760008155600101611317565b803560ff8116811461133c57600080fd5b919050565b60006020828403121561135357600080fd5b61135c8261132b565b9392505050565b60005b8381101561137e578181015183820152602001611366565b50506000910152565b6000815180845261139f816020860160208601611363565b601f01601f19169290920160200192915050565b60ff81511682526001600160a01b03602082015116602083015260006040820151608060408501526113e86080850182611387565b60609384015167ffffffffffffffff16949093019390935250919050565b60208152600061135c60208301846113b3565b6000602080830181845280855180835260408601915060408160051b870101925083870160005b8281101561146e57603f1988860301845261145c8583516113b3565b94509285019290850190600101611440565b5092979650505050505050565b634e487b7160e01b600052604160045260246000fd5b6040805190810167ffffffffffffffff811182821017156114b4576114b461147b565b60405290565b600082601f8301126114cb57600080fd5b813567ffffffffffffffff808211156114e6576114e661147b565b604051601f8301601f19908116603f0116810190828211818310171561150e5761150e61147b565b8160405283815286602085880101111561152757600080fd5b836020870160208301376000602085830101528094505050505092915050565b803567ffffffffffffffff8116811461133c57600080fd5b80356003811061133c57600080fd5b803563ffffffff8116811461133c57600080fd5b60008060008060008086880360e081121561159c57600080fd5b87356001600160a01b03811681146115b357600080fd5b9650602088013567ffffffffffffffff8111156115cf57600080fd5b6115db8a828b016114ba565b9650506040603f19820112156115f057600080fd5b506115f9611491565b61160560408901611547565b815261161360608901611547565b602082015293506116266080880161155f565b925061163460a08801611547565b915061164260c0880161156e565b90509295509295509295565b60008060006060848603121561166357600080fd5b61166c8461132b565b9250602084013567ffffffffffffffff81111561168857600080fd5b611694868287016114ba565b9250506116a360408501611547565b90509250925092565b60ff851681526001600160a01b03841660208201526080604082015260006116d76080830185611387565b905067ffffffffffffffff8316606083015295945050505050565b60006020828403121561170457600080fd5b5035919050565b634e487b7160e01b600052602160045260246000fd5b600381106117315761173161170b565b9052565b600281106117315761173161170b565b60006101408b83526001600160a01b038b16602084015280604084015261176e8184018b611387565b895167ffffffffffffffff908116606086015260208b015116608085015291506117959050565b6117a260a0830188611721565b6117af60c0830187611735565b67ffffffffffffffff851660e083015263ffffffff841661010083015260ff83166101208301529a9950505050505050505050565b600081518084526020808501945080840160005b8381101561181757815160ff16875295820195908201906001016117f8565b509495945050505050565b60208152815160208201526000602083015161184960408401826001600160a01b03169052565b506040830151610160806060850152611866610180850183611387565b6060860151805167ffffffffffffffff908116608088015260208201511660a087015290925050608085015161189f60c0860182611721565b5060a08501516118b260e0860182611735565b5060c08501516101006118d08187018367ffffffffffffffff169052565b60e087015191506101206118eb8188018463ffffffff169052565b87820151878603601f1901610140890152925061190885846117e4565b945080880151925050506119208286018260ff169052565b5090949350505050565b600181811c9082168061193e57607f821691505b60208210810361054057634e487b7160e01b600052602260045260246000fd5b634e487b7160e01b600052603260045260246000fd5b634e487b7160e01b600052601160045260246000fd5b60006001820161199c5761199c611974565b5060010190565b60ff818116838216019081111561036b5761036b611974565b601f821115611a0657600081815260208120601f850160051c810160208610156119e35750805b601f850160051c820191505b81811015611a02578281556001016119ef565b5050505b505050565b815167ffffffffffffffff811115611a2557611a2561147b565b611a3981611a33845461192a565b846119bc565b602080601f831160018114611a6e5760008415611a565750858301515b600019600386901b1c1916600185901b178555611a02565b600085815260208120601f198616915b82811015611a9d57888601518255948401946001909101908401611a7e565b5085821015611abb5787850151600019600388901b60f8161c191681555b5050505050600190811b01905550565b60208152600061135c6020830184611387565b60008251611af0818460208701611363565b9190910192915050565b600060ff831680611b1b57634e487b7160e01b600052601260045260246000fd5b8060ff84160691505092915050565b600060ff821660ff8103611b4057611b40611974565b6001019291505056fea26469706673582212202bab3a80bc0958546e76e16b355ab9922442980dd72cf7e7dd887075d135503f64736f6c63430008140033",
  "linkReferences": {},
  "deployedLinkReferences": {}
}